:100000000C9434000C9451000C9451000C94510049
:100010000C9451000C9451000C9451000C9451001C
:100020000C9451000C9451000C9451000C9451000C
:100030000C9451000C9451000C9451000C945100FC
:100040000C9451000C9451000C9451000C945100EC
:100050000C9451000C9451000C9451000C945100DC
:100060000C9451000C94510011241FBECFEFD8E026
:10007000DEBFCDBF11E0A0E0B1E0E2ECF5E002C0F0
:1000800005900D92AA3BB107D9F721E0AAEBB1E0A8
:1000900001C01D92A73CB207E1F70E94DF000C945B
:1000A000DF020C94000090E080E02AEF30E0409105
:1000B000C00047FD0FC00196A89581344FE1940719
:1000C00024F02150310990E080E02115310579F7C5
:1000D00080E0089581E008959091C00095FFFCCFE5
:1000E0008093C60008950F931F93CF93DF93EC0185
:1000F0008C0108531F4F8991882329F00E946C00BE
:10010000C017D107C1F7DF91CF911F910F910895CB
:100110008093BB0084EC8093BC008091BC0087FF7F
:10012000FCCF0895BF92CF92DF92EF92FF920F9390
:100130001F93CF93DF93C82F062F142FD52F84E45E
:100140008093BC008091BC0087FFFCCF8091BB00F6
:100150008C2F0E948800802F0E948800E12EFD2EA7
:1001600010E000E00C2E000CDD0B6E0181E0C81ADF
:10017000D10884E8B82E0C171D07A4F4F70181916B
:100180007F01C016D10659F48093BB00B092BC0029
:100190008091BC0087FFFCCF0F5F1F4FECCF0E9408
:1001A0008800FACF80E88093BC00DF91CF911F9147
:1001B0000F91FF90EF90DF90CF90BF900895CF9375
:1001C000DF9300D000D01F92CDB7DEB780E88093D8
:1001D000610011E0109361008CEF93E00E94A10296
:1001E0008093C60180FF07C01093C60160E085EFD1
:1001F00093E00E94A902A89584B7877F84BF80916D
:1002000060008861809360001092600092E090939B
:10021000BA0080917C00806480937C0085B78F7EDB
:1002200085BF8AB18B778AB98BB184688BB92298E4
:100230002A9A85B78F7E85BF87B1887F87B98AB1B3
:10024000877C8AB988B1876088B98BB188638BB99C
:1002500084B1836084B9299828981092C1001092C3
:10026000C50080E18093C4009093C00088E1809332
:10027000C10086E08093C2008FE39CE90197F1F70B
:1002800000C0000086EF93E00E94A1028F3F29F496
:1002900060E086EF93E00E94A90286EF93E00E945F
:1002A000A102803491F40AE010E08EE891E00E940F
:1002B000730001501109C9F780E091E00E947300BA
:1002C00061E486EF93E00E94A90286EF93E00E942A
:1002D000A10286FF18C0682F606886EF93E00E9435
:1002E000A9028EE891E00E9473008EE891E00E94DE
:1002F00073008EE891E00E9473008EE891E00E9406
:1003000073000C9400361A993DC04A993BC01D8277
:1003100080E69AEE1A9902C00197E1F734E0E32EE5
:10032000F12C1CEC03E342EBD42E55E0C52E1A99B8
:1003300029C08D81082E000C990B0196B7010E94EF
:10034000B7028D83882399F3AE014B5F5F4F61E560
:1003500081E00E94920019831A830B830C83AE0103
:100360004F5F5F4F61E084E00E94920082E390E083
:10037000D6BCC5BCA89BFECFA89A15BCA895019772
:10038000B9F7D5CF4A9981C04F997FC081E391E0F9
:100390000E9473000E9453008823C1F38091C6001D
:1003A0008F7D823599F78EE891E00E94730084E496
:1003B0008093BC008091BC0087FFFCCF8091BB0084
:1003C00080E00E94880082E58093BB0084E88093EF
:1003D000BC008091BC0087FFFCCF80E88093BC000C
:1003E00088E391E00E94730084E48093BC008091D4
:1003F000BC0087FFFCCF8091BB0084EC8093BC00E5
:100400008091BC0087FFFCCFF090BB0084EC809310
:10041000BC008091BC0087FFFCCF8091BB0090E0C6
:10042000982F882724E82093BC002091BC0027FF48
:10043000FCCF0091BB00080F192F111D80E880939D
:10044000BC008DE591E00E9473004AE06AEB71E028
:100450008F2D90E00E946C028AEB91E00E94730065
:1004600084E791E00E9473004AE06AEB71E0C80102
:100470000E946C028AEB91E00E9473000E3E1240D3
:1004800024F48AE891E00E94730081E391E00E94E5
:1004900073000E9453008823C1F38091C6008F7DB2
:1004A000823599F78EE891E00E94730081E991E02E
:1004B0000E9473008FE30E946C008EE891E00E941E
:1004C00073008091C00087FD02C0A895FACF80918B
:1004D000C6000E946C00F5CFBB274A3031F4992347
:1004E00022F4BDE2909581959F4F0C947802BB2732
:1004F000FB015527AA27880F991FAA1FA41710F0E0
:10050000A41B83955051B9F7A05DAA3308F0A95DEB
:10051000A193009779F7B111B1931192CB010C948B
:100520009102DC01FC01672F71917723E1F732978B
:1005300004C07C916D9370836291AE17BF07C8F3BE
:100540000895F999FECF92BD81BDF89A992780B59B
:100550000895262FF999FECF1FBA92BD81BD20BD07
:100560000FB6F894FA9AF99A0FBE0196089597FB80
:10057000072E16F4009407D077FD09D00E94CB0215
:1005800007FC05D03EF4909581959F4F0895709596
:1005900061957F4F0895AA1BBB1B51E107C0AA1F9D
:1005A000BB1FA617B70710F0A61BB70B881F991F14
:1005B0005A95A9F780959095BC01CD010895F894BE
:0205C000FFCF6B
:1005C20050726F6A65637420636F6D6D656E7461DE
:1005D20072793A2050726573732027582720746FFE
:1005E20020657363617065206F7220414F4B0D0A65
:1005F20000523F20202020000D0A5043425F41203C
:10060200286D696E695F4F53292064657669636559
:100612002063616C6962726174696E67000D0A4FD2
:10062200534343414C20757365722076616C756546
:10063200202020000D0A63616C6962726174696F27
:100642006E206572726F7220200020204F4B0D0ABF
:10065200000D0A4578706C6F72696E672074686568
:10066200206F7065726174696F6E206F66207468A6
:0A067200652055534152540D0A0053
:00000001FF
