:100000000C9434000C9451000C9451000C94510049
:100010000C9451000C9451000C9451000C9451001C
:100020000C9451000C9451000C9451000C9451000C
:100030000C9451000C9451000C9451000C945100FC
:100040000C9451000C9451000C9451000C945100EC
:100050000C9451000C9451000C9451000C945100DC
:100060000C9451000C94510011241FBECFEFD8E026
:10007000DEBFCDBF11E0A0E0B1E0E8E2F7E002C0F2
:1000800005900D92A239B107D9F721E0A2E9B1E0BC
:1000900001C01D92AF39B207E1F70E94C6000C946F
:1000A00092030C9400009091C00095FFFCCF8093C8
:1000B000C60008958093BB0084EC8093BC008091BF
:1000C000BC0087FFFCCF0895BF92CF92DF92EF92E2
:1000D000FF920F931F93CF93DF93C82F062F142FF8
:1000E000D52F84E48093BC008091BC0087FFFCCFB7
:1000F0008091BB008C2F0E945A00802F0E945A00D2
:10010000E12EFD2E10E000E00C2E000CDD0B6E0148
:1001100081E0C81AD10884E8B82E0C171D07A4F492
:10012000F70181917F01C016D10659F48093BB007D
:10013000B092BC008091BC0087FFFCCF0F5F1F4FC7
:10014000ECCF0E945A00FACF80E88093BC00DF9188
:10015000CF911F910F91FF90EF90DF90CF90BF90C4
:1001600008950F931F93CF93DF93EC018C010853F5
:100170001F4F8991882329F00E945300C017D1078F
:10018000C1F7DF91CF911F910F9108953F924F9248
:100190005F926F927F928F929F92AF92BF92CF9217
:1001A000DF92EF92FF920F931F93CF93DF93CDB720
:1001B000DEB72D970FB6F894DEBF0FBECDBF80E837
:1001C0008093610011E0109361008CEF93E00E9436
:1001D000130380FDC9C080939E01A89584B7877FD3
:1001E00084BF8091600088618093600010926000FD
:1001F00092E09093BA0080917C00806480937C00B0
:1002000085B78F7E85BF8AB18B778AB98BB18468B9
:100210008BB922982A9A85B78F7E85BF87B1887F50
:1002200087B98AB1877C8AB988B1876088B98BB170
:1002300088638BB984B1836084B929982898109217
:10024000C1001092C50080E18093C4009093C0006B
:1002500088E18093C10086E08093C2008FE39CE92F
:100260000197F1F700C0000086EF93E00E941303AE
:100270008F3F29F460E086EF93E00E941B0386EF36
:1002800093E00E941303803491F40AE010E08EE8BA
:1002900091E00E94B10001501109C9F780E091E09E
:1002A0000E94B10061E486EF93E00E941B0386EF99
:1002B00093E00E94130386FF18C0682F606886EFE2
:1002C00093E00E941B038EE891E00E94B1008EE84B
:1002D00091E00E94B1008EE891E00E94B1008EE8AA
:1002E00091E00E94B1000C9400361A9945C04A99D9
:1002F00043C01D8680E69AEE1A9902C00197E1F785
:1003000034E0E32EF12C1CEC03E342EBD42E55E059
:10031000C52E1A9931C08D85082E000C990B0196B7
:10032000B7010E9429038D87882399F3AE01435FAB
:100330005F4F61E581E00E94640019831A830B839B
:100340000C83AE014F5F5F4F61E084E00E94640068
:1003500082E390E0D6BCC5BCA89BFECFA89A15BC92
:10036000A8950197B9F7D5CF10939E0160E085EF6E
:1003700093E00E941B0331CF4A9912C14F9910C1DB
:1003800081E391E00E94B10090E080E02AEF30E04C
:100390004091C00047FD8CC00196A8958134EFE1E3
:1003A0009E0724F02150310990E080E021153105AD
:1003B00079F7E6CF8EE891E00E94B10081E2C82E85
:1003C000D12CE12CF12CCE0101965C019AE0492E52
:1003D000512C612C712C3C2CC701B601450110E059
:1003E00000E00F5F1F4FA30192010E943D03605D7B
:1003F000F40161934F01B901CA01161617061806D8
:1004000019067CF30A0D1B1DF8011082F801829178
:100410008F010E9453000A151B05C1F780E20E945C
:100420005300832D0E945300A895FFEF20E742E080
:10043000F15020404040E1F700C00000C601809725
:1004400087709927892BA1F48EE891E00E94B10072
:100450009FEFC91AD90AE90AF90AEFE7CE16D104C3
:10046000E104F10409F0B7CF4A9B06C0A895FCCF80
:1004700089E00E945300ECCF4A9BFECF90E080E0E1
:100480002D960FB6F894DEBF0FBECDBFDF91CF9192
:100490001F910F91FF90EF90DF90CF90BF90AF90A2
:1004A0009F908F907F906F905F904F903F900895B6
:1004B0008091C6008F7D823509F062CF8EE891E091
:1004C0000E94B10084E48093BC008091BC0087FF4F
:1004D000FCCF8091BB0080E00E945A0082E58093AF
:1004E000BB0084E88093BC008091BC0087FFFCCFF8
:1004F00080E88093BC0088E391E00E94B10084E42E
:100500008093BC008091BC0087FFFCCF8091BB0032
:1005100084EC8093BC008091BC0087FFFCCFF090FE
:10052000BB0084EC8093BC008091BC0087FFFCCFB3
:100530008091BB0090E0982F882724E82093BC008E
:100540002091BC0027FFFCCF0091BB00080F192FA2
:10055000111D80E88093BC008DE591E00E94B10000
:100560004AE062E971E08F2D90E00E94DE0282E9AC
:1005700091E00E94B10084E791E00E94B1004AE05E
:1005800062E971E0C8010E94DE0282E991E00E9406
:10059000B1000E3E124024F48AE891E00E94B100BE
:1005A00088E19BE00FB6F894A895809360000FBE99
:1005B000909360004A99FECEA895FCCFBB274A30A5
:1005C00031F4992322F4BDE2909581959F4F0C94CC
:1005D000EA02BB27FB015527AA27880F991FAA1FEC
:1005E000A41710F0A41B83955051B9F7A05DAA334E
:1005F00008F0A95DA193009779F7B111B193119219
:10060000CB010C940303DC01FC01672F719177236C
:10061000E1F7329704C07C916D9370836291AE17BD
:10062000BF07C8F30895F999FECF92BD81BDF89A2E
:10063000992780B50895262FF999FECF1FBA92BD4C
:1006400081BD20BD0FB6F894FA9AF99A0FBE0196B3
:10065000089597FB072E16F4009407D077FD09D074
:100660000E945C0307FC05D03EF4909581959F4F56
:100670000895709561957F4F0895052E97FB1EF4A0
:1006800000940E94540357FD07D00E94700307FC9A
:1006900003D04EF40C945403509540953095219519
:1006A0003F4F4F4F5F4F089590958095709561959E
:1006B0007F4F8F4F9F4F0895AA1BBB1B51E107C06F
:1006C000AA1FBB1FA617B70710F0A61BB70B881FE2
:1006D000991F5A95A9F780959095BC01CD01089571
:1006E000A1E21A2EAA1BBB1BFD010DC0AA1FBB1F36
:1006F000EE1FFF1FA217B307E407F50720F0A21BA8
:10070000B30BE40BF50B661F771F881F991F1A9414
:1007100069F760957095809590959B01AC01BD013E
:08072000CF010895F894FFCF0A
:1007280050726F6A65637420636F6D6D656E746176
:1007380072793A2050726573732027582720746F96
:1007480020657363617065206F7220414F4B0D0AFD
:1007580000523F20202020000D0A5043425F4120D4
:10076800286D696E695F4F532920646576696365F2
:100778002063616C6962726174696E67000D0A4F6B
:10078800534343414C20757365722076616C7565DF
:10079800202020000D0A63616C6962726174696FC0
:1007A8006E206572726F7220200020204F4B0D0A58
:0207B80000003F
:00000001FF
