:100000000C9494000C94BC000C94BC000C94D3038E
:100010000C94BC000C941E030C94BC000C94BC000B
:100020000C94BC000C94BC000C94BC000C94BC0060
:100030000C94BC000C94BC000C94BC000C94BC0050
:100040000C947C020C94BC000C94EC020C94C60240
:100050000C94BC000C94BC000C94BC000C94BC0030
:100060000C94BC000C94BC0007634236B79BD8A725
:100070001A39685618AEBAAB558C1D3CB7CC5763CD
:10008000BD6DEDFD753EF6177231BF000000803F7B
:1000900008000000BE922449123EABAAAA2ABECD97
:1000A000CCCC4C3E00000080BEABAAAAAA3E000009
:1000B0000000BF000000803F000000000008417801
:1000C000D3BB4387D1133D190E3CC3BD4282AD2B38
:1000D0003E68EC8276BED98FE1A93E4C80EFFFBE30
:1000E00001C4FF7F3F00000000004E414E494E49D1
:1000F0005459494E46CDCCCC3D0AD7233C17B7D1F5
:100100003877CC2B329595E6241FB14F0A0000209A
:10011000410000C84200401C4620BCBE4CCA1B0E19
:100120005AAEC59D7400150411241FBECFEFD8E050
:10013000DEBFCDBF23E0AEEBB2E001C01D92A2381E
:10014000B207E1F712E0A0E0B1E0E4EDFFE102C0A8
:1001500005900D92AE3BB107D9F710E0C4E9D0E0AD
:1001600004C02197FE010E94E20FC339D107C9F7ED
:100170000E9442040C94E80F0C940000AF92BF92CE
:10018000CF92DF92EF92FF920F931F93CF93DF9363
:100190006C017B018B01040F151FEB015E01AE1892
:1001A000BF08C017D10759F06991D601ED91FC91B4
:1001B0000190F081E02DC6010995892B79F7C501E1
:1001C000DF91CF911F910F91FF90EF90DF90CF9033
:1001D000BF90AF900895FC01538D448D252F30E0E2
:1001E000842F90E0821B930B541710F0CF96089544
:1001F00001970895FC01918D828D981761F0A28D71
:10020000AE0FBF2FB11D5D968C91928D9F5F9F7336
:10021000928F90E008958FEF9FEF0895FC01918DEC
:10022000828D981731F0828DE80FF11D858D90E059
:1002300008958FEF9FEF0895FC01918D228D892FF6
:1002400090E0805C9F4F821B91098F7399270895DE
:10025000FC01A48DA80FB92FB11DA35ABF4F2C913B
:10026000848D90E001968F739927848FA689B78932
:100270002C93A089B1898C91837080648C93938D29
:10028000848D981306C00288F389E02D80818F7DCC
:1002900080830895EF92FF920F931F93CF93DF9384
:1002A000EC0181E0888F9B8D8C8D98131AC0E889B2
:1002B000F989808185FF15C09FB7F894EE89FF8981
:1002C0006083E889F98980818370806480839FBF1F
:1002D00081E090E0DF91CF911F910F91FF90EF901F
:1002E0000895F62E0B8D10E00F5F1F4F0F7311272F
:1002F000E02E8C8D8E110CC00FB607FCFACFE8896A
:10030000F989808185FFF5CFCE010E942801F1CFC8
:10031000EB8DEC0FFD2FF11DE35AFF4FF0829FB7DD
:10032000F8940B8FEA89FB8980818062CFCFCF93CD
:10033000DF93EC01888D8823B9F0AA89BB89E8890D
:10034000F9898C9185FD03C0808186FD0DC00FB6B3
:1003500007FCF7CF8C9185FFF2CF808185FFEDCF31
:10036000CE010E942801E9CFDF91CF91089530E0BE
:1003700020E042EB57E04093B2005093B100B89BAD
:10038000FECFB89A1092B100A8952F5F3F4F821709
:10039000930789F708958093BB0084E88093BC009D
:1003A0008091BC0087FFFCCF08958093BB0084EC54
:1003B0008093BC008091BC0087FFFCCF0895CF9252
:1003C000DF92EF92FF920F931F93CF93DF93C82F8B
:1003D000062F142FD52F84E48093BC008091BC009D
:1003E00087FFFCCF8091BB008C2F0E94D501802F0E
:1003F0000E94D501E12EFD2E10E000E00C2E000C35
:10040000DD0B6E0181E0C81AD1080C171D0774F4CA
:10041000F70181917F01C016D10629F40E94CB011A
:100420000F5F1F4FF2CF0E94D501FACF80E8809373
:10043000BC00DF91CF911F910F91FF90EF90DF9063
:10044000CF9008954BED52E064E088E00C94DF011A
:10045000FC0101900020E9F73197AF01481B590BCF
:10046000BC0183EE92E00C94BE00009711F00C9456
:10047000280290E080E008958F929F92AF92BF9201
:100480000F931F93CF93DF93CDB7DEB7A1970FB62E
:10049000F894DEBF0FBECDBF19A2423008F44AE087
:1004A0008E010F5D1F4F842E912CB12CA12CA50124
:1004B00094010E948D0FE62FB901CA01EA30D4F4ED
:1004C000E05DD801EE938D01232B242B252B79F7AA
:1004D000CD010E943502A1960FB6F894DEBF0FBE83
:1004E000CDBFDF91CF911F910F91BF90AF909F90A3
:1004F0008F900895E95CE5CF1F920F920FB60F928F
:1005000011242F933F938F939F93AF93BF93809129
:10051000D7029091D802A091D902B091DA0230911D
:10052000D60223E0230F2D3758F50196A11DB11DEA
:100530002093D6028093D7029093D802A093D90239
:10054000B093DA028091D2029091D302A091D402AA
:10055000B091D5020196A11DB11D8093D202909356
:10056000D302A093D402B093D502BF91AF919F91D3
:100570008F913F912F910F900FBE0F901F90189564
:1005800026E8230F0296A11DB11DD2CF1F920F9214
:100590000FB60F9211242F933F934F935F936F9356
:1005A0007F938F939F93AF93BF93EF93FF9383EECC
:1005B00092E00E942801FF91EF91BF91AF919F912E
:1005C0008F917F916F915F914F913F912F910F90FC
:1005D0000FBE0F901F9018951F920F920FB60F929B
:1005E00011242F938F939F93EF93FF93E091F30246
:1005F000F091F4028081E091F902F091FA0282FD1B
:100600001BC090818091FC028F5F8F732091FD024F
:10061000821741F0E091FC02F0E0ED51FD4F958F23
:100620008093FC02FF91EF919F918F912F910F90FA
:100630000FBE0F901F9018958081F4CF1F920F92DC
:100640000FB60F9211240F931F932F933F934F9345
:100650005F936F937F938F939F93AF93BF93CF934A
:10066000DF93EF93FF934A9B02C04F9970C0C5E69A
:10067000D0E31EE20DE24A9946C08091DB028E3241
:10068000C9F134F48D3269F18F5F8093DB021FC0B2
:10069000893349F08536C1F78091D102893071F0F4
:1006A0008B3061F014C08091D1028930B9F04CF4E4
:1006B000843059F0883011F0811109C0D093DB02E9
:1006C00006C08C30A4F08E3111F40093DB020E943E
:1006D000220284E190E00E94B701CDCFC093DB02FB
:1006E000F6CF8091D102843049F38E3181F7109397
:1006F000DB02EDCF8091D1028B3081F38E31F1F2AC
:100700008A3029F7DBCF4F991DC08091D1028B7EB3
:100710008093D1028091DB028E3271F1853691F1A6
:100720008D32C9F5E2EEF2E08291818382E0EB3D09
:10073000F807D1F780E38093DB020E94220281E078
:100740008093D00284E190E00E94B701DA9AFF9191
:10075000EF91DF91CF91BF91AF919F918F917F9159
:100760006F915F914F913F912F911F910F910F903A
:100770000FBE0F901F9018958091D1028C7F8093AF
:10078000D102D0CF8091D102847F8093D102809119
:10079000D1028460F4CF8091D10283FFC3CF8091D6
:1007A000D1028160ECCF1F920F920FB60F921124ED
:1007B0002F933F934F935F936F937F938F939F9369
:1007C000AF93BF93EF93FF93CF93DF9300D0CDB759
:1007D000DEB71A9915C081E689831A82AE014F5F90
:1007E0005F4F62E082E00E94DF0189E190E00E94B9
:1007F000B7010E94220281E08093CF028093D00251
:100800000F900F90DF91CF91FF91EF91BF91AF913A
:100810009F918F917F916F915F914F913F912F9118
:100820000F900FBE0F901F901895E3EEF2E0138229
:10083000128288EE93E0A0E0B0E084839583A683E3
:10084000B78384E091E09183808385EC90E0958785
:10085000848784EC90E09787868780EC90E0918B8A
:10086000808B81EC90E0938B828B82EC90E0958B77
:10087000848B86EC90E0978B868B118E128E138E74
:10088000148E0895CF93DF93CDB7DEB769970FB677
:10089000F894DEBF0FBECDBF80E88093610011E009
:1008A000109361008CEF93E00E946E0C80FDE6C017
:1008B0008093CE028091CE0283FF03C081E08093BB
:1008C000CD02A89584B7877F84BF8091600088613E
:1008D000809360001092600092E09093BA00809143
:1008E0007C00806480937C0085B78F7E85BF8AB151
:1008F0008B778AB98BB184688BB922982A9A85B78D
:100900008F7E85BF87B1887F87B98AB1877C8AB996
:1009100088B1876088B98BB188638BB984B18360F3
:1009200084B929982898E091F302F091F402908319
:10093000E091EF02F091F0021082E091F102F0916B
:10094000F20280E180831092FB02E091F702F091C5
:10095000F80286E08083E091F502F091F602808152
:1009600080618083E091F502F091F60280818860D9
:100970008083E091F502F091F602808180688083A7
:10098000E091F502F091F60280818F7D808378946A
:1009900086EF93E00E946E0C8F3F29F460E086EFB3
:1009A00093E00E94760C86EF93E00E946E0C8034F8
:1009B00091F40AE010E085E592E00E9435020150D2
:1009C0001109C9F782E191E00E94350261E486EFE6
:1009D00093E00E94760C86EF93E00E946E0C86FFF7
:1009E00018C0682F606886EF93E00E94760C85E55A
:1009F00092E00E94350285E592E00E94350285E58D
:100A000092E00E94350285E592E00E9435020C9446
:100A100000361A993BC04A9939C0188A80E69AEE86
:100A20001A9902C00197E1F704E010E09CECC92E8E
:100A300023E3D22E1A992AC08889082E000C990B1C
:100A40000196B8010E94790F888B882399F3AE0133
:100A5000405F5F4F61E581E00E94DF01C982CA8289
:100A6000DB82DC82AE014F5F5F4F61E084E00E9479
:100A7000DF0182E390E00E94B701DCCF1093CE0249
:100A800060E085EF93E00E94760C14CF4A99CBC3C7
:100A90004F99C9C383E491E00E94350210E000E061
:100AA0008AEFC82ED12C83EE92E00E941C01892B84
:100AB00009F046C30F5F1F4FA89501342FE11207BD
:100AC0002CF031E0C31AD10810E000E0C114D104C9
:100AD00051F7E0CF88E592E00E9435021092CD02F6
:100AE000AAC39091DB0290839DE09183882309F44F
:100AF0005FC08F2D9E2D0E947B09E82EFE2CD98091
:100B00008DE2D81257C0C8010E96D80111962C91CB
:100B1000F80121938F018E179F07B9F78B2D9C2D1C
:100B20000E9477094B015C011E140CF046C020E0C6
:100B300030E040E251E4C501B4010E94AD0B4B012D
:100B40005C01FA94F110F3CFFDE2DF1204C0B7FAB2
:100B5000B094B7F8B09480916B008B7F80936B005A
:100B600020E030E0A901C501B4010E94EA0D181689
:100B7000ACF120E030E040E450E42E8B3F8B488F16
:100B8000598FD501C4010097E0E8AE07EFE7BE0733
:100B900071F582E692E00E94350288E199E00FB695
:100BA000F894A895809360000FBE90936000FFCFEB
:100BB000E12CA4CFBBE2DB2EB1CFEE2009F4C4CFF1
:100BC00020E030E040E251E4C501B4010E94420D52
:100BD0004B015C01F394F110F3CFB6CF8AE999E9A8
:100BE000A9E9BFE38E8B9F8BA88FB98FCACF0097DF
:100BF000F0E8AF07FFEFBF0779F486E792E00E94C5
:100C0000350288E199E00FB6F894A89580936000CA
:100C10000FBE90936000FFCF0097A105B10579F456
:100C20008AE892E00E94350288E199E00FB6F894D4
:100C3000A895809360000FBE90936000FFCF00974F
:100C4000A105B04879F48EE992E00E94350288E16E
:100C500099E00FB6F894A895809360000FBE90932A
:100C60006000FFCF20E030E0A901C501B4010E947F
:100C7000470B87FF24C0D501C401B058898B9A8BDC
:100C8000AB8BBC8B9DE29D8BC988DA88EB88FC8896
:100C900000E020E030E040E85FE3C701B6010E94D9
:100CA000EA0D87FD13C020E030E040E251E4C701C7
:100CB000B6010E94420D6B017C010F5FEACF898A69
:100CC0009A8AAB8ABC8AABE2AD8BDECF20E030E003
:100CD00040E85FE3C701B6010E94470B181664F0B5
:100CE00020E030E040E251E4C701B6010E94AD0BC4
:100CF0006B017C010150EACFBD89BD3221F4F7FAC6
:100D0000F094F7F8F094A7019601C701B6010E948C
:100D10003F0E882309F44CC082EB92E00E94280227
:100D20000023F1F065E483EE92E00E944A01C02EB8
:100D3000000FDD08EE08FF084AE0C701B601F7FE24
:100D40000DC06DE283EE92E00E944A01662777278C
:100D5000CB016C197D098E099F094AE00E943C0273
:100D60006DE083EE92E00E944A0120E030E040E82E
:100D70005FE369897A898B899C890E94EA0DC98819
:100D8000DA88EB88FC8810E087FD9DC020E030E029
:100D900040E251E4C701B6010E94420D6B017C01A3
:100DA0001F5F20E030E040E85FE30E94EA0DECCFF7
:100DB00026013701E89477F82FEF3FEF4FE75FE721
:100DC000C301B2010E943F0E81110DC02FEF3FEF12
:100DD0004FE75FE7C301B2010E94470B18161CF4EE
:100DE00086EB92E09BCF2FEF3FEF4FE75FE4C70129
:100DF000B6010E94EA0D18161CF48AEB92E08ECF21
:100E00002FEF3FEF4FE75FECC701B6010E94470BA2
:100E100087FDF3CF20E030E0A901C701B6010E94B1
:100E2000470B87FF09C06DE283EE92E00E944A0102
:100E3000F7FAF094F7F8F0942CEB37E346E055E33B
:100E4000C701B6010E94D60C6B017C010E94BB0D4C
:100E50002B013C010E944C0B9B01AC01C701B60168
:100E60000E94D50C6B017C014AE0C301B2010E94D3
:100E70003C026EE283EE92E00E944A0117E01150BC
:100E800009F44ECF20E030E040E251E4C701B60162
:100E90000E94AD0B2B013C010E94BB0D6B01F12C9C
:100EA000E12C4AE0C701B6010E943C02C701B6012D
:100EB0000E944C0B9B01AC01C301B2010E94D50CF6
:100EC0006B017C01DCCF2DEC3CEC4CEC5DE36989E3
:100ED0007A898B899C890E94470B87FF0AC02DEC79
:100EE0003CEC4CEC5DE3C701B6010E94470B87FD6B
:100EF00025C0412C512C32014394C701B6010E94F8
:100F0000B40D0E944E0B9B01AC01C701B6010E94BB
:100F1000470B8823F9F020E030E040E251E4C701BC
:100F2000B6010E94AD0B6B017C01AAE0B0E0A30109
:100F300092010E94840C2B013C01DFCF20E030E0C5
:100F400040E251E4C701B6010E94AD0B6B017C0188
:100F50001150C5CFED89ED3221F4F7FAF094F7F88E
:100F6000F094C701B6010E94B40D6B017C01F0EC56
:100F7000FF1AF7FC07C041145104610420E4720613
:100F80000CF4AEC122E030E040E050E00E94AF0F30
:100F9000CA01B901759467945794479497FDA4C109
:100FA00077FCA0C10BE2EEE02E2E312CC12CD12C0F
:100FB0007601660F771F881F991FA30192010E9477
:100FC000AF0F698B7D8BF82FE92F232B242B252B3B
:100FD00081F081E090E0022C02C0880F991F0A94F2
:100FE000E2F7092E000CAA0BBB0BC82AD92AEA2A61
:100FF000FB2A69897D898F2F9E2F31E0231A3108C2
:10100000C0F6A60133272227298B3A8B4B8B5C8BAA
:101010004FE0E42EF12CD12CC12C660F771F881FD6
:10102000991FA30192010E94AF0FB62FA72FF82F8F
:10103000E92F232B242B252B51F081E090E00E2C5F
:1010400002C0880F991F0A94E2F7C82AD92A6B2F89
:101050007A2F8F2F9E2F31E0E31AF108F0F689895D
:101060009A89AB89BC898C0D9D1DA11DB11D0D32C6
:1010700021F480959095A095B095B983AA839B8320
:101080008C831D83AE014F5F5F4F6BE485E00E9450
:10109000DF0180916B008093CC0280916D00809382
:1010A000CB0250E35093CA0280916D00847884385B
:1010B00021F080916B0082FF0AC080916B008B7FD2
:1010C00080936B0080916D008B7780936D001A99EF
:1010D00033C081E38093CA024A9B02C04F9903C088
:1010E000A2E3A093CA02B4E4B093BC008091BC0018
:1010F00087FFFCCF8091BB008091CA020E94CB0188
:10110000E0E8E093BC008091CA02823301F780914D
:10111000CC0280936B008091CB0280936D004A9B40
:10112000FECF2E893F89488D598DC501B4010E949B
:10113000EF0D4B015C0125CD90E39093CA02CCCF1B
:1011400083EE92E00E94FA008F7D823509F0A2CCF6
:1011500085E592E00E94350284E48093BC00809192
:10116000BC0087FFFCCF8091BB0080E00E94D501CE
:1011700082E50E94CB0180E88093BC008AE491E084
:101180000E94350284E48093BC008091BC0087FFFC
:10119000FCCF8091BB0084EC8093BC008091BC00AC
:1011A00087FFFCCFD090BB0084EC8093BC00809183
:1011B000BC0087FFFCCF8091BB0090E0982F882770
:1011C00024E82093BC002091BC0027FFFCCF0091B5
:1011D000BB00080F192F111D80E88093BC008FE61B
:1011E00091E00E9435024AE06EEB72E08D2D90E0B6
:1011F0000E9499098EEB92E00E94350286E891E008
:101200000E9435024AE06EEB72E0C8010E94990923
:101210008EEB92E00E9435020E3E124024F48CE9DF
:1012200091E00E9435028091CD02811153CC83EA76
:1012300091E00E9435028E010F5F1F4FCE01409654
:10124000F801B02EC12E1192E817F907E1F780914D
:10125000680085608093680080916B008460809353
:101260006B0080916D00846880936D001092DC02A9
:101270001092DD021092DE021092DF021092E00264
:101280001092E1021092E20280E38093DB020E945E
:1012900022028EE18093D10278941092CF021092B4
:1012A000D002F80180E09DE0DF012091D0022223EE
:1012B000E1F31092D0022091CF02211112CC31968D
:1012C0002091DC022C9355E05A95F1F70000209113
:1012D000DC02253649F79C93FE2EEF2E81E0E4CF09
:1012E00097FF60CE0DE25FCE77FC5CCEFBCF66272A
:1012F00077270C94C609FC0188279927E894219147
:101300002032E9F3293010F02E30C8F32B3241F0AF
:101310002D3239F4689404C00E94A409820F911DF3
:10132000219120532A30C0F31EF4909581959F4F50
:101330000895BB274A3031F4992322F4BDE29095F9
:1013400081959F4F0C94AD097AE0979F902D879FD0
:10135000802D910D11240895BB27FB015527AA2745
:10136000880F991FAA1FA41710F0A41B8395505132
:10137000B9F7A05DAA3308F0A95DA193009779F7AA
:10138000B111B1931192CB010C94370BB0E0A0E0F6
:10139000ECECF9E00C94950C5C017B016115710596
:1013A00019F0DB018D939C9385010F5F1F4FF501B1
:1013B000D0818D2F90E00E94160B6C01892BB9F51E
:1013C000DD32B9F50F5F1F4FD5011196DC91C1E0F9
:1013D0005801F1E0AF1AB10843E050E062EF70E06D
:1013E000C5010E941F0B892B69F5680182E0C80EB8
:1013F000D11C45E050E06DEE70E0C6010E941F0B6D
:10140000892B21F4680197E0C90ED11CE114F10485
:1014100019F0D701CD92DC9260E070E080E89FEF98
:10142000C111FFC060E070E080E89FE7FAC058019A
:10143000BBCFDB3229F485010E5F1F4FF501D1814F
:10144000C0E0C6CF43E050E06AEE70E0C5010E9404
:101450001F0B892BE9F0F80110E000E020E030E0FC
:10146000A9015F01B0ED8B2E8D0E89E08815C8F1C2
:101470009C2E689491F88C2F8870C2FF16C0811141
:1014800002C00F5F1F4F3196D501DC91C92DE9CF06
:10149000E114F10429F00E5F1F4FF701118300835F
:1014A00060E070E080EC9FE7BCC0882311F0015041
:1014B0001109A5E0B0E00E94840C9B01AC01220F51
:1014C000331F441F551F280D311D411D511D283943
:1014D00099E93907490799E15907A8F2C6609C2E96
:1014E000D2CFAEEF8A1206C0C3FD3CC09C2E6894DA
:1014F00093F8C9CFDF7DD534A9F580818D3239F4D9
:10150000C061DF011296818162E070E006C0DF01F8
:101510008B32C1F3119661E070E080535D01A61A31
:10152000B70A8A30F8F4E0E8CE16ECE0DE065CF4A8
:10153000B601660F771F660F771FC60ED71ECC0C3D
:10154000DD1CC80ED11C5D01FFEFAF1ABF0A8C91E4
:1015500080538A30A8F1C4FF03C0D194C194D1084C
:101560000C0D1D1DC1FF09C0E114F10431F081E033
:10157000A81AB108D701AD92BC92CA01B9010E9464
:101580004C0BC370C33009F490584B015C0120E050
:1015900030E0A9010E94470B882309F440C0C1E252
:1015A000D1E017FF05C0119501951109C9E0D1E0FF
:1015B0006E01B8E1CB1AD10880E2E82EF12C0FC001
:1015C000D501B1CFFE0125913591459154910E1968
:1015D0001F09C501B4010E94AD0B4B015C01D5018F
:1015E000C4010E151F0574F72497F594E794CC16E3
:1015F000DD06A9F78A2F880F8B2F881F8F3F49F0B0
:1016000020E030E0A901C501B4010E94470B81111F
:1016100006C082E290E09093810380938003C5012D
:10162000B401CDB7DEB7ECE00C94B10C91110C9481
:101630001A0C803219F089508550C8F70895FB01C3
:10164000DC014150504088F08D9181341CF08B3585
:101650000CF4805E659161341CF06B350CF4605EB7
:10166000861B611171F3990B0895881BFCCFDC0177
:10167000FC01672F71917723E1F7329704C07C91C9
:101680006D9370836291AE17BF07C8F308950E94EF
:10169000890B08F481E00895E89409C097FB3EF4B3
:1016A00090958095709561957F4F8F4F9F4F9923AF
:1016B000A9F0F92F96E9BB279395F695879577952D
:1016C0006795B795F111F8CFFAF4BB0F11F460FFED
:1016D0001BC06F5F7F4F8F4F9F4F16C0882311F045
:1016E00096E911C0772321F09EE8872F762F05C059
:1016F000662371F096E8862F70E060E02AF09A95F4
:10170000660F771F881FDAF7880F9695879597F9E8
:101710000895990F0008550FAA0BE0E8FEEF161682
:101720001706E807F907C0F012161306E407F507D5
:1017300098F0621B730B840B950B39F40A2661F049
:10174000232B242B252B21F408950A2609F4A140EC
:10175000A6958FEF811D811D08950E94C00B0C94EA
:10176000340C0E94260C38F00E942D0C20F095239A
:1017700011F00C941D0C0C94230C11240C94680C87
:101780000E94450C70F3959FC1F3950F50E0551FD3
:10179000629FF001729FBB27F00DB11D639FAA27C6
:1017A000F00DB11DAA1F649F6627B00DA11D661F15
:1017B000829F2227B00DA11D621F739FB00DA11D36
:1017C000621F839FA00D611D221F749F3327A00DF0
:1017D000611D231F849F600D211D822F762F6A2F8C
:1017E00011249F5750409AF0F1F088234AF0EE0FF1
:1017F000FF1FBB1F661F771F881F91505040A9F71E
:101800009E3F510580F00C941D0C0C94680C5F3FBA
:10181000E4F3983ED4F3869577956795B795F79559
:10182000E7959F5FC1F7FE2B880F911D96958795D1
:1018300097F9089599278827089597F99F6780E871
:1018400070E060E008959FEF80EC089500240A9412
:101850001616170618060906089500240A9412168B
:101860001306140605060895092E0394000C11F4BE
:10187000882352F0BB0F40F4BF2B11F460FF04C06B
:101880006F5F7F4F8F4F9F4F089557FD9058440FC4
:10189000551F59F05F3F71F04795880F97FB991FCF
:1018A00061F09F3F79F0879508951216130614068C
:1018B000551FF2CF4695F1DF08C016161706180619
:1018C000991FF1CF86957105610508940895E894F4
:1018D000BB2766277727CB0197F90895F999FECFA3
:1018E00092BD81BDF89A992780B50895262FF99960
:1018F000FECF1FBA92BD81BD20BD0FB6F894FA9AF3
:10190000F99A0FBE019608950E94C60CA59F900DEE
:10191000B49F900DA49F800D911D112408952F92C6
:101920003F924F925F926F927F928F929F92AF926F
:10193000BF92CF92DF92EF92FF920F931F93CF93BC
:10194000DF93CDB7DEB7CA1BDB0B0FB6F894DEBF53
:101950000FBECDBF09942A88398848885F846E8479
:101960007D848C849B84AA84B984C884DF80EE80C3
:10197000FD800C811B81AA81B981CE0FD11D0FB6CC
:10198000F894DEBF0FBECDBFED010895A29FB00158
:10199000B39FC001A39F700D811D1124911DB29FA3
:1019A000700D811D1124911D08955058BB27AA2741
:1019B0000E94ED0C0C94340C0E94260C38F00E940E
:1019C0002D0C20F039F49F3F19F426F40C94230CCD
:1019D0000EF4E095E7FB0C941D0CE92F0E94450CDA
:1019E00058F3BA17620773078407950720F079F454
:1019F000A6F50C94670C0EF4E0950B2EBA2FA02DD3
:101A00000B01B90190010C01CA01A0011124FF27AB
:101A1000591B99F0593F50F4503E68F11A16F040A6
:101A2000A22F232F342F4427585FF3CF46953795A5
:101A30002795A795F0405395C9F77EF41F16BA0B6A
:101A4000620B730B840BBAF09150A1F0FF0FBB1F18
:101A5000661F771F881FC2F70EC0BA0F621F731F61
:101A6000841F48F4879577956795B795F7959E3FBE
:101A700008F0B0CF9395880F08F09927EE0F97954F
:101A8000879508950E94560D0C94340C0E942D0CDD
:101A900058F00E94260C40F029F45F3F29F00C9486
:101AA0001D0C51110C94680C0C94230C0E94450CD5
:101AB00068F39923B1F3552391F3951B550BBB277D
:101AC000AA2762177307840738F09F5F5F4F220FC2
:101AD000331F441FAA1FA9F335D00E2E3AF0E0E8B9
:101AE00032D091505040E695001CCAF72BD0FE2F03
:101AF00029D0660F771F881FBB1F26173707480797
:101B0000AB07B0E809F0BB0B802DBF01FF2793584E
:101B10005F4F3AF09E3F510578F00C941D0C0C94E9
:101B2000680C5F3FE4F3983ED4F38695779567950C
:101B3000B795F7959F5FC9F7880F911D9695879583
:101B400097F90895E1E0660F771F881FBB1F6217A2
:101B500073078407BA0720F0621B730B840BBA0B60
:101B6000EE1F88F7E09508950E94BB0D6894B111AF
:101B70000C94680C08950E944D0C88F09F5798F0C3
:101B8000B92F9927B751B0F0E1F0660F771F881F82
:101B9000991F1AF0BA95C9F714C0B13091F00E949C
:101BA000670CB1E008950C94670C672F782F882795
:101BB000B85F39F0B93FCCF3869577956795B395C3
:101BC000D9F73EF490958095709561957F4F8F4F32
:101BD0009F4F08950E94890B08F48FEF0895FA0132
:101BE000EE0FFF1F309621053105A1F1611571053A
:101BF00061F48038BFE39B0749F168949038810510
:101C000061F08038BFEF9B0741F099234AF5FF3F11
:101C1000E1053105210519F1E8940894E795D9010A
:101C2000AA2329F4AB2FBE2FF85FD0F310C0FF5FBB
:101C300070F4A695E0F7F73950F019F0FF3A38F450
:101C40009F779F930DD00F9007FC9058089546F012
:101C50000C94230C60E070E080E89FE308954FE768
:101C60009F775F934F933F932F930E94EF0E2F9197
:101C70003F914F915F910E94AD0B0C944C0E0E94CE
:101C8000890B880B990B089529F416F00C941D0C00
:101C90000C94670C0C94230C0E944D0CA8F39638FE
:101CA000A0F707F80F92E8942BE33AEA48EB5FE7D6
:101CB0000E94C30B0F920F920F924DB75EB70F9217
:101CC0000E94370FE8E6F0E00E947E0E4F915F9190
:101CD000EF91FF91E595EE1FFF1F49F0FE57E06879
:101CE0004427EE0F441FFA95E1F74195550B0E94EA
:101CF000B10E0F9007FE0C94A50E0895DF93CF93BD
:101D00001F930F93FF92EF92DF927B018C016894F7
:101D100006C0DA2EEF010E94C00BFE01E894A591E7
:101D20002591359145915591A6F3EF010E94ED0C57
:101D3000FE019701A801DA9469F7DF90EF90FF9018
:101D40000F911F91CF91DF9108959B01AC0160E04D
:101D500070E080E89FE30C94420D0C941D0C0C94F1
:101D60006B0F0E944D0CD8F39923C9F3940F511DAA
:101D7000A3F39150504094F059F0882332F0660F4D
:101D8000771F881F91505040C1F79E3F51052CF797
:101D9000880F911D9695879597F908955F3FACF050
:101DA000983E9CF0BB27869577956795B79508F484
:101DB000B1609395C1F7BB0F58F711F460FFE8CFFE
:101DC0006F5F7F4F8F4F9F4FE3CF0C94680C16F0DF
:101DD0000C946B0F0C94230C68940C941D0C0E94B3
:101DE0004D0CA8F39923C1F3AEF3DF93CF931F9368
:101DF0000F93FF92C92FDD2788232AF02197660FC2
:101E0000771F881FDAF720E030E040E85FEB9FE3C0
:101E1000883920F0803E38F021968F770E94D60CCA
:101E2000E0E9F0E004C00E94D60CEDEBF0E00E9487
:101E30007E0E8B01BE01EC01FB2E6F57710975956B
:101E4000771F880B990B0E944E0B28E132E741E384
:101E50005FE30E94C00BAF2D9801AE01FF900F9180
:101E60001F91CF91DF910E94ED0C0C94340CFA017C
:101E7000DC01AA0FBB1F9B01AC01BF5728F422272E
:101E800033274427507820C0B75190F4AB2F00245B
:101E9000469537952795011CA395D2F3002071F044
:101EA000220F331F441FB395DAF30ED00C94D50CD8
:101EB00061307105A0E88A07B94630F49B01AC0196
:101EC0006627772788279078309621F02083318302
:101ED0004283538308959F3F31F0915020F48795BA
:101EE00077956795B795880F911D9695879597F982
:101EF000089597FB072E16F4009407D077FD09D0BC
:101F00000E94CE0F07FC05D03EF4909581959F4F1F
:101F10000895709561957F4F0895A1E21A2EAA1B2E
:101F2000BB1BFD010DC0AA1FBB1FEE1FFF1FA21789
:101F3000B307E407F50720F0A21BB30BE40BF50B86
:101F4000661F771F881F991F1A9469F7609570950F
:101F5000809590959B01AC01BD01CF010895052EA0
:101F600097FB1EF400940E94C60F57FD07D00E94F5
:101F70008D0F07FC03D04EF40C94C60F509540957E
:101F8000309521953F4F4F4F5F4F08959095809525
:101F9000709561957F4F8F4F9F4F0895AA1BBB1B74
:101FA00051E107C0AA1FBB1FA617B70710F0A61B59
:101FB000B70B881F991F5A95A9F780959095BC017A
:101FC000CD010895EE0FFF1F0590F491E02D0994C7
:041FD000F894FFCFB3
:101FD400000000004A01BE00EB0097011C01FA005A
:101FE4000E0150726F6A65637420636F6D6D656E68
:101FF400746172793A2050726573732027582720D0
:10200400746F20657363617065206F7220414F4B5C
:102014000D0A00523F20202020000D0A5043425F49
:102024004120286D696E695F4F5329206465766984
:1020340063652063616C6962726174696E67000D27
:102044000A4F534343414C20757365722076616C8B
:102054007565202020000D0A63616C6962726174E9
:10206400696F6E206572726F7220200020204F4BC2
:102074000D0A0050726573733A2073775F312074D0
:102084006F20706F70756C61746520646967697422
:102094005F302C2073773220746F20736869667404
:1020A4002074686520646973706C6179206C65665E
:1020B400740D0A73775F3320746F20656E746572D4
:1020C40020746865206E756D62657220616E64208F
:1020D40073773120746F20636C6561722074686556
:1020E40020646973706C61792E0D0A4E6F74653AC1
:1020F40020646973706C617920666C6173686573C0
:1021040020746F20696E646963617465206E756DF7
:1021140062657220686173206265656E20656E7405
:10212400657265642E0D0A000D0A416761696E0DC2
:102134000A002B7665204E756D20746F6F206C61DC
:102144007267650D0A002D7665204E756D20746FDB
:102154006F206C617267650D0A002B7665204E75E1
:102164006D20746F6F20736D616C6C0D0A002D7699
:1021740065204E756D20746F6F20736D616C6C0DEE
:0E2184000A006E616E00696E66006F7666007E
:00000001FF
