:100000000C9435000C945D000C945D000C94B702C8
:100010000C94F7010C945D000C945D000C945D0051
:100020000C945D000C945D000C945D000C945D00DC
:100030000C945D000C945D000C945D000C945D00CC
:100040000C945D000C945D000C94C5010C949F0110
:100050000C945D000C945D000C945D000C945D00AC
:100060000C945D000C945D00520311241FBECFEF71
:10007000D8E0DEBFCDBF11E0A0E0B1E0E4ECF9E0F4
:1000800002C005900D92AC35B107D9F722E0ACE57E
:10009000B1E001C01D92A130B207E1F710E0C5E365
:1000A000D0E004C02197FE010E94DA04C433D107D6
:1000B000C9F70E947F030C94E0040C940000AF92F7
:1000C000BF92CF92DF92EF92FF920F931F93CF9345
:1000D000DF936C017B018B01040F151FEB015E01A7
:1000E000AE18BF08C017D10759F06991D601ED913C
:1000F000FC910190F081E02DC6010995892B79F7DB
:10010000C501DF91CF911F910F91FF90EF90DF908C
:10011000CF90BF90AF900895FC01538D448D252F53
:1001200030E0842F90E0821B930B541710F0CF9691
:10013000089501970895FC01918D828D981761F0C3
:10014000A28DAE0FBF2FB11D5D968C91928D9F5FDA
:100150009F73928F90E008958FEF9FEF0895FC01B9
:10016000918D828D981731F0828DE80FF11D858D6C
:1001700090E008958FEF9FEF0895FC01918D228DFF
:10018000892F90E0805C9F4F821B91098F73992784
:100190000895FC01A48DA80FB92FB11DA35ABF4F1C
:1001A0002C91848D90E001968F739927848FA68976
:1001B000B7892C93A089B1898C91837080648C93CA
:1001C000938D848D981306C00288F389E02D808179
:1001D0008F7D80830895EF92FF920F931F93CF93AB
:1001E000DF93EC0181E0888F9B8D8C8D98131AC072
:1001F000E889F989808185FF15C09FB7F894EE8959
:10020000FF896083E889F9898081837080648083B5
:100210009FBF81E090E0DF91CF911F910F91FF9000
:10022000EF900895F62E0B8D10E00F5F1F4F0F73A8
:100230001127E02E8C8D8E110CC00FB607FCFACF63
:10024000E889F989808185FFF5CFCE010E94C90038
:10025000F1CFEB8DEC0FFD2FF11DE35AFF4FF08234
:100260009FB7F8940B8FEA89FB8980818062CFCF9A
:10027000CF93DF93EC01888D8823B9F0AA89BB89DD
:10028000E889F9898C9185FD03C0808186FD0DC0C8
:100290000FB607FCF7CF8C9185FFF2CF808185FFE9
:1002A000EDCFCE010E94C900E9CFDF91CF91089533
:1002B000282F30E0C9019595879595958795A901D7
:1002C00063E0559547956A95E1F784278227A90150
:1002D00074E0559547957A95E1F7842787958827A7
:1002E000879535952795822B0895AC0148535F4F2C
:1002F000FC012191CF01222349F03091C00035FF4C
:10030000FCCF2093C6008417950791F7089580913C
:10031000C00087FD02C0A895FACF8091C60008955D
:1003200010925E0181E080935F0180916B0080619B
:1003300080936B0080915E018823E1F308951F9202
:100340000F920FB60F9211242F933F934F935F9309
:100350006F937F938F939F93AF93BF93EF93FF938D
:1003600084E691E00E94C900FF91EF91BF91AF91A7
:100370009F918F917F916F915F914F913F912F91BD
:100380000F900FBE0F901F9018951F920F920FB6EF
:100390000F9211242F938F939F93EF93FF93E091EC
:1003A0007401F09175018081E0917A01F0917B01F7
:1003B00082FD1BC0908180917D018F5F8F732091A2
:1003C0007E01821741F0E0917D01F0E0EC59FE4F93
:1003D000958F80937D01FF91EF919F918F912F9148
:1003E0000F900FBE0F901F9018958081F4CF1F9231
:1003F0000F920FB60F9211242F933F934F935F9359
:100400006F937F938F939F93AF93BF93EF93FF93DC
:1004100035999CC02FE788E391E0215080409040BF
:10042000E1F700C00000A895359990C02FE782E35E
:1004300092E0215080409040E1F700C00000A89574
:100440002FE782E392E0215080409040E1F700C026
:100450000000A8952FE782E392E021508040904071
:10046000E1F700C00000A8952FE782E392E0215059
:1004700080409040E1F700C00000A8952FE782E39C
:1004800092E0215080409040E1F700C00000A89524
:10049000359B1FC08CEF93E00E94C404682F6B7FD4
:1004A0008CEF93E00E94CC048CEF93E00E94C40494
:1004B000682F6F7B8CEF93E00E94CC0488E199E079
:1004C0000FB6F894A895809360000FBE90936000DB
:1004D000FFCF299A289A2FE782E392E021508040AB
:1004E0009040E1F700C00000A8952FE782E392E07A
:1004F000215080409040E1F700C00000A8952FE710
:1005000082E392E0215080409040E1F700C000007B
:10051000A8952FE782E392E0215080409040E1F7D8
:1005200000C00000A8952FE782E392E021508040B0
:100530009040E1F700C00000A8953599B5CF7894B8
:1005400087E4809360010E949001AECFFF91EF910C
:10055000BF91AF919F918F917F916F915F914F91DB
:100560003F912F910F900FBE0F901F9018951F92E3
:100570000F920FB60F9211242F933F934F938F93A7
:100580009F931C9983C080916B008F7E80936B003A
:1005900080915F01813009F047C016BC17BC82E032
:1005A00085BD809162019091630197FD01969595BB
:1005B000879587BDA99BFECF8FEF85BB2C9A87B50A
:1005C00090916201890F87BDA99BFECF8FEF85BBFC
:1005D000249A87B590916201890F87BDA99BFECFB0
:1005E0008FEF85BB27E030E04FEF80916001082E50
:1005F000000C990B022E02C0959587950A94E2F79C
:1006000080FF4EC02C9A87B590916201890F87BDFB
:10061000A99BFECF45BB2150310938F724982C986F
:1006200081E080935E0115BC80915F01823071F59D
:1006300016BC17BC85BD809162019091630197FD46
:1006400001969595879587BDA99BFECF8FEF85BBBA
:1006500088E090E04FEF27B530916201230F27BD6E
:10066000A99BFECF45BB20915D01220F330B209348
:100670005D011C9B05C020915D01216020935D01FF
:10068000019749F715BC81E080935C019F918F91A0
:100690004F913F912F910F900FBE0F901F90189583
:1006A0002C98B1CFE4E6F1E01382128288EE93E059
:1006B000A0E0B0E084839583A683B78384E091E0D3
:1006C0009183808385EC90E09587848784EC90E02B
:1006D0009787868780EC90E0918B808B81EC90E00F
:1006E000938B828B82EC90E0958B848B86EC90E0F0
:1006F000978B868B118E128E138E148E0895A8956B
:1007000084B7877F84BF8091600088618093600098
:100710001092600080917C00806480937C0085B79B
:100720008F7E85BF14B817B81AB88FEF85B988B90E
:100730008BB98FEF93E00E94C404C82F80EF8C0F19
:10074000803E40F48EEF93E00E94C404C81302C0C0
:10075000C093660086EF93E00E94C404C82F8F3CCC
:100760008CF082337CF487EF93E00E94C404C813BA
:1007700009C08C2FCC0F990B88539F4F9093630126
:10078000809362018091680082608093680080910C
:100790006C00806280936C0080916800816080931F
:1007A000680080916B00806180936B002C9884B10D
:1007B000836084B92998289878941092C100109287
:1007C000C50080E18093C400D2E0D093C00088E1EE
:1007D0008093C100C6E0C093C2008FE39CE90197FB
:1007E000F1F700C000008CEF93E00E94C404873F43
:1007F00009F45BC050F48D3B09F454C08D3D09F4FD
:1008000056C08D3A51F484E04AC08E3F09F446C088
:1008100008F052C08D3F09F44CC06FEF8CEF93E0AD
:100820000E94CC04A895809160008861809360004C
:100830008BE48093600080916101873009F03EC0B5
:1008400082E191E00E94750182E391E00E947501CE
:100850000E948701C82FF12C8E3729F40E9487014E
:10086000C82FFF24F394CC3791F1CE3581F1C632F5
:1008700071F18CEF93E00E94C404682F6F7B8CEFC2
:1008800093E00E94CC0488E199E00FB6F894A89513
:10089000809360000FBE90936000FFCF81E0809353
:1008A0006101BBCFD0936101B8CF83E0F8CF85E081
:1008B000F6CFC0936101B1CF87E0F1CF863009F068
:1008C000C3CF87E291E00E947501A895FECF86E430
:1008D000809360010E9490019FE728E381E091509E
:1008E00020408040E1F700C0000017E888E4E82ECF
:1008F000812F0E945801082F0E945801182FD02FD5
:10090000D827CE3549F0D02FD82BCC3729F0D0E0DE
:10091000C63211F4D02FD82391E0F91201C0D0953E
:10092000809168008D7F80936800E09260010E9452
:100930009001009360010E949001A89510936001BE
:100940000E949001D09360010E9490018091680004
:100950008260809368000E948701883749F68CEF97
:1009600093E00E94C404682F6F7B8CEF93E00E9499
:10097000CC0488E199E00FB6F894A89580936000C4
:100980000FBE90936000FFCFF999FECF92BD81BD5D
:10099000F89A992780B50895262FF999FECF1FBAA6
:1009A00092BD81BD20BD0FB6F894FA9AF99A0FBE98
:1009B00001960895EE0FFF1F0590F491E02D099424
:0409C000F894FFCFD9
:1009C40000000000EB005F008C003801BD009B00BC
:1009D400AF000D0A50726F6772616D207265737497
:1009E40061727465642E000D0A5744546F75740D5A
:1009F4000A000D0A53656C656374204F503A202039
:100A04007C2020205E202020262020207E7C202088
:0C0A14007E5E20206F7220207E260000F5
:00000001FF
