:100000000C9435000C945D000C945D000C945D0024
:100010000C945D000C9438020C9407020C945D0063
:100020000C945D000C945D000C945D000C945D00DC
:100030000C945D000C945D000C945D000C945D00CC
:100040000C9465010C945D000C94D5010C94AF01E7
:100050000C945D000C945D000C945D000C945D00AC
:100060000C945D000C945D00800211241FBECFEF44
:10007000D8E0DEBFCDBF22E0A2E5B2E001C01D9214
:10008000AB3FB207E1F712E0A0E0B1E0EEEDF7E040
:1000900002C005900D92A235B107D9F710E0C5E373
:1000A000D0E004C02197FE010E94E703C433D107CA
:1000B000C9F70E94AD020C94ED030C940000AF92BE
:1000C000BF92CF92DF92EF92FF920F931F93CF9345
:1000D000DF936C017B018B01040F151FEB015E01A7
:1000E000AE18BF08C017D10759F06991D601ED913C
:1000F000FC910190F081E02DC6010995892B79F7DB
:10010000C501DF91CF911F910F91FF90EF90DF908C
:10011000CF90BF90AF900895FC01538D448D252F53
:1001200030E0842F90E0821B930B541710F0CF9691
:10013000089501970895FC01918D828D981761F0C3
:10014000A28DAE0FBF2FB11D5D968C91928D9F5FDA
:100150009F73928F90E008958FEF9FEF0895FC01B9
:10016000918D828D981731F0828DE80FF11D858D6C
:1001700090E008958FEF9FEF0895FC01918D228DFF
:10018000892F90E0805C9F4F821B91098F73992784
:100190000895FC01A48DA80FB92FB11DA35ABF4F1C
:1001A0002C91848D90E001968F739927848FA68976
:1001B000B7892C93A089B1898C91837080648C93CA
:1001C000938D848D981306C00288F389E02D808179
:1001D0008F7D80830895EF92FF920F931F93CF93AB
:1001E000DF93EC0181E0888F9B8D8C8D98131AC072
:1001F000E889F989808185FF15C09FB7F894EE8959
:10020000FF896083E889F9898081837080648083B5
:100210009FBF81E090E0DF91CF911F910F91FF9000
:10022000EF900895F62E0B8D10E00F5F1F4F0F73A8
:100230001127E02E8C8D8E110CC00FB607FCFACF63
:10024000E889F989808185FFF5CFCE010E94C90038
:10025000F1CFEB8DEC0FFD2FF11DE35AFF4FF08234
:100260009FB7F8940B8FEA89FB8980818062CFCF9A
:10027000CF93DF93EC01888D8823B9F0AA89BB89DD
:10028000E889F9898C9185FD03C0808186FD0DC0C8
:100290000FB607FCF7CF8C9185FFF2CF808185FFE9
:1002A000EDCFCE010E94C900E9CFDF91CF91089533
:1002B000FC0101900020E9F73197AF01481B590B71
:1002C000BC018EE592E00C945F001F920F920FB676
:1002D0000F9211242F933F938F939F93AF93BF93CC
:1002E00080915A0290915B02A0915C02B0915D02F4
:1002F0003091590223E0230F2D3758F50196A11DA7
:10030000B11D2093590280935A0290935B02A093EF
:100310005C02B0935D028091550290915602A091CB
:100320005702B09158020196A11DB11D809355024C
:1003300090935602A0935702B0935802BF91AF9189
:100340009F918F913F912F910F900FBE0F901F9013
:10035000189526E8230F0296A11DB11DD2CF1F923A
:100360000F920FB60F9211242F933F934F935F93E9
:100370006F937F938F939F93AF93BF93EF93FF936D
:100380008EE592E00E94C900FF91EF91BF91AF917D
:100390009F918F917F916F915F914F913F912F919D
:1003A0000F900FBE0F901F9018951F920F920FB6CF
:1003B0000F9211242F938F939F93EF93FF93E091CC
:1003C0006E02F0916F028081E0917402F0917502EB
:1003D00082FD1BC09081809177028F5F8F73209187
:1003E0007802821741F0E0917702F0E0E25AFD4F87
:1003F000958F80937702FF91EF919F918F912F912D
:100400000F900FBE0F901F9018958081F4CF1F9210
:100410000F920FB60F9211242F933F934F935F9338
:100420006F937F938F939F93AF93BF93EF93FF93BC
:100430006FED8DEE93E00E94D90388E198E00FB64E
:10044000F894A895809360000FBE90936000FF9190
:10045000EF91BF91AF919F918F917F916F915F913C
:100460004F913F912F910F900FBE0F901F901895B5
:100470001F920F920FB60F9211242F933F934F9319
:100480005F936F937F938F939F93AF93BF93EF93FC
:10049000FF934A9924C0789480916D008B7F80935C
:1004A0006D004F9983B14F9907C01A9B05C06FEE3D
:1004B0008DEE93E00E94D9034F9B02C01A9BFFCFA1
:1004C0004A9902C0A895FCCF88E199E00FB6F8944C
:1004D000A895809360000FBE90936000FFCFFF91BE
:1004E000EF91BF91AF919F918F917F916F915F91AC
:1004F0004F913F912F910F900FBE0F901F90189525
:10050000EEE5F2E01382128288EE93E0A0E0B0E024
:1005100084839583A683B78384E091E0918380836D
:1005200085EC90E09587848784EC90E097878687B8
:1005300080EC90E0918B808B81EC90E0938B828BB0
:1005400082EC90E0958B848B86EC90E0978B868B89
:10055000118E128E138E148E089580E880936100A0
:10056000C1E0C09361008CEF93E00E94D1038093BF
:10057000540280FF07C0C093540260E085EF93E00F
:100580000E94D9038091540283FF03C081E08093CD
:100590005302A89584B7877F84BF809160008861EB
:1005A000809360001092600092E09093BA00809176
:1005B0007C00806480937C0085B78F7E85BF8AB184
:1005C0008B778AB98BB184688BB926982E9A85B7B8
:1005D0008F7E85BF84B18B7784B987B1887F87B9D7
:1005E0008AB187788AB985B1846885B988B187600E
:1005F00088B98BB188678BB984B1836084B9299835
:100600002898E0916E02F0916F029083E0916A0267
:10061000F0916B021082E0916C02F0916D0280E12A
:10062000808310927602E0917202F091730286E06C
:100630008083E0917002F0917102808180618083FB
:10064000E0917002F0917102808188608083E09176
:100650007002F0917102808180688083E091700265
:10066000F091710280818F7D80837894C0915402D3
:10067000C13011F4C093520280915302813049F489
:100680008DEE93E00E94D1038F3F19F482E08093B6
:100690005202C23019F483E0809352028DEE93E04F
:1006A0000E94D1038F3E19F484E0809352028DEEB4
:1006B00093E00E94D1038F3D19F485E080935202AC
:1006C000C11103C086E0809352026FEF8DEE93E07C
:1006D0000E94D90360E08CEF93E00E94D903A895B3
:1006E000809160008861809360008BE4809360005B
:1006F000809152028330E1F184F48130B1F0823094
:10070000A1F18091680085608093680080916D0000
:10071000846080936D00A895FECF853079F15CF1FF
:10072000863079F78BEF91E039C046E050E062E126
:1007300071E08EE592E00E945F00D0E0C0E002E34D
:1007400010E08EE592E00E94BD00892BD1F4219645
:10075000A895C1348FE1D80724F001501109D0E0E9
:10076000C0E00115110569F7E0CF8DE391E016C0F7
:1007700081E691E013C082EA91E010C08CEC91E038
:100780000DC08EE592E00E949B008F7D823569F658
:1007900089E191E00E9458018CE191E00E945801AA
:1007A000B0CFF999FECF92BD81BDF89A992780B557
:1007B0000895262FF999FECF1FBA92BD81BD20BDA5
:1007C0000FB6F894FA9AF99A0FBE01960895EE0FB3
:0E07D000FF1F0590F491E02D0994F894FFCFDF
:1007DE0000000000EB005F008C003801BD009B00A4
:1007EE00AF00523F20202020000D0A000D0A50724B
:1007FE006F6772616D2072756E6E696E6720666FBF
:10080E006C6C6F77696E6720504F5209000D0A505D
:10081E00726F6772616D2074726967676572656465
:10082E0020627920612053575F72657365742E09BB
:10083E00000D0A50726F6772616D2074726967677E
:10084E00657265642062792065787465726E616C7C
:10085E00207265736574206F722072756E20287415
:10086E006865202D722D206B657970726573732902
:10087E002E000D0A50726F6772616D207472696777
:10088E006765726564206279206120666C616767B6
:10089E006564205744546F75742E09000D0A50720A
:1008AE006F6772616D207472696767657265642027
:1008BE0062792061205744546F757420776974688B
:1008CE0020696E74657272757074000D0A4A756DCA
:1008DE00707320746F203078303030302072617435
:1008EE00686572207468616E203078373030300D54
:1008FE000A2857445420636F6E6669677572656483
:10090E00207769746820696E7465727275707420D0
:10091E0062757420495352206D697373696E672E28
:02092E0029009E
:00000001FF
