:100000000C9435000C945D000C945D000C945D0024
:100010000C945D000C945D000C945D000C945D00EC
:100020000C945D000C945D000C945D000C945D00DC
:100030000C945D000C945D000C945D000C945D00CC
:100040000C949F010C945D000C940F020C94E90138
:100050000C945D000C945D000C945D000C945D00AC
:100060000C945D000C945D00980211241FBECFEF2C
:10007000D8E0DEBFCDBF22E0ACEEB1E001C01D9202
:10008000A439B207E1F711E0A0E0B1E0E6EDF3E159
:1000900002C005900D92AC3EB107D9F710E0C5E360
:1000A000D0E004C02197FE010E94E309C433D107C8
:1000B000C9F70E94C5020C94E9090C940000AF92A4
:1000C000BF92CF92DF92EF92FF920F931F93CF9345
:1000D000DF936C017B018B01040F151FEB015E01A7
:1000E000AE18BF08C017D10759F06991D601ED913C
:1000F000FC910190F081E02DC6010995892B79F7DB
:10010000C501DF91CF911F910F91FF90EF90DF908C
:10011000CF90BF90AF900895FC01538D448D252F53
:1001200030E0842F90E0821B930B541710F0CF9691
:10013000089501970895FC01918D828D981761F0C3
:10014000A28DAE0FBF2FB11D5D968C91928D9F5FDA
:100150009F73928F90E008958FEF9FEF0895FC01B9
:10016000918D828D981731F0828DE80FF11D858D6C
:1001700090E008958FEF9FEF0895FC01918D228DFF
:10018000892F90E0805C9F4F821B91098F73992784
:100190000895FC01A48DA80FB92FB11DA35ABF4F1C
:1001A0002C91848D90E001968F739927848FA68976
:1001B000B7892C93A089B1898C91837080648C93CA
:1001C000938D848D981306C00288F389E02D808179
:1001D0008F7D80830895EF92FF920F931F93CF93AB
:1001E000DF93EC0181E0888F9B8D8C8D98131AC072
:1001F000E889F989808185FF15C09FB7F894EE8959
:10020000FF896083E889F9898081837080648083B5
:100210009FBF81E090E0DF91CF911F910F91FF9000
:10022000EF900895F62E0B8D10E00F5F1F4F0F73A8
:100230001127E02E8C8D8E110CC00FB607FCFACF63
:10024000E889F989808185FFF5CFCE010E94C90038
:10025000F1CFEB8DEC0FFD2FF11DE35AFF4FF08234
:100260009FB7F8940B8FEA89FB8980818062CFCF9A
:10027000682F87EF91E00C94EB00CF93DF93EC01B4
:10028000888D8823B9F0AA89BB89E889F9898C917E
:1002900085FD03C0808186FD0DC00FB607FCF7CF3A
:1002A0008C9185FFF2CF808185FFEDCFCE010E943A
:1002B000C900E9CFDF91CF9108950F931F93CF939A
:1002C000DF938C01D0E0C0E087EF91E00E94BD0099
:1002D000892B79F42196A895C1348FE1D807A4F32E
:1002E0000150110979F780E0DF91CF911F910F91B3
:1002F000089581E0F9CFFC0101900020E9F73197E2
:10030000AF01481B590BBC0187EF91E00C945F00D3
:10031000009711F00C947B0190E080E00895CF935A
:10032000DF93EA012AE00E949E06CE010E94880126
:1003300060E287EF91E0DF91CF910C94EB001F9288
:100340000F920FB60F9211242F933F938F939F9389
:10035000AF93BF938091F3019091F401A091F501C7
:10036000B091F6013091F20123E0230F2D3758F5BB
:100370000196A11DB11D2093F2018093F30190938A
:10038000F401A093F501B093F6018091EE019091F4
:10039000EF01A091F001B091F1010196A11DB11DF5
:1003A0008093EE019093EF01A093F001B093F101DF
:1003B000BF91AF919F918F913F912F910F900FBE61
:1003C0000F901F90189526E8230F0296A11DB11DCE
:1003D000D2CF1F920F920FB60F9211242F933F93FB
:1003E0004F935F936F937F938F939F93AF93BF933D
:1003F000EF93FF9387EF91E00E94C900FF91EF9187
:10040000BF91AF919F918F917F916F915F914F912C
:100410003F912F910F900FBE0F901F9018951F9234
:100420000F920FB60F9211242F938F939F93EF93F8
:10043000FF93E0910702F09108028081E0910D02A4
:10044000F0910E0282FD1BC09081809110028F5F9F
:100450008F7320911102821741F0E0911002F0E0B9
:10046000E950FE4F958F80931002FF91EF919F917D
:100470008F912F910F900FBE0F901F901895808134
:10048000F4CF8093BB0084EC8093BC008091BC00CF
:1004900087FFFCCF0895BF92CF92DF92EF92FF9239
:1004A0000F931F93CF93DF93C82F062F142FD52FB1
:1004B00084E48093BC008091BC0087FFFCCF8091D6
:1004C000BB008C2F0E944102802F0E944102E12E2E
:1004D000FD2E10E000E00C2E000CDD0B6E0181E023
:1004E000C81AD10884E8B82E0C171D07A4F4F70128
:1004F00081917F01C016D10659F48093BB00B09260
:10050000BC008091BC0087FFFCCF0F5F1F4FECCF7A
:100510000E944102FACF80E88093BC00DF91CF9126
:100520001F910F91FF90EF90DF90CF90BF900895B3
:10053000E7EFF1E01382128288EE93E0A0E0B0E0F2
:1005400084839583A683B78384E091E0918380833D
:1005500085EC90E09587848784EC90E09787868788
:1005600080EC90E0918B808B81EC90E0938B828B80
:1005700082EC90E0958B848B86EC90E0978B868B59
:10058000118E128E138E148E0895CF93DF93CDB7F4
:10059000DEB7EA970FB6F894DEBF0FBECDBF80E896
:1005A0008093610011E0109361008CEF93E00E9452
:1005B00032088093ED0180FF07C01093ED0160E0E9
:1005C00085EF93E00E943A088091ED0183FF03C01C
:1005D00081E08093EC01A89584B7877F84BF8091E8
:1005E00060008861809360001092600092E09093B8
:1005F000BA0080917C00806480937C0085B78F7EF8
:1006000085BF8AB18B778AB98BB184688BB9229800
:100610002A9A85B78F7E85BF87B1887F87B98AB1CF
:10062000877C8AB988B1876088B98BB188638BB9B8
:1006300084B1836084B929982898E0910702F091E9
:1006400008029083E0910302F09104021082E0918D
:100650000502F091060280E1808310920F02E09182
:100660000B02F0910C0286E08083E0910902F09188
:100670000A02808180618083E0910902F0910A0280
:10068000808188608083E0910902F0910A02808174
:1006900080688083E0910902F0910A0280818F7D59
:1006A0008083789486EF93E00E9432088F3F29F48C
:1006B00060E086EF93E00E943A0886EF93E00E94A4
:1006C0003208803491F40AE010E08EEC91E00E9450
:1006D000880101501109C9F782E191E00E94880167
:1006E00061E486EF93E00E943A0886EF93E00E946F
:1006F000320886FF18C0682F606886EF93E00E947A
:100700003A088EEC91E00E9488018EEC91E00E9404
:1007100088018EEC91E00E9488018EEC91E00E94AD
:1007200088010C9400361A993DC04A993BC01AA220
:1007300080E69AEE1A9902C00197E1F714E0E12EE3
:10074000F12C1CEC03E382EBD82E95E0C92E1A990C
:1007500029C08AA1082E000C990B0196B7010E94AE
:100760007A098AA3882399F3AE014E5D5F4F61E554
:1007700081E00E944B0219831A830B830C83AE0124
:100780004F5F5F4F61E084E00E944B0282E390E0A4
:10079000D6BCC5BCA89BFECFA89A15BCA89501974E
:1007A000B9F7D5CF4A9987C04F9985C083E491E0C6
:1007B0000E9488018AEF90E00E945D018823B1F3D6
:1007C00087EF91E00E949B008F7D823579F78EEC58
:1007D00091E00E94880184E48093BC008091BC0079
:1007E00087FFFCCF8091BB0080E00E94410282E540
:1007F0008093BB0084E88093BC008091BC0087FF9D
:10080000FCCF80E88093BC008AE491E00E948801DC
:1008100084E48093BC008091BC0087FFFCCF809172
:10082000BB0084EC8093BC008091BC0087FFFCCFB0
:10083000F090BB0084EC8093BC008091BC0087FFEB
:10084000FCCF8091BB0090E0982F882724E820936C
:10085000BC002091BC0027FFFCCF0091BB00080F1B
:10086000192F111D80E88093BC008FE691E00E9453
:1008700088014AE0BE016F5F7F4F8F2D90E00E949C
:100880009306CE0101960E94880186E891E00E94BD
:1008900088014AE0BE016F5F7F4FC8010E94930646
:1008A000CE0101960E9488010E3E124024F48CE98C
:1008B00091E00E9488018091EC01813021F083EA6F
:1008C00091E00E9488018EEC91E00E9488018E01E7
:1008D0000E5D1F4F6801412C512C3201312C7601E5
:1008E000E01AF10A88E090E00E945D018823D1F3CC
:1008F00087EF91E00E949B00B82E8DE0B81619F0AA
:10090000EAE0BE1254C081E090E00E945D018823BD
:1009100021F087EF91E00E949B0041145104610493
:10092000710421F4412C512C32014394F801EE0D55
:10093000FF1D1082C8010E946C066B017C0189E0DA
:1009400090E00E943801AE01425D5F4FC701B601E1
:100950000E948F0181ED91E00E948801AE01425D0D
:100960005F4FC301B2010E948F01C701B601A3010D
:1009700092010E94B00949015A01D12CC12CB0FC4E
:100980003FC0660F771F881F991FA30192010E9425
:10099000B009880C991CAA1CBB1C232B242B252BCB
:1009A00011F0689480F8F1E0CF1AD108E8CFFEE2A8
:1009B000BF1208C08EE290E00E943801412C512CF9
:1009C0003201439480ED8B0D8A3008F08BCF8B2D54
:1009D0000B2C000C990B0E943801F601B1926F01AB
:1009E000411451046104710409F479CFAAE0B0E024
:1009F000A30192010E9448082B013C0133946FCF60
:100A00002FEF821A920AA20AB20AB594A794979479
:100A1000879489E090E00E943801AE01425D5F4F0B
:100A2000C501B4010E948F0185ED91E00E9488010B
:100A3000B6016F5F7F4F072E000C880B990BAE013C
:100A4000425D5F4F0E948F0187E9C80ED11C0D2CBB
:100A5000000CEE08FF0837E1CC0CDD1CEE1CFF1C7F
:100A60003A95D1F7E894A7F8C828D928EA28FB28AE
:100A70002601370189E090E00E94380110E000E093
:100A8000812C912CA12C40E8B42ED701C6018821DD
:100A90009921AA21BB21892B8A2B8B2B09F450C0C9
:100AA00081E390E00E943801B694A79497948794CC
:100AB0000F5F1F4F00321105F9F489E090E00E94AA
:100AC000380189E090E00E943801A7019601C70132
:100AD000B6010E9475098823B1F18FED91E00E9463
:100AE0007B0188E199E00FB6F894A89580936000A7
:100AF0000FBE90936000FFCF0D30110559F07CF4CC
:100B00000530110539F00930110521F001301105CA
:100B100009F0BBCF80E290E00E943801B6CF0531EA
:100B20001105C1F32CF40131110509F0AECFF2CF5C
:100B30000931110579F30D31110509F0A6CFEACF7E
:100B400080E390E0AFCF46015701E894B7F82FEF6C
:100B50003FEF4FE75FE7C501B4010E9475098111BE
:100B60000DC02FEF3FEF4FE75FE7C501B4010E94D3
:100B70000E0718161CF483EE91E0B1CF2FEF3FEF74
:100B80004FE75FE4C701B6010E94700918161CF414
:100B900087EE91E0A4CF2FEF3FEF4FE75FECC70167
:100BA000B6010E940E0787FDF3CF20E030E0A901D7
:100BB000C701B6010E940E0787FF0BC06DE287EFE9
:100BC00091E00E94EB002601370177FA709477F8E4
:100BD000709410E060E070E080E09FE3311641F037
:100BE00020E030E040E251E40E94CF081F5FF6CFE2
:100BF000A30192010E9463086B017C010E944109DC
:100C00004B015C010E9413079B01AC01C701B601B7
:100C10000E9462082B013C0119A27E01E1E2EE0E66
:100C2000F11CEAAE0F2DC501B4012AE030E040E02E
:100C300050E00E948E0949015A01605DF7016293FC
:100C40007F0181149104A104B10469F7CF010E94CE
:100C50008801112309F445CF6EE287EF91E00E94ED
:100C6000EB008AE0882E912CA12CB12C115008F4B5
:100C700038CF20E030E040E251E4C301B2010E94ED
:100C800074072B013C010E9441099B0150E040E0A8
:100C900019A2EAACF02E1B016A01CA01B901A50133
:100CA00094010E948E09605DF70162937F01211516
:100CB00031054105510589F7CF010E948801B10135
:100CC000C6010E9413079B01AC01C301B2010E943F
:100CD00062082B013C01CACF1F93FC01992788278A
:100CE000BC01E89411911032E9F3193010F01E3074
:100CF000C8F31B3251F01D3249F4689406C00E94BB
:100D0000AD06610F711D811D911D119110531A3097
:100D1000B0F33EF490958095709561957F4F8F4F1D
:100D20009F4F1F910895BB274A3031F4992322F435
:100D3000BDE2909581959F4F0C94E506BB272A3024
:100D400051F4992342F4BDE2909580957095619598
:100D50007F4F8F4F9F4F0C94C306592F482F372F2B
:100D6000262F660F771F881F991F660F771F881F12
:100D7000991F620F731F841F951F660F771F881FAF
:100D8000991F0895BB27FA01A62F621771058105E7
:100D90009105330B30FB66F0AA27660F771F881F7B
:100DA000991FAA1FA21710F0A21B63953850A9F72C
:100DB000A05DAA3308F0A95DA19336F7B111B193F4
:100DC0001082CA010C94FE06BB27FB015527AA27F7
:100DD000880F991FAA1FA41710F0A41B83955051C8
:100DE000B9F7A05DAA3308F0A95DA193009779F740
:100DF000B111B1931192CB010C94FE06DC01FC0100
:100E0000672F71917723E1F7329704C07C916D933E
:100E100070836291AE17BF07C8F308950E94500710
:100E200008F481E00895E89409C097FB3EF490959A
:100E30008095709561957F4F8F4F9F4F9923A9F0B3
:100E4000F92F96E9BB279395F69587957795679542
:100E5000B795F111F8CFFAF4BB0F11F460FF1BC086
:100E60006F5F7F4F8F4F9F4F16C0882311F096E919
:100E700011C0772321F09EE8872F762F05C06623C7
:100E800071F096E8862F70E060E02AF09A95660F80
:100E9000771F881FDAF7880F9695879597F9089539
:100EA000990F0008550FAA0BE0E8FEEF161617067B
:100EB000E807F907C0F012161306E407F50798F0E3
:100EC000621B730B840B950B39F40A2661F0232BFC
:100ED000242B252B21F408950A2609F4A140A69578
:100EE0008FEF811D811D08950E9487070C94F807DC
:100EF0000E94EA0738F00E94F10720F0952311F0D4
:100F00000C94E1070C94E70711240C942C080E9420
:100F1000090870F3959FC1F3950F50E0551F629F2C
:100F2000F001729FBB27F00DB11D639FAA27F00D42
:100F3000B11DAA1F649F6627B00DA11D661F829F69
:100F40002227B00DA11D621F739FB00DA11D621F4E
:100F5000839FA00D611D221F749F3327A00D611D6B
:100F6000231F849F600D211D822F762F6A2F11244D
:100F70009F5750409AF0F1F088234AF0EE0FFF1F80
:100F8000BB1F661F771F881F91505040A9F79E3FD7
:100F9000510580F00C94E1070C942C085F3FE4F3BA
:100FA000983ED4F3869577956795B795F795E7952D
:100FB0009F5FC1F7FE2B880F911D9695879597F936
:100FC000089597F99F6780E870E060E008959FEFCB
:100FD00080EC089500240A941616170618060906D0
:100FE000089500240A94121613061406050608959F
:100FF000092E0394000C11F4882352F0BB0F40F427
:10100000BF2B11F460FF04C06F5F7F4F8F4F9F4F66
:10101000089557FD9058440F551F59F05F3F71F0E8
:101020004795880F97FB991F61F09F3F79F087954F
:101030000895121613061406551FF2CF4695F1DFD8
:1010400008C0161617061806991FF1CF8695710568
:10105000610508940895E894BB2766277727CB019C
:1010600097F90895F999FECF92BD81BDF89A992715
:1010700080B50895262FF999FECF1FBA92BD81BD84
:1010800020BD0FB6F894FA9AF99A0FBE019608950A
:101090000E945308A59F900DB49F900DA49F800DB2
:1010A000911D11240895A29FB001B39FC001A39F79
:1010B000700D811D1124911DB29F700D811D112491
:1010C000911D08955058BB27AA270E947A080C94B6
:1010D000F8070E94EA0738F00E94F10720F039F47F
:1010E0009F3F19F426F40C94E7070EF4E095E7FB14
:1010F0000C94E107E92F0E94090858F3BA17620718
:1011000073078407950720F079F4A6F50C942B0853
:101110000EF4E0950B2EBA2FA02D0B01B901900112
:101120000C01CA01A0011124FF27591B99F0593F56
:1011300050F4503E68F11A16F040A22F232F342F9E
:101140004427585FF3CF469537952795A795F040EC
:101150005395C9F77EF41F16BA0B620B730B840B01
:10116000BAF09150A1F0FF0FBB1F661F771F881FB9
:10117000C2F70EC0BA0F621F731F841F48F4879511
:1011800077956795B795F7959E3F08F0B0CF939503
:10119000880F08F09927EE0F9795879508950E947C
:1011A000E3080C94F8070E94F10758F00E94EA0740
:1011B00040F029F45F3F29F00C94E10751110C94A1
:1011C0002C080C94E7070E94090868F39923B1F3EF
:1011D000552391F3951B550BBB27AA27621773075D
:1011E000840738F09F5F5F4F220F331F441FAA1FF1
:1011F000A9F335D00E2E3AF0E0E832D091505040AD
:10120000E695001CCAF72BD0FE2F29D0660F771F5A
:10121000881FBB1F261737074807AB07B0E809F040
:10122000BB0B802DBF01FF2793585F4F3AF09E3FC5
:10123000510578F00C94E1070C942C085F3FE4F31F
:10124000983ED4F3869577956795B795F7959F5F08
:10125000C9F7880F911D9695879597F90895E1E054
:10126000660F771F881FBB1F621773078407BA07B3
:1012700020F0621B730B840BBA0BEE1F88F7E0950E
:1012800008950E94110888F09F5798F0B92F992768
:10129000B751B0F0E1F0660F771F881F991F1AF061
:1012A000BA95C9F714C0B13091F00E942B08B1E093
:1012B00008950C942B08672F782F8827B85F39F092
:1012C000B93FCCF3869577956795B395D9F73EF4FA
:1012D00090958095709561957F4F8F4F9F4F0895A2
:1012E0000E94500708F48FEF08950E945007880B62
:1012F000990B089597FB072E16F4009407D077FDFD
:1013000009D00E94CF0907FC05D03EF49095819545
:101310009F4F0895709561957F4F0895A1E21A2E11
:10132000AA1BBB1BFD010DC0AA1FBB1FEE1FFF1F89
:10133000A217B307E407F50720F0A21BB30BE40BD9
:10134000F50B661F771F881F991F1A9469F7609520
:101350007095809590959B01AC01BD01CF010895DA
:10136000052E97FB1EF400940E94C70957FD07D075
:101370000E948E0907FC03D04EF40C94C7095095C7
:101380004095309521953F4F4F4F5F4F0895909571
:101390008095709561957F4F8F4F9F4F0895AA1B41
:1013A000BB1B51E107C0AA1FBB1FA617B70710F050
:1013B000A61BB70B881F991F5A95A9F78095909582
:1013C000BC01CD010895EE0FFF1F0590F491E02DB3
:0613D0000994F894FFCF20
:1013D60000000000EB005F008C003D01BD009B009B
:1013E600AF0050726F6A65637420636F6D6D656ED2
:1013F600746172793A2050726573732027582720DA
:10140600746F20657363617065206F7220414F4B66
:101416000D0A00523F20202020000D0A5043425F53
:101426004120286D696E695F4F532920646576698E
:1014360063652063616C6962726174696E67000D31
:101446000A4F534343414C20757365722076616C95
:101456007565202020000D0A63616C6962726174F3
:10146600696F6E206572726F7220200020204F4BCC
:101476000D0A00456E746572207265616C206E758A
:101486006D6265722028692E652E20776974682042
:10149600646563696D616C20706F696E74290D0AED
:1014A60000202F2000207820322065787020006EE2
:0C14B600616E00696E66006F76660000D3
:00000001FF
