:100000000C9434000C9451000C9451000C94510049
:100010000C9451000C9451000C9451000C9451001C
:100020000C9451000C9451000C9451000C9451000C
:100030000C9451000C9451000C9451000C945100FC
:100040000C9451000C9451000C945F010C945100DD
:100050000C9451000C9451000C9451000C945100DC
:100060000C9451000C94510011241FBECFEFD8E026
:10007000DEBFCDBF11E0A0E0B1E0E6EAF7E002C0EC
:1000800005900D92A239B107D9F721E0A2E9B1E0BC
:1000900001C01D92A63AB207E1F70E946A010C94D2
:1000A000D1030C9400008093BB0084EC8093BC00CF
:1000B0008091BC0087FFFCCF0895BF92CF92DF9262
:1000C000EF92FF920F931F93CF93DF93C82F062FCA
:1000D000142FD52F84E48093BC008091BC0087FF4F
:1000E000FCCF8091BB008C2F0E945300802F0E9478
:1000F0005300E12EFD2E10E000E00C2E000CDD0B75
:100100006E0181E0C81AD10884E8B82E0C171D07CB
:10011000A4F4F70181917F01C016D10659F48093B0
:10012000BB00B092BC008091BC0087FFFCCF0F5F8A
:100130001F4FECCF0E945300FACF80E88093BC00A1
:10014000DF91CF911F910F91FF90EF90DF90CF90B3
:10015000BF900895CF93DF9300D0CDB7DEB781E68F
:1001600089831A82AE014F5F5F4F62E082E00E9496
:100170005D000F900F90DF91CF910895AC0148532F
:100180005F4FFC012191CF01222349F03091C00043
:1001900035FFFCCF2093C6008417950791F708958B
:1001A00030E020E042EB57E04093B2005093B100C2
:1001B000B89BFECFB89A1092B100A8952F5F3F4F21
:1001C0008217930789F70895CF92DF92EF92FF92FB
:1001D0000F931F93CF93DF93EC018B018FEE93E08E
:1001E0000E949303F82E84E08F1508F4F12CF80197
:1001F000E080E11016C02097A1F4CF2CD12C85EF20
:1002000093E08C199D090E949303C82F84EF93E01B
:100210008C199D090E949303D0E0DC2FCC27C80FD6
:10022000D11DCE01969587959E01369527953695D9
:100230002795AE0163E0569547956A95E1F7242727
:1002400035272C273D2775E0D695C7957A95E1F798
:10025000C227D327DD27C695D795CC27C82BD92B06
:1002600081E08E0DF80180838F3FE9F4CF2CD12CF3
:100270006D2F85EF93E08C199D090E949B036C2FD5
:1002800084EF93E08C199D090E949B03299B15C064
:100290002998F801108280E38F0D9091C00095FF9E
:1002A000FCCF8093C600CE01DF91CF911F910F91BB
:1002B000FF90EF90DF90CF900895299AEACF1F9298
:1002C0000F920FB60F9211248091C6000E94AA00CF
:1002D0007894FFCFCF93DF9300D000D000D0CDB77C
:1002E000DEB71E8280E88093610011E01093610008
:1002F0008CEF93E00E9493038093A50180FF07C0D9
:100300001093A50160E085EF93E00E949B03A89500
:1003100084B7877F84BF809160008861809360008C
:100320001092600092E09093BA0080917C0080640B
:1003300080937C0085B78F7E85BF8AB18B778AB921
:100340008BB184688BB922982A9A85B78F7E85BF36
:1003500087B1887F87B98AB1877C8AB988B187607D
:1003600088B98BB188638BB984B1836084B92998CB
:1003700028981092C1001092C50080E18093C400BB
:100380009093C00088E18093C10086E08093C20012
:100390008FE39CE90197F1F700C0000086EF93E03E
:1003A0000E9493038F3F29F460E086EF93E00E9460
:1003B0009B0386EF93E00E949303803491F40AE05C
:1003C00010E08EE891E00E94BE0001501109C9F7CB
:1003D00080E091E00E94BE0061E486EF93E00E941D
:1003E0009B0386EF93E00E94930386FF18C0682F5B
:1003F000606886EF93E00E949B038EE891E00E9484
:10040000BE008EE891E00E94BE008EE891E00E945E
:10041000BE008EE891E00E94BE000C9400361A994E
:1004200032C04A9930C01D8280E69AEE1A9902C005
:100430000197E1F754E0E52EF12C0CEC13E31A9947
:1004400022C08D81082E000C990B0196B7010E94E5
:10045000BD038D83882399F3AE014B5F5F4F61E548
:1004600081E00E945D0009830A831B831C83AE0127
:100470004F5F5F4F61E084E00E945D0082E390E0A7
:100480000E94D000DCCF4A99C1C04F99BFC081E320
:1004900091E00E94BE0090E080E02AEF30E04091C1
:1004A000C00047FD3BC00196A89581344FE19407F9
:1004B00024F02150310990E080E02115310579F7D1
:1004C000E6CF2081022E000C330B02C03595279514
:1004D0004A95E2F720FFEEC05982AA82AE014F5F33
:1004E0005F4F63E082E00E945D00F801E35CFE4F35
:1004F000960101C0220FAA94EAF7808182278083A7
:1005000085E090E00E94D000A895B394A4C0962402
:1005100084E690E00E94D000B12CA1C08091C6007A
:100520008F7D823509F0B3CF8EE891E00E94BE0046
:1005300084E48093BC008091BC0087FFFCCF809155
:10054000BB0080E00E94530082E58093BB0084E8FA
:100550008093BC008091BC0087FFFCCF80E8809333
:10056000BC0088E391E00E94BE0084E48093BC005C
:100570008091BC0087FFFCCF8091BB0084EC80930E
:10058000BC008091BC0087FFFCCFF090BB0084ECE6
:100590008093BC008091BC0087FFFCCF8091BB00A2
:1005A00090E0982F882724E82093BC002091BC007D
:1005B00027FFFCCF0091BB00080F192F111D80E809
:1005C0008093BC008DE591E00E94BE004AE062E9A4
:1005D00071E08F2D90E00E945E0382E991E00E941D
:1005E000BE0084E791E00E94BE004AE062E971E04B
:1005F000C8010E945E0382E991E00E94BE000E3EA7
:10060000124024F48AE891E00E94BE0088E19FE055
:100610000FB6F894A895809360000FBE9093600089
:100620000E94AA00BE016A5F7F4F90E080E00E94B6
:10063000E400882E792E8091C10080688093C100EB
:100640007894912CB12C6624639427E0E22EF12C4F
:10065000CC24C394D12C97E39B150CF458CFBE0146
:100660006A5F7F4F882D972D0E94E4009C01B7019F
:100670000E94A90391E6592E580EBE016A5F7F4F72
:10068000C9010E94E400882E792E482F4770A42EBD
:10069000052D10E0F801E35CFE4F911012CF808130
:1006A000082E000C990B02C0959587954A95E2F7A4
:1006B00080FF12CF8E8181508E83CDCFBB274A30F1
:1006C00031F4992322F4BDE2909581959F4F0C94CB
:1006D0006A03BB27FB015527AA27880F991FAA1F6A
:1006E000A41710F0A41B83955051B9F7A05DAA334D
:1006F00008F0A95DA193009779F7B111B193119218
:10070000CB010C948303DC01FC01672F71917723EB
:10071000E1F7329704C07C916D9370836291AE17BC
:10072000BF07C8F30895F999FECF92BD81BDF89A2D
:10073000992780B50895262FF999FECF1FBA92BD4B
:1007400081BD20BD0FB6F894FA9AF99A0FBE0196B2
:100750000895AA1BBB1B51E107C0AA1FBB1FA61708
:10076000B70710F0A61BB70B881F991F5A95A9F75A
:1007700080959095BC01CD01089597FB072E16F446
:10078000009407D077FD09D00E94A90307FC05D08B
:100790003EF4909581959F4F0895709561957F4F98
:0607A0000895F894FFCF5C
:1007A60050726F6A65637420636F6D6D656E7461F8
:1007B60072793A2050726573732027582720746F18
:1007C60020657363617065206F7220414F4B0D0A7F
:1007D60000523F20202020000D0A5043425F412056
:1007E600286D696E695F4F53292064657669636574
:1007F6002063616C6962726174696E67000D0A4FED
:10080600534343414C20757365722076616C756560
:10081600202020000D0A63616C6962726174696F41
:100826006E206572726F7220200020204F4B0D0AD9
:020836000000C0
:00000001FF
