:100000000C9434000C9451000C9451000C94510049
:100010000C9451000C9451000C9451000C9451001C
:100020000C9451000C9451000C9451000C9451000C
:100030000C9451000C9451000C9451000C945100FC
:100040000C9451000C9451000C9451000C945100EC
:100050000C9451000C9451000C9451000C945100DC
:100060000C9451000C94510011241FBECFEFD8E026
:10007000DEBFCDBF11E0A0E0B1E0E4E8F8E002C0EF
:1000800005900D92A839B107D9F721E0A8E9B1E0B0
:1000900001C01D92A53AB207E1F70E94E3000C945B
:1000A00040040C94000084EC8093BC008091BC0060
:1000B00087FFFCCF8091BB0008958093BB0084E84C
:1000C0008093BC008091BC0087FFFCCF0895809393
:1000D000BB0084EC8093BC008091BC0087FFFCCF08
:1000E0000895CF92DF92EF92FF920F931F93CF93D9
:1000F000DF93C82F062F142FD52F84E48093BC00E4
:100100008091BC0087FFFCCF8091BB008C2F0E94A8
:100110006700802F0E946700E12EFD2E10E000E0B6
:100120000C2E000CDD0B6E0181E0C81AD1080C17F3
:100130001D0774F4F70181917F01C016D10629F4DF
:100140000E945D000F5F1F4FF2CF0E946700FACF41
:1001500080E88093BC00DF91CF911F910F91FF90B9
:10016000EF90DF90CF9008959091C00095FFFCCF65
:100170008093C60008950F931F93CF93DF93EC01F4
:100180008C0108531F4F8991882329F00E94B400E5
:10019000C017D107C1F7DF91CF911F910F9108953B
:1001A00030E020E04091C00047FD0BC02F5F3F4F83
:1001B000A89521344FE13407ACF3019789F780E02B
:1001C000089581E00895CF93DF93CDB7DEB76D97A3
:1001D0000FB6F894DEBF0FBECDBF80E880936100FC
:1001E00011E0109361008CEF93E00E94A7038093CD
:1001F000A40180FF07C01093A40160E085EF93E0A5
:100200000E94AF03A89584B7877F84BF8091600068
:100210008861809360001092600092E09093BA0031
:1002200080917C00806480937C0085B78F7E85BF41
:100230008AB18B778AB98BB184688BB922982A9A54
:1002400085B78F7E85BF87B1887F87B98AB1877C64
:100250008AB988B1876088B98BB188638BB984B15A
:10026000836084B9299828981092C1001092C50023
:1002700080E18093C4009093C00088E18093C10026
:1002800086E08093C2008FE39CE90197F1F700C0FC
:10029000000086EF93E00E94A7038F3F29F460E0FF
:1002A00086EF93E00E94AF0386EF93E00E94A703DE
:1002B000803491F40AE010E082E991E00E94BB00F2
:1002C00001501109C9F780E091E00E94BB0061E490
:1002D00086EF93E00E94AF0386EF93E00E94A703AE
:1002E00086FF18C0682F606886EF93E00E94AF0316
:1002F00082E991E00E94BB0082E991E00E94BB008C
:1003000082E991E00E94BB0082E991E00E94BB007B
:100310000C9400361A993EC04A993CC01D8680E66E
:100320009AEE1A9902C00197E1F704E010E0ECECB4
:10033000FE2EF3E3EF2EA2EBDA2EB5E0CB2E1A99C8
:1003400029C08D85082E000C990B0196B8010E94DA
:10035000BD038D87882399F3AE01435F5F4F61E54D
:1003600081E00E947100F982FA82EB82EC82AE0198
:100370004F5F5F4F61E084E00E94710082E390E094
:10038000D6BCC5BCA89BFECFA89A15BCA895019762
:10039000B9F7D5CF4A996FC04F996DC081E391E00D
:1003A0000E94BB008AEF90E00E94D0008823B1F346
:1003B0008091C6008F7D823589F782E991E00E94A5
:1003C000BB0084E48093BC008091BC0087FFFCCF1D
:1003D0008091BB0080E00E94670082E50E945D0082
:1003E00080E88093BC0088E391E00E94BB0084E435
:1003F0008093BC008091BC0087FFFCCF8091BB0044
:100400000E945300F82E0E94530090E0982F8827F6
:1004100024E82093BC002091BC0027FFFCCF009172
:10042000BB00080F192F111D80E88093BC008DE5DB
:1004300091E00E94BB004AE068E971E08F2D90E0F6
:100440000E94720388E991E00E94BB0084E791E07A
:100450000E94BB004AE068E971E0C8010E94720393
:1004600088E991E00E94BB000E3E124024F48AE825
:1004700091E00E94BB0081E991E00E94BB0010E086
:1004800000E0E7E0E98F1A8E1B8E1C8E47E3542EA6
:10049000612C712C212C54E4452E64E8362E1D86E7
:1004A0001E861F86188A198A1A8A1B8A1C8A8091BE
:1004B000C00087FD02C0A895FACF8091C60090EDDC
:1004C000980F9A30A0F78D87AE01435F5F4F64E0CD
:1004D00088E00E94710088E090E00E94D0008823AC
:1004E000D1F38091C6008D3019F08A3009F0BEC07A
:1004F00081E090E00E94D00081118091C60040927E
:10050000BC008091BC0087FFFCCF8091BB0080E0E5
:100510000E94670089E40E945D003092BC00409216
:10052000BC008091BC0087FFFCCF8091BB00C12C38
:10053000D12C7601B12CA12CF3E0AF16B10409F057
:10054000A9C03092BC008091BC0087FFFCCF809195
:10055000BB00C80ED11CE11CF11C2FEFA21AB20A7D
:1005600034E0A316B10441F780E88093BC00013069
:10057000110509F49AC00230110509F49FC08FE3F8
:100580000E94B4005C2C6D2C7E2C2F2C0F5F1F4F13
:100590000330110509F083CF652D762D872D922D1F
:1005A000298D3A8D4B8D5C8D0E94F3035B018C018C
:1005B00057FF86C050954095309521953F4F4F4F3E
:1005C0005F4F9DE29D8FCA01B9019E012F5F3F4F92
:1005D000690119012AE0422E512C612C712CA301D2
:1005E00092010E94D103605DF10161931F017F01BF
:1005F000EC18FD08B901CA01611571058105910565
:1006000071F7F601EE0DFF1D1082FD8DFD3219F41C
:100610008DE20E94B400EC0CFD1CF70182917F0179
:100620000E94B400EC14FD04C1F780E20E94B40003
:1006300085E991E00E94BB008114910409F443C054
:10064000AAE0B0E09501A8010E941204298D3A8D1C
:100650004B8D5C8D0E94F3035B018C01F1E08F1ADE
:10066000910880E3820F0E94B400E6CF90ED980FCE
:100670009A3008F030CF9B899C8B9A899B8B998903
:100680009A8B9889998B9F85988B9E859F879D854E
:100690009E8719CF0E945300C80ED11CE11CF11C8B
:1006A000FE2CED2CDC2CCC2458CF81E991E00E946B
:1006B000BB00C98EDA8EEB8EFC8E68CF460166CF0A
:1006C000EBE2ED8F80CF82E991E00E94BB0088E1F0
:1006D00099E00FB6F894A895809360000FBE9093B0
:1006E0006000FFCFBB274A3031F4992322F4BDE2EA
:1006F000909581959F4F0C947E03BB27FB01552756
:10070000AA27880F991FAA1FA41710F0A41B83956E
:100710005051B9F7A05DAA3308F0A95DA1930097E5
:1007200079F7B111B1931192CB010C949703DC01CD
:10073000FC01672F71917723E1F7329704C07C9118
:100740006D9370836291AE17BF07C8F30895F9994E
:10075000FECF92BD81BDF89A992780B50895262FC6
:10076000F999FECF1FBA92BD81BD20BD0FB6F89496
:10077000FA9AF99A0FBE0196089597FB072E16F480
:10078000009407D077FD09D00E941D0407FC05D016
:100790003EF4909581959F4F0895709561957F4F98
:1007A0000895A1E21A2EAA1BBB1BFD010DC0AA1FB2
:1007B000BB1FEE1FFF1FA217B307E407F50720F0CA
:1007C000A21BB30BE40BF50B661F771F881F991F45
:1007D0001A9469F760957095809590959B01AC018E
:1007E000BD01CF010895052E97FB1EF400940E94D1
:1007F0000A0457FD07D00E94D10307FC03D04EF432
:100800000C940A0450954095309521953F4F4F4FD9
:100810005F4F089590958095709561957F4F8F4FAC
:100820009F4F08950E943104A59F900DB49F900D95
:10083000A49F800D911D11240895AA1BBB1B51E19B
:1008400007C0AA1FBB1FA617B70710F0A61BB70B40
:10085000881F991F5A95A9F780959095BC01CD01E5
:100860000895A29FB001B39FC001A39F700D811D89
:100870001124911DB29F700D811D1124911D0895A9
:04088000F894FFCF1A
:1008840050726F6A65637420636F6D6D656E746119
:1008940072793A2050726573732027582720746F39
:1008A40020657363617065206F7220414F4B0D0AA0
:1008B40000523F20202020000D0A5043425F412077
:1008C400286D696E695F4F53292064657669636595
:1008D4002063616C6962726174696E67000D0A4F0E
:1008E400534343414C20757365722076616C756582
:1008F400202020000D0A63616C6962726174696F63
:100904006E206572726F7220200020204F4B0D0AFA
:08091400003F0D0A002E200037
:00000001FF
