:100000000C9434000C9451000C9451000C94510049
:100010000C9451000C9451000C9451000C9451001C
:100020000C9451000C9451000C9451000C9451000C
:100030000C9451000C9451000C9451000C945100FC
:100040000C9451000C9451000C9451000C945100EC
:100050000C9451000C9451000C9451000C945100DC
:100060000C9451000C94510011241FBECFEFD8E026
:10007000DEBFCDBF11E0A0E0B1E0E0EBF7E002C0F1
:1000800005900D92A23BB107D9F721E0A2EBB1E0B8
:1000900001C01D92A03CB207E1F70E94D9000C9468
:1000A000D6030C94000084EC8093BC008091BC00CB
:1000B00087FFFCCF8091BB0008958093BB0084E84C
:1000C0008093BC008091BC0087FFFCCF0895809393
:1000D000BB0084EC8093BC008091BC0087FFFCCF08
:1000E0000895CF92DF92EF92FF920F931F93CF93D9
:1000F000DF93C82F062F142FD52F84E48093BC00E4
:100100008091BC0087FFFCCF8091BB008C2F0E94A8
:100110006700802F0E946700E12EFD2E10E000E0B6
:100120000C2E000CDD0B6E0181E0C81AD1080C17F3
:100130001D0774F4F70181917F01C016D10629F4DF
:100140000E945D000F5F1F4FF2CF0E946700FACF41
:1001500080E88093BC00DF91CF911F910F91FF90B9
:10016000EF90DF90CF900895AC0148535F4FFC01B2
:100170002191CF01222349F03091C00035FFFCCFFF
:100180002093C6008417950791F7089530E020E08A
:100190004091C00047FD0BC02F5F3F4FA895213411
:1001A0004FE13407ACF3019789F780E0089581E0CF
:1001B0000895CF93DF93CDB7DEB760970FB6F8946D
:1001C000DEBF0FBECDBF80E88093610011E01093C9
:1001D00061008CEF93E00E9457038093BF0180FF82
:1001E00007C01093BF0160E085EF93E00E945F03BA
:1001F0008091BF0183FF03C081E08093BE01A89579
:1002000084B7877F84BF809160008861809360009D
:100210001092600092E09093BA0080917C0080641C
:1002200080937C0085B78F7E85BF8AB18B778AB932
:100230008BB184688BB922982A9A85B78F7E85BF47
:1002400087B1887F87B98AB1877C8AB988B187608E
:1002500088B98BB188638BB984B1836084B92998DC
:1002600028981092C1001092C50080E18093C400CC
:100270009093C00088E18093C10086E08093C20023
:100280008FE39CE90197F1F700C0000086EF93E04F
:100290000E9457038F3F29F460E086EF93E00E94AD
:1002A0005F0386EF93E00E945703803491F40AE0E5
:1002B00010E08EE891E00E94B40001501109C9F7E6
:1002C00080E091E00E94B40061E486EF93E00E9438
:1002D0005F0386EF93E00E94570386FF18C0682FE4
:1002E000606886EF93E00E945F038EE891E00E94D1
:1002F000B4008EE891E00E94B4008EE891E00E9484
:10030000B4008EE891E00E94B4000C9400361A9973
:100310003DC04A993BC01D8680E69AEE1A9902C0FC
:100320000197E1F744E0E42EF12C1CEC03E352EBDF
:10033000D52E65E0C62E1A9929C08D85082E000C91
:10034000990B0196B7010E946D038D87882399F35D
:10035000AE01435F5F4F61E581E00E947100198348
:100360001A830B830C83AE014F5F5F4F61E084E023
:100370000E94710082E390E0D6BCC5BCA89BFECF72
:10038000A89A15BCA8950197B9F7D5CF4A996FC01F
:100390004F996DC081E391E00E94B4008AEF90E034
:1003A0000E94C6008823B1F38091C6008F7D8235FC
:1003B00089F78EE891E00E94B40084E48093BC0049
:1003C0008091BC0087FFFCCF8091BB0080E00E9441
:1003D000670082E50E945D0080E88093BC0088E3AE
:1003E00091E00E94B40084E48093BC008091BC0042
:1003F00087FFFCCF8091BB000E945300F82E0E9423
:10040000530090E0982F882724E82093BC00209187
:10041000BC0027FFFCCF0091BB00080F192F111D56
:1004200080E88093BC008DE591E00E94B4004AE032
:1004300062EB71E08F2D90E00E94220382EB91E04D
:100440000E94B40084E791E00E94B4004AE062EBAD
:1004500071E0C8010E94220382EB91E00E94B40087
:100460000E3E124024F48AE891E00E94B40080918C
:10047000BE01813009F085C081E991E00E94B4009D
:1004800019821A821B821C821D821E821F8218867C
:10049000198688E090E00E94C6008823D1F38091FD
:1004A000C6008D3019F08A3009F06EC081E090E00E
:1004B0000E94C60081118091C60081E68D871E864C
:1004C000AE01435F5F4F62E082E00E947100A89539
:1004D0002FEF80E792E0215080409040E1F700C08C
:1004E0000000A8952FEF80E792E0215080409040D7
:1004F000E1F700C00000AE014F5F5F4F64E088E0AD
:100500000E94710084E48093BC008091BC0087FF4E
:10051000FCCF8091BB0080E00E94670089E40E94CC
:100520005D0084E88093BC0084E48093BC008091EB
:10053000BC0087FFFCCF8091BB00C12CD12C760181
:1005400010E000E024E8B22E03301105E9F5B09286
:10055000BC008091BC0087FFFCCF8091BB00C80E1F
:10056000D11CE11CF11C0F5F1F4F0430110561F716
:1005700080E88093BC008091C00087FD30C0A895C2
:10058000FACF89E991E07ACF90ED980F9A3008F090
:1005900080CF9981992379F0288529872F81288711
:1005A0002E812F832D812E832C812D832B812C83D3
:1005B0002A812B839A838983AE014F5F5F4F64E06A
:1005C00088E00E94710065CF0E945300C80ED11CC4
:1005D000E11CF11CFE2CED2CDC2CCC24C4CF809132
:1005E000C60082E0882E912CA12CB12CC114D1041C
:1005F000E104F104E1F0C701B601A50194010E94F4
:10060000810369017A01FD864E87DF86288BAE0162
:10061000435F5F4F66E084E00E9471008091C000FC
:1006200087FD02C0A895FACF8091C600DFCF88E190
:1006300099E00FB6F894A895809360000FBE909350
:100640006000FFCFBB274A3031F4992322F4BDE28A
:10065000909581959F4F0C942E03BB27FB01552746
:10066000AA27880F991FAA1FA41710F0A41B83950F
:100670005051B9F7A05DAA3308F0A95DA193009786
:1006800079F7B111B1931192CB010C944703DC01BE
:10069000FC01672F71917723E1F7329704C07C91B9
:1006A0006D9370836291AE17BF07C8F30895F999EF
:1006B000FECF92BD81BDF89A992780B50895262F67
:1006C000F999FECF1FBA92BD81BD20BD0FB6F89437
:1006D000FA9AF99A0FBE0196089597FB072E16F421
:1006E000009407D077FD09D00E94A00307FC05D035
:1006F0003EF4909581959F4F0895709561957F4F39
:100700000895052E97FB1EF400940E94980357FD50
:1007100007D00E94B40307FC03D04EF40C94980356
:1007200050954095309521953F4F4F4F5F4F08951D
:1007300090958095709561957F4F8F4F9F4F08954D
:10074000AA1BBB1B51E107C0AA1FBB1FA617B707F7
:1007500010F0A61BB70B881F991F5A95A9F7809513
:100760009095BC01CD010895A1E21A2EAA1BBB1BD6
:10077000FD010DC0AA1FBB1FEE1FFF1FA217B3076D
:10078000E407F50720F0A21BB30BE40BF50B661F83
:10079000771F881F991F1A9469F760957095809547
:1007A00090959B01AC01BD01CF010895F894FFCF56
:1007B00050726F6A65637420636F6D6D656E7461EE
:1007C00072793A2050726573732027582720746F0E
:1007D00020657363617065206F7220414F4B0D0A75
:1007E00000523F20202020000D0A5043425F41204C
:1007F000286D696E695F4F5329206465766963656A
:100800002063616C6962726174696E67000D0A4FE2
:10081000534343414C20757365722076616C756556
:10082000202020000D0A63616C6962726174696F37
:100830006E206572726F7220200020204F4B0D0ACF
:10084000000D0A416761696E00456E746572206E25
:10085000756D626572206174206B6579626F61727B
:02086000640032
:00000001FF
