:100000000C9435000C945D000C945D000C945D0024
:100010000C945D000C945D000C945D000C945D00EC
:100020000C945D000C945D000C945D000C945D00DC
:100030000C945D000C945D000C945D000C945D00CC
:100040000C94DF010C945D000C944F020C94290277
:100050000C945D000C945D000C945D000C945D00AC
:100060000C945D000C945D00810211241FBECFEF43
:10007000D8E0DEBFCDBF23E0A8E6B2E001C01D920C
:10008000AF30B207E1F712E0A0E0B1E0E8ECFAE04F
:1000900002C005900D92A836B107D9F710E0C5E36C
:1000A000D0E004C02197FE010E945C05C433D10753
:1000B000C9F70E94AE020C9462050C940000AF9246
:1000C000BF92CF92DF92EF92FF920F931F93CF9345
:1000D000DF936C017B018B01040F151FEB015E01A7
:1000E000AE18BF08C017D10759F06991D601ED913C
:1000F000FC910190F081E02DC6010995892B79F7DB
:10010000C501DF91CF911F910F91FF90EF90DF908C
:10011000CF90BF90AF900895FC01538D448D252F53
:1001200030E0842F90E0821B930B541710F0CF9691
:10013000089501970895FC01918D828D981761F0C3
:10014000A28DAE0FBF2FB11D5D968C91928D9F5FDA
:100150009F73928F90E008958FEF9FEF0895FC01B9
:10016000918D828D981731F0828DE80FF11D858D6C
:1001700090E008958FEF9FEF0895FC01918D228DFF
:10018000892F90E0805C9F4F821B91098F73992784
:1001900008950F931F93CF93DF93D0E0C0E002E365
:1001A00010E082E792E00E94BD00892B99F421962D
:1001B000A895C1348FE1D80724F001501109D0E08F
:1001C000C0E00115110569F780E0DF91CF911F9123
:1001D0000F91089581E0F9CFFC01A48DA80FB92FEC
:1001E000B11DA35ABF4F2C91848D90E001968F735F
:1001F0009927848FA689B7892C93A089B1898C917E
:10020000837080648C93938D848D981306C00288CC
:10021000F389E02D80818F7D80830895EF92FF9296
:100220000F931F93CF93DF93EC0181E0888F9B8D19
:100230008C8D98131AC0E889F989808185FF15C0D3
:100240009FB7F894EE89FF896083E889F9898081F6
:100250008370806480839FBF81E090E0DF91CF91C5
:100260001F910F91FF90EF900895F62E0B8D10E0E7
:100270000F5F1F4F0F731127E02E8C8D8E110CC056
:100280000FB607FCFACFE889F989808185FFF5CFA1
:10029000CE010E94EC00F1CFEB8DEC0FFD2FF11D94
:1002A000E35AFF4FF0829FB7F8940B8FEA89FB89DE
:1002B00080818062CFCFCF93DF93EC01888D88233C
:1002C000B9F0AA89BB89E889F9898C9185FD03C0B9
:1002D000808186FD0DC00FB607FCF7CF8C9185FF9E
:1002E000F2CF808185FFEDCFCE010E94EC00E9CFF7
:1002F000DF91CF9108958093BB0084EC8093BC0084
:100300008091BC0087FFFCCF0895BF92CF92DF920F
:10031000EF92FF920F931F93CF93DF93C82F062F77
:10032000142FD52F84E48093BC008091BC0087FFFC
:10033000FCCF8091BB008C2F0E947B01802F0E94FC
:100340007B01E12EFD2E10E000E00C2E000CDD0BF9
:100350006E0181E0C81AD10884E8B82E0C171D0779
:10036000A4F4F70181917F01C016D10659F480935E
:10037000BB00B092BC008091BC0087FFFCCF0F5F38
:100380001F4FECCF0E947B01FACF80E88093BC0026
:10039000DF91CF911F910F91FF90EF90DF90CF9061
:1003A000BF900895FC0101900020E9F73197AF015B
:1003B000481B590BBC0182E792E00C945F001F922E
:1003C0000F920FB60F9211242F933F938F939F9309
:1003D000AF93BF9380916E0290916F02A0917002D3
:1003E000B091710230916D0223E0230F2D3758F543
:1003F0000196A11DB11D20936D0280936E02909312
:100400006F02A0937002B093710280916902909183
:100410006A02A0916B02B0916C020196A11DB11D00
:100420008093690290936A02A0936B02B0936C026E
:10043000BF91AF919F918F913F912F910F900FBEE0
:100440000F901F90189526E8230F0296A11DB11D4D
:10045000D2CF1F920F920FB60F9211242F933F937A
:100460004F935F936F937F938F939F93AF93BF93BC
:10047000EF93FF9382E792E00E94EC00FF91EF91EF
:10048000BF91AF919F918F917F916F915F914F91AC
:100490003F912F910F900FBE0F901F9018951F92B4
:1004A0000F920FB60F9211242F938F939F93EF9378
:1004B000FF93E0918202F09183028081E0918802B3
:1004C000F091890282FD1BC0908180918B028F5F29
:1004D0008F7320918C02821741F0E0918B02F0E043
:1004E000EE58FD4F958F80938B02FF91EF919F9176
:1004F0008F912F910F900FBE0F901F9018958081B4
:10050000F4CFE2E7F2E01382128288EE93E0A0E0FB
:10051000B0E084839583A683B78384E091E09183E0
:10052000808385EC90E09587848784EC90E09787C2
:10053000868780EC90E0918B808B81EC90E0938BB0
:10054000828B82EC90E0958B848B86EC90E0978B8D
:10055000868B118E128E138E148E0895CF93DF9397
:10056000CDB7DEB764970FB6F894DEBF0FBECDBF30
:1005700080E88093610011E0109361008CEF93E0BC
:100580000E941E0580FDEFC080936802A89584B785
:10059000877F84BF809160008861809360001092A3
:1005A000600092E09093BA0080917C008064809318
:1005B0007C0085B78F7E85BF8AB18B778AB98BB176
:1005C00084688BB926982E9A85B78F7E85BF84B1B3
:1005D0008B7784B987B1887F87B98AB187788AB9E0
:1005E00085B1846885B988B1876088B98BB188671F
:1005F0008BB984B1836084B929982898E0918202EC
:10060000F09183029083E0917E02F0917F0210824C
:10061000E0918002F091810280E1808310928A0251
:10062000E0918602F091870286E08083E091840267
:10063000F0918502808180618083E0918402F09155
:100640008502808188608083E0918402F091850238
:10065000808180688083E0918402F09185028081AE
:100660008F7D8083789484EF93E00E941E058F3FF6
:1006700029F460E084EF93E00E94260584EF93E084
:100680000E941E05803491F40AE010E085E692E0B5
:100690000E94D20101501109C9F782E191E00E9444
:1006A000D20161E484EF93E00E94260584EF93E099
:1006B0000E941E0586FF18C0682F606884EF93E0D3
:1006C0000E94260585E692E00E94D20185E692E02E
:1006D0000E94D20185E692E00E94D20185E692E076
:1006E0000E94D2010C9400361A9945C04A9943C021
:1006F0001D8680E69AEE1A9902C00197E1F734E070
:10070000E32EF12C1CEC03E342EBD42E55E0C52E76
:100710001A9931C08D85082E000C990B0196B701EE
:100720000E9434058D87882399F3AE01435F5F4FA4
:1007300061E581E00E94850119831A830B830C8394
:10074000AE014F5F5F4F61E084E00E94850182E36C
:1007500090E0D6BCC5BCA89BFECFA89A15BCA895B6
:100760000197B9F7D5CF1093680260E085EF93E069
:100770000E9426050BCF4A9985C04F9983C083E418
:1007800091E00E94D2010E94C9008823C1F382E750
:1007900092E00E949B008F7D823589F785E692E08A
:1007A0000E94D20184E48093BC008091BC0087FF4A
:1007B000FCCF8091BB0080E00E947B0182E58093AA
:1007C000BB0084E88093BC008091BC0087FFFCCF15
:1007D00080E88093BC008AE491E00E94D20184E426
:1007E0008093BC008091BC0087FFFCCF8091BB0050
:1007F00084EC8093BC008091BC0087FFFCCFF0901C
:10080000BB0084EC8093BC008091BC0087FFFCCFD0
:100810008091BB0090E0982F882724E82093BC00AB
:100820002091BC0027FFFCCF0091BB00080F192FBF
:10083000111D80E88093BC008FE691E00E94D201F8
:100840004AE0BE016F5F7F4F8F2D90E00E94E90468
:10085000CE0101960E94D20186E891E00E94D20169
:100860004AE0BE016F5F7F4FC8010E94E904CE01DC
:1008700001960E94D2010E3E124024F48CE991E0D0
:100880000E94D2014F9B13C083E491E00E94D201E9
:100890000E94C9008823C1F382E792E00E949B0076
:1008A0008F7D823589F785E692E00E94D2014F9BC9
:1008B000FECF82E090E00E941E05882309F473C0F9
:1008C0008F3F09F076C083EA91E00E94D20119823D
:1008D0001A821B821C821D821E821F82188610E0D3
:1008E00000E0FE0131967F0180E2C82E82E792E0AF
:1008F0000E94BD00892B11F4A895F8CF82E792E001
:100900000E949B00D82E0230110519F00530110508
:1009100079F4C98260E2C80103960E942605FE01AF
:10092000389682918183EE15FF05D9F70F5F1F4F2F
:10093000D9826D2DC80103960E942605A70164E0A7
:1009400088E00E948501073011053CF4FE013896CD
:1009500082918183EE16FF06D9F70F5F1F4F083093
:10096000110524F260E082E090E00E9426058CEC04
:1009700091E00E94D2017E01FDE0EF0EF11C03E048
:1009800010E06701C8010E941E05F70181937F01F5
:100990000F5F1F4F0B301105A9F7A60163E488E034
:1009A0000E948501FFCF6FEF82E090E00E94260554
:1009B000E2CF6FEF82E090E00E94260588E198E0A8
:1009C0000FB6F894A895809360000FBE90936000D6
:1009D000FFCFBB274A3031F4992322F4BDE2909532
:1009E00081959F4F0C94F504BB27FB015527AA273F
:1009F000880F991FAA1FA41710F0A41B83955051AC
:100A0000B9F7A05DAA3308F0A95DA193009779F723
:100A1000B111B1931192CB010C940E05DC01FC01D4
:100A2000672F71917723E1F7329704C07C916D9322
:100A300070836291AE17BF07C8F30895F999FECF8E
:100A400092BD81BDF89A992780B50895262FF9990E
:100A5000FECF1FBA92BD81BD20BD0FB6F894FA9AA1
:100A6000F99A0FBE0196089597FB072E16F400948D
:100A700007D077FD09D00E94480507FC05D03EF459
:100A8000909581959F4F0895709561957F4F08953A
:100A9000AA1BBB1B51E107C0AA1FBB1FA617B707A4
:100AA00010F0A61BB70B881F991F5A95A9F78095C0
:100AB0009095BC01CD010895EE0FFF1F0590F491B4
:080AC000E02D0994F894FFCF2A
:100AC800000000000E015F008C005B01BD009B0070
:100AD800AF0050726F6A65637420636F6D6D656EE9
:100AE800746172793A2050726573732027582720F1
:100AF800746F20657363617065206F7220414F4B7E
:100B08000D0A00523F20202020000D0A5043425F6A
:100B18004120286D696E695F4F53292064657669A5
:100B280063652063616C6962726174696E67000D48
:100B38000A4F534343414C20757365722076616CAC
:100B48007565202020000D0A63616C69627261740A
:100B5800696F6E206572726F7220200020204F4BE3
:100B68000D0A000D0A53656E642074696D653A209C
:100B7800686F757273206D696E732073656373286F
:100B88003234487220636C6F636B29000D0A466F1C
:100B98006C6C6F77206361726566756C6C79202860
:100BA800504F52206D6179206265206E65656465DD
:100BB800642921210D0A507265737320535732201E
:100BC8002620506F776572206379636C65213A43FC
:100BD800616E206E6F7720757365203556205553EA
:100BE8004220636861726765722069662072657168
:100BF80075697265642E0D0A52656C6561736520AE
:100C080053573220726F2072657374617274206357
:100C18006C6F636B2061742074696D6520656E74F8
:080C2800657265642E0D0A00DF
:00000001FF
