:100000000C9476000C949E000C949E000C949E0020
:100010000C949E000C949E000C949E000C949E00E8
:100020000C949E000C949E000C949E000C949E00D8
:100030000C949E000C949E000C949E000C949E00C8
:100040000C948A040C949E000C94FA040C94D4042E
:100050000C949E000C949E000C949E000C949E00A8
:100060000C949E000C949E0007634236B79BD8A761
:100070001A39685618AEBAAB558C1D3CB7CC5763CD
:10008000BD6DEDFD753EF6177231BF000000803F7B
:1000900008000000BE922449123EABAAAA2ABECD97
:1000A000CCCC4C3E00000080BEABAAAAAA3E000009
:1000B0000000BF000000803F000000000008417801
:1000C000D3BB4387D1133D190E3CC3BD4282AD2B38
:1000D0003E68EC8276BED98FE1A93E4C80EFFFBE30
:1000E00001C4FF7F3F00000000002C0511241FBE4B
:1000F000CFEFD8E0DEBFCDBF23E0A2E9B2E001C080
:100100001D92AC33B207E1F712E0A0E0B1E0E2E00B
:10011000F8E102C005900D92A239B107D9F710E0BD
:10012000C6E7D0E004C02197FE010E94F90BC53755
:10013000D107C9F70E9459050C94FF0B0C940000DD
:10014000AF92BF92CF92DF92EF92FF920F931F93E5
:10015000CF93DF936C017B018B01040F151FEB0123
:100160005E01AE18BF08C017D10759F06991D601DA
:10017000ED91FC910190F081E02DC6010995892B4C
:1001800079F7C501DF91CF911F910F91FF90EF900B
:10019000DF90CF90BF90AF900895FC01538D448DB8
:1001A000252F30E0842F90E0821B930B541710F022
:1001B000CF96089501970895FC01918D828D98172F
:1001C00061F0A28DAE0FBF2FB11D5D968C91928D07
:1001D0009F5F9F73928F90E008958FEF9FEF089538
:1001E000FC01918D828D981731F0828DE80FF11D01
:1001F000858D90E008958FEF9FEF0895FC01918D1C
:10020000228D892F90E0805C9F4F821B91098F7314
:1002100099270895FC01A48DA80FB92FB11DA35AE9
:10022000BF4F2C91848D90E001968F739927848F16
:10023000A689B7892C93A089B1898C918370806439
:100240008C93938D848D981306C00288F389E02DDA
:1002500080818F7D80830895EF92FF920F931F938B
:10026000CF93DF93EC0181E0888F9B8D8C8D981369
:100270001AC0E889F989808185FF15C09FB7F89475
:10028000EE89FF896083E889F989808183708064C1
:1002900080839FBF81E090E0DF91CF911F910F910C
:1002A000FF90EF900895F62E0B8D10E00F5F1F4F1B
:1002B0000F731127E02E8C8D8E110CC00FB607FC2A
:1002C000FACFE889F989808185FFF5CFCE010E94B8
:1002D0000A01F1CFEB8DEC0FFD2FF11DE35AFF4F1B
:1002E000F0829FB7F8940B8FEA89FB898081806246
:1002F000CFCFCF93DF93EC01888D8823B9F0AA8903
:10030000BB89E889F9898C9185FD03C0808186FDD0
:100310000DC00FB607FCF7CF8C9185FFF2CF80811F
:1003200085FFEDCFCE010E940A01E9CFDF91CF9189
:1003300008950F931F93CF93DF938C01D0E0C0E01B
:100340008FE992E00E94FE00892B79F42196A8950E
:10035000C1348FE1D807A4F30150110979F780E087
:10036000DF91CF911F910F91089581E0F9CF84EC37
:100370008093BC008091BC0087FFFCCF8091BB00C4
:1003800008958093BB0084E88093BC008091BC00FA
:1003900087FFFCCF08958093BB0084EC8093BC0062
:1003A0008091BC0087FFFCCF0895CF92DF92EF923F
:1003B000FF920F931F93CF93DF93C82F062F142F15
:1003C000D52F84E48093BC008091BC0087FFFCCFD4
:1003D0008091BB008C2F0E94CB01802F0E94CB010B
:1003E000E12EFD2E10E000E00C2E000CDD0B6E0166
:1003F00081E0C81AD1080C171D0774F4F701819128
:100400007F01C016D10629F40E94C1010F5F1F4F62
:10041000F2CF0E94CB01FACF80E88093BC00DF913D
:10042000CF911F910F91FF90EF90DF90CF900895A3
:100430002F923F924F925F927F928F929F92AF92B4
:10044000BF92CF92DF92EF92FF920F931F93CF93C1
:10045000DF9300D000D000D0CDB7DEB76B017C01B8
:1004600020E030E0A9010E949D071BE287FF05C044
:10047000F7FAF094F7F8F0941DE220E030E040E85D
:100480005FE3C701B6010E94060A46015701712CBD
:1004900087FD12C020E030E040E251E4C501B40124
:1004A0000E945E094B015C01739420E030E040E85B
:1004B0005FE30E94060AECCF2DEC3CEC4CEC5DE3D4
:1004C000C701B6010E949D0787FF0AC02DEC3CECD6
:1004D0004CEC5DE3C501B4010E949D0787FD25C07A
:1004E000C12CD12C7601C394C501B4010E94D0095E
:1004F0000E94A4079B01AC01C501B4010E949D07A5
:100500008823F9F020E030E040E251E4C501B40175
:100510000E9403084B015C01AAE0B0E0A70196012C
:100520000E94D7086B017C01DFCF20E030E040E281
:1005300051E4C501B4010E9403084B015C017A94A7
:10054000C5CF1D3221F4B7FAB094B7F8B094C50105
:10055000B4010E94D0098B019C01305C37FD07C0BB
:10056000C114D104E10420E4F2060CF4EAC022E054
:1005700030E040E050E00E94A40BCA01B901F594BC
:10058000E794D794C79497FDE0C0F7FCDCC02BE25A
:100590002E830EE010E0212C312C2101AA24A394FB
:1005A000B12C660F771F881F991FA70196010E9423
:1005B000A40BB62FE72FF82FA92F232B242B252BA5
:1005C00079F0A501002E02C0440F551F0A94E2F7EE
:1005D000052E000C660B770B242A352A462A572A4B
:1005E0006B2F7E2F8F2F9A2F01501109D0F62101EA
:1005F000332422240FE010E0B12CA12C8824839412
:10060000912C660F771F881F991FA70196010E94E2
:10061000A40BB62FA72FF82FE92F232B242B252B44
:1006200049F0C401002E02C0880F991F0A94E2F716
:10063000A82AB92A6B2F7A2F8F2F9E2F01501109CC
:1006400000F7D201C1018A0D9B1DA11DB11D2E8194
:100650002D3239F4B095A095909581959F4FAF4F6D
:10066000BF4FB983AA839B838C837D82AE014F5F8A
:100670005F4F6BE485E00E94D50180916B00809311
:10068000940280916D008093930280E380939202A4
:1006900080916D008478843821F080916B0082FF16
:1006A0000AC080916B008B7F80936B0080916D00FE
:1006B0008B7780936D0080E3F82E91E3E92E22E39F
:1006C000D22E04E410E81A9939C0E09292024A9BB3
:1006D00001C04F9BD09292020093BC008091BC005D
:1006E00087FFFCCF8091BB00809192020E94C101E4
:1006F0001093BC0080919202823329F7809194027A
:1007000080936B008091930280936D0026960FB6C4
:10071000F894DEBF0FBECDBFDF91CF911F910F9137
:10072000FF90EF90DF90CF90BF90AF909F908F9011
:100730007F905F904F903F902F900895F09292029B
:10074000C6CF97FF24CF2DE223CFF7FC20CFFBCFDE
:10075000FC0101900020E9F73197AF01481B590BCC
:10076000BC018FE992E00C94A000BF92CF92DF927F
:10077000EF92FF920F931F93CF93DF9300D0CDB7EB
:10078000DEB78C010996F8011192E817F907E1F735
:100790008FE992E00E94FE00892B11F4A895F8CF12
:1007A0008FE992E00E94DC0090ED980F9A3010F0F3
:1007B0008D3271F7F8018083A80164E088E00E941F
:1007C000D5017801F8E0EF0EF11C88E090E00E947E
:1007D00099018823D1F38FE992E00E94DC008D30EB
:1007E00019F08A3009F06AC081E090E00E94990116
:1007F000882321F08FE992E00E94DC0081E6898362
:100800001A82AE014F5F5F4F62E082E00E94D50125
:10081000FFEF21EE84E0F15020408040E1F700C07E
:100820000000A80164E088E00E94D50184E4809380
:10083000BC008091BC0087FFFCCF8091BB0080E0B2
:100840000E94CB0189E40E94C10184E88093BC002E
:1008500084E48093BC008091BC0087FFFCCF809132
:10086000BB00C12CD12C760110E000E094E8B92E39
:100870000330110509F043C0B092BC008091BC0068
:1008800087FFFCCF8091BB00C80ED11CE11CF11C7E
:100890000F5F1F4F0430110559F780E88093BC00AB
:1008A000C701B6010F900F90DF91CF911F910F916B
:1008B000FF90EF90DF90CF90BF90089590ED980F4C
:1008C0009A3078F0883079F08D3209F07ECFF801D7
:1008D0003896929191830E171F07D9F7F8018083FC
:1008E00008C08830A1F7F80181818193EE15FF05DA
:1008F000D9F7A80164E088E00E94D50166CF0E9484
:10090000B701C80ED11CE11CF11CFE2CED2CDC2C17
:10091000CC24BECF1F920F920FB60F9211242F93AB
:100920003F938F939F93AF93BF9380919B0290913E
:100930009C02A0919D02B0919E0230919A0223E008
:10094000230F2D3758F50196A11DB11D20939A0252
:1009500080939B0290939C02A0939D02B0939E0271
:100960008091960290919702A0919802B09199027D
:100970000196A11DB11D8093960290939702A093BA
:100980009802B0939902BF91AF919F918F913F913F
:100990002F910F900FBE0F901F90189526E8230FF0
:1009A0000296A11DB11DD2CF1F920F920FB60F92CA
:1009B00011242F933F934F935F936F937F938F9364
:1009C0009F93AF93BF93EF93FF938FE992E00E94C1
:1009D0000A01FF91EF91BF91AF919F918F917F910C
:1009E0006F915F914F913F912F910F900FBE0F909C
:1009F0001F9018951F920F920FB60F9211242F93EC
:100A00008F939F93EF93FF93E091AF02F091B00229
:100A10008081E091B502F091B60282FD1BC0908109
:100A20008091B8028F5F8F732091B902821741F0D5
:100A3000E091B802F0E0E156FD4F958F8093B80247
:100A4000FF91EF919F918F912F910F900FBE0F907B
:100A50001F9018958081F4CFEFE9F2E013821282A3
:100A600088EE93E0A0E0B0E084839583A683B7830B
:100A700084E091E09183808385EC90E09587848782
:100A800084EC90E09787868780EC90E0918B808B58
:100A900081EC90E0938B828B82EC90E0958B848B41
:100AA00086EC90E0978B868B118E128E138E148EAF
:100AB0000895CF93DF93CDB7DEB72F970FB6F89495
:100AC000DEBF0FBECDBF80E88093610011E01093C0
:100AD00061008CEF93E00E94C1088093950280FF33
:100AE00007C01093950260E085EF93E00E94C9086B
:100AF000A89584B7877F84BF8091600088618093C8
:100B000060001092600092E09093BA0080917C00A7
:100B1000806480937C0085B78F7E85BF8AB18B7798
:100B20008AB98BB184688BB922982A9A85B78F7E4F
:100B300085BF87B1887F87B98AB1877C8AB988B138
:100B4000876088B98BB188638BB984B1836084B9BD
:100B500029982898E091AF02F091B0029083E0913B
:100B6000AB02F091AC021082E091AD02F091AE02C6
:100B700080E180831092B702E091B302F091B40259
:100B800086E08083E091B102F091B20280818061C1
:100B90008083E091B102F091B2028081886080830D
:100BA000E091B102F091B202808180688083E0918F
:100BB000B102F091B20280818F7D8083789486EFBC
:100BC00093E00E94C1088F3F29F460E086EF93E034
:100BD0000E94C90886EF93E00E94C108803491F416
:100BE0000AE010E08FE892E00E94A803015011098A
:100BF000C9F782E191E00E94A80361E486EF93E0E7
:100C00000E94C90886EF93E00E94C10886FF18C0C1
:100C1000682F606886EF93E00E94C9088FE892E031
:100C20000E94A8038FE892E00E94A8038FE892E058
:100C30000E94A8038FE892E00E94A8030C9400365B
:100C40001A993DC04A993BC01D8680E69AEE1A99D2
:100C500002C00197E1F734E0E32EF12C1CEC03E332
:100C600042EBD42E55E0C52E1A9929C08D85082E49
:100C7000000C990B0196B7010E94900B8D87882379
:100C800099F3AE01435F5F4F61E581E00E94D501BA
:100C900019831A830B830C83AE014F5F5F4F61E0B2
:100CA00084E00E94D50182E390E0D6BCC5BCA89B3D
:100CB000FECFA89A15BCA8950197B9F7D5CF4A9948
:100CC00073C04F9971C083E491E00E94A80382E34E
:100CD00090E00E9499018823B1F38FE992E00E948D
:100CE000DC008F7D823579F78FE892E00E94A803BF
:100CF00084E48093BC008091BC0087FFFCCF80918E
:100D0000BB0080E00E94CB0182E50E94C10180E827
:100D10008093BC008AE491E00E94A80384E480935D
:100D2000BC008091BC0087FFFCCF8091BB000E947B
:100D3000B701F82E0E94B70190E0982F882724E889
:100D40002093BC002091BC0027FFFCCF0091BB008A
:100D5000080F192F111D80E88093BC008FE691E0E9
:100D60000E94A8034AE0BE016F5F7F4F8F2D90E085
:100D70000E946807CE0101960E94A80386E891E0D0
:100D80000E94A8034AE0BE016F5F7F4FC8010E9426
:100D90006807CE0101960E94A8030E3E124024F47B
:100DA0008CE991E00E94A80383EA91E00E94A803E5
:100DB000CE0101960E94B5030E94A4076B017C013D
:100DC0006E87DF861C0101E010E04A9BFECF4F9B3F
:100DD000FCCF1A9BFACFCE0101960E94B5034B01BE
:100DE0005C0181149104A104B10409F45FC0B8014D
:100DF000012E000C880B990B0E94A4072B013C01CB
:100E0000AC019B01B601C7010E9403086B017C0184
:100E1000A30192016E857F85C1010E940B0A2B01FF
:100E20003C01C501B4010E94A4074B015C01A7016C
:100E300096010E94F2086B017C01A3019201C50199
:100E4000B4010E9403084B015C010F5F1F4FB80102
:100E5000012E000C880B990B0E94A4072B013C016A
:100E6000AC019B01C701B6010E945E096B017C01C8
:100E700020E030E0A901C501B4010E949D0787FF71
:100E800004C0B7FAB094B7F8B094A301920160E03F
:100E900070E080E89FE30E945E099B01AC01C50100
:100EA000B4010E940B0A6E877F871C014A998DCF7F
:100EB0004A9BFECFB601C7010E9418024A9BFECF93
:100EC0006E857F85C1010E9418024A9BFECF7DCFAF
:100ED000BB274A3031F4992322F4BDE290958195E5
:100EE0009F4F0C947407BB27FB015527AA27880F37
:100EF000991FAA1FA41710F0A41B83955051B9F78E
:100F0000A05DAA3308F0A95DA193009779F7B1110C
:100F1000B1931192CB010C948D07DC01FC01672F7A
:100F200071917723E1F7329704C07C916D937083C0
:100F30006291AE17BF07C8F308950E94DF0708F457
:100F400081E00895E89409C097FB3EF49095809560
:100F5000709561957F4F8F4F9F4F9923A9F0F92F7F
:100F600096E9BB279395F695879577956795B795FD
:100F7000F111F8CFFAF4BB0F11F460FF1BC06F5FE3
:100F80007F4F8F4F9F4F16C0882311F096E911C0F5
:100F9000772321F09EE8872F762F05C0662371F016
:100FA00096E8862F70E060E02AF09A95660F771F2A
:100FB000881FDAF7880F9695879597F90895990F06
:100FC0000008550FAA0BE0E8FEEF16161706E80713
:100FD000F907C0F012161306E407F50798F0621B34
:100FE000730B840B950B39F40A2661F0232B242B09
:100FF000252B21F408950A2609F4A140A6958FEF28
:10100000811D811D08950E9416080C9487080E9476
:10101000790838F00E94800820F0952311F00C9494
:1010200070080C94760811240C94BB080E94980850
:1010300070F3959FC1F3950F50E0551F629FF0012B
:10104000729FBB27F00DB11D639FAA27F00DB11D44
:10105000AA1F649F6627B00DA11D661F829F2227CD
:10106000B00DA11D621F739FB00DA11D621F839F54
:10107000A00D611D221F749F3327A00D611D231F2A
:10108000849F600D211D822F762F6A2F11249F5778
:1010900050409AF0F1F088234AF0EE0FFF1FBB1F7B
:1010A000661F771F881F91505040A9F79E3F51053A
:1010B00080F00C9470080C94BB085F3FE4F3983EFA
:1010C000D4F3869577956795B795F795E7959F5FE4
:1010D000C1F7FE2B880F911D9695879597F9089576
:1010E00097F99F6780E870E060E008959FEF80ECDB
:1010F000089500240A94161617061806090608957E
:1011000000240A9412161306140605060895092EE3
:101110000394000C11F4882352F0BB0F40F4BF2B52
:1011200011F460FF04C06F5F7F4F8F4F9F4F089592
:1011300057FD9058440F551F59F05F3F71F0479588
:10114000880F97FB991F61F09F3F79F0879508956D
:10115000121613061406551FF2CF4695F1DF08C08C
:10116000161617061806991FF1CF869571056105A9
:1011700008940895E894BB2766277727CB0197F951
:101180000895F999FECF92BD81BDF89A992780B54F
:101190000895262FF999FECF1FBA92BD81BD20BDBB
:1011A0000FB6F894FA9AF99A0FBE019608950E9424
:1011B000E208A59F900DB49F900DA49F800D911DF6
:1011C00011240895A29FB001B39FC001A39F700D89
:1011D000811D1124911DB29F700D811D1124911D3F
:1011E00008955058BB27AA270E9409090C94870824
:1011F0000E94790838F00E94800820F039F49F3F5F
:1012000019F426F40C9476080EF4E095E7FB0C94A0
:101210007008E92F0E94980858F3BA1762077307FD
:101220008407950720F079F4A6F50C94BA080EF41B
:10123000E0950B2EBA2FA02D0B01B90190010C01E6
:10124000CA01A0011124FF27591B99F0593F50F4FE
:10125000503E68F11A16F040A22F232F342F442756
:10126000585FF3CF469537952795A795F04053954E
:10127000C9F77EF41F16BA0B620B730B840BBAF01E
:101280009150A1F0FF0FBB1F661F771F881FC2F789
:101290000EC0BA0F621F731F841F48F4879577959D
:1012A0006795B795F7959E3F08F0B0CF9395880F57
:1012B00008F09927EE0F9795879508950E94720977
:1012C0000C9487080E94800858F00E94790840F02A
:1012D00029F45F3F29F00C94700851110C94BB085D
:1012E0000C9476080E94980868F39923B1F355236B
:1012F00091F3951B550BBB27AA2762177307840729
:1013000038F09F5F5F4F220F331F441FAA1FA9F3BE
:1013100035D00E2E3AF0E0E832D091505040E695AC
:10132000001CCAF72BD0FE2F29D0660F771F881F0D
:10133000BB1F261737074807AB07B0E809F0BB0B00
:10134000802DBF01FF2793585F4F3AF09E3F510514
:1013500078F00C9470080C94BB085F3FE4F3983E5F
:10136000D4F3869577956795B795F7959F5FC9F7FD
:10137000880F911D9695879597F90895E1E0660F7E
:10138000771F881FBB1F621773078407BA0720F0F7
:10139000621B730B840BBA0BEE1F88F7E095089560
:1013A0000E94D7096894B1110C94BB0808950E945B
:1013B000A00888F09F5798F0B92F9927B751B0F03F
:1013C000E1F0660F771F881F991F1AF0BA95C9F7C9
:1013D00014C0B13091F00E94BA08B1E008950C94A5
:1013E000BA08672F782F8827B85F39F0B93FCCF358
:1013F000869577956795B395D9F73EF49095809546
:10140000709561957F4F8F4F9F4F08950E94DF0722
:1014100008F48FEF0895FA01EE0FFF1F30962105B3
:101420003105A1F16115710561F48038BFE39B07B7
:1014300049F168949038810561F08038BFEF9B07CF
:1014400041F099234AF5FF3FE1053105210519F1E6
:10145000E8940894E795D901AA2329F4AB2FBE2F6D
:10146000F85FD0F310C0FF5F70F4A695E0F7F7398E
:1014700050F019F0FF3A38F49F779F930DD00F90FA
:1014800007FC9058089546F00C94760860E070E0F0
:1014900080E89FE308954FE79F775F934F933F93D3
:1014A0002F930E94060B2F913F914F915F910E94C5
:1014B00003080C94630A29F416F00C9470080C9439
:1014C000BA080C9476080E94A008A8F39638A0F7F2
:1014D00007F80F92E8942BE33AEA48EB5FE70E94A3
:1014E00019080F920F920F924DB75EB70F920E949C
:1014F0004E0BE8E6F0E00E94950A4F915F91EF9164
:10150000FF91E595EE1FFF1F49F0FE57E068442765
:10151000EE0F441FFA95E1F74195550B0E94C80A5A
:101520000F9007FE0C94BC0A0895DF93CF931F938E
:101530000F93FF92EF92DF927B018C01689406C0BB
:10154000DA2EEF010E941608FE01E894A59125917C
:10155000359145915591A6F3EF010E940909FE01CD
:101560009701A801DA9469F7DF90EF90FF900F914F
:101570001F91CF91DF9108959B01AC0160E070E075
:1015800080E89FE30C945E090C9470080C94820B25
:101590000E94A008D8F39923C9F3940F511DA3F317
:1015A0009150504094F059F0882332F0660F771F25
:1015B000881F91505040C1F79E3F51052CF7880F6E
:1015C000911D9695879597F908955F3FACF0983EE9
:1015D0009CF0BB27869577956795B79508F4B16021
:1015E0009395C1F7BB0F58F711F460FFE8CF6F5F19
:1015F0007F4F8F4F9F4FE3CF0C94BB0816F00C9496
:10160000820B0C94760868940C9470080E94A008D1
:10161000A8F39923C1F3AEF3DF93CF931F930F93F6
:10162000FF92C92FDD2788232AF02197660F771FA5
:10163000881FDAF720E030E040E85FEB9FE388396D
:1016400020F0803E38F021968F770E94F208E0E982
:10165000F0E004C00E94F208EDEBF0E00E94950A71
:101660008B01BE01EC01FB2E6F5771097595771F39
:10167000880B990B0E94A40728E132E741E35FE35E
:101680000E941608AF2D9801AE01FF900F911F9197
:10169000CF91DF910E9409090C948708FA01DC01BF
:1016A000AA0FBB1F9B01AC01BF5728F42227332789
:1016B0004427507820C0B75190F4AB2F00244695B2
:1016C00037952795011CA395D2F3002071F0220FC6
:1016D000331F441FB395DAF30ED00C94F108613038
:1016E0007105A0E88A07B94630F49B01AC01662772
:1016F000772788279078309621F0208331834283A2
:10170000538308959F3F31F0915020F4879577954A
:101710006795B795880F911D9695879597F90895C8
:1017200097FB072E16F4009407D077FD09D00E948E
:10173000C30B07FC05D03EF4909581959F4F08950B
:10174000709561957F4F0895052E97FB1EF40094C8
:101750000E94BB0B57FD07D00E94D70B07FC03D09C
:101760004EF40C94BB0B50954095309521953F4F0E
:101770004F4F5F4F089590958095709561957F4F7D
:101780008F4F9F4F0895AA1BBB1B51E107C0AA1F93
:10179000BB1FA617B70710F0A61BB70B881F991F12
:1017A0005A95A9F780959095BC01CD010895A1E2C5
:1017B0001A2EAA1BBB1BFD010DC0AA1FBB1FEE1FCB
:1017C000FF1FA217B307E407F50720F0A21BB30B16
:1017D000E40BF50B661F771F881F991F1A9469F792
:1017E00060957095809590959B01AC01BD01CF01EE
:1017F0000895EE0FFF1F0590F491E02D0994F894E1
:02180000FFCF18
:10180200000000002C01A000CD007901FE00DC00E8
:10181200F00050726F6A65637420636F6D6D656E60
:10182200746172793A2050726573732027582720A9
:10183200746F20657363617065206F7220414F4B36
:101842000D0A00523F20202020000D0A5043425F23
:101852004120286D696E695F4F532920646576695E
:1018620063652063616C6962726174696E67000D01
:101872000A4F534343414C20757365722076616C65
:101882007565202020000D0A63616C6962726174C3
:10189200696F6E206572726F7220200020204F4B9C
:1018A2000D0A000D0A456E74657220706F736974BB
:1018B200697665206E756D62657273200D0A262049
:1018C2007465726D696E61746520776974682052FF
:1018D200657475726E206B65792E0D0A546F2064E3
:1018E2006973706C617920696E746572696D2072BA
:1018F20065756C7473207072657373205357312051
:101902006265666F7265202D63722D2E0D0A50720C
:101912006573732073773120747769636520746F00
:1019220020726573756D6520656E746572696E6788
:10193200206E756D626572732E0D0A4E6F74653A74
:10194200205A65726F20656E7472792069732069FE
:10195200676E6F7265642E0D0A5072657373205341
:10196200573320746F207061757365207468652029
:10197200646973706C61790D0A50726573732072B9
:101982006573657420746F207265706561742E0DC5
:021992000A0049
:00000001FF
