:100000000C9434000C9446000C9446000C9446006A
:100010000C9446000C9446000C9446000C94460048
:100020000C9446000C9446000C9446000C94460038
:100030000C9446000C9446000C9446000C94460028
:100040000C9446000C9446000C9446000C94460018
:100050000C9446000C9446000C9446000C94460008
:100060000C9446000C94460011241FBECFEFD8E03C
:10007000DEBFCDBF21E0A0E0B1E001C01D92A13004
:10008000B207E1F70E9448000C9429010C9400008B
:1000900080E880936100C1E0C09361008CEF93E041
:1000A0000E94EB008093000180FF07C0C093000115
:1000B00060E085EF93E00E94F300A89584B7877F06
:1000C00084BF80916000886180936000109260001E
:1000D00082E08093BA0080917C00806480937C00F1
:1000E00085B78F7E85BF8AB18B778AB98BB18468DB
:1000F0008BB922982A9A85B78F7E85BF87B1887F72
:1001000087B98AB1877C8AB988B1876088B98BB191
:1001100088638BB984B1836084B9299828982FEFBC
:1001200050E782E0215050408040E1F700C00000DD
:10013000289A60EA70E04CEFC2EFD5E020E431E0AD
:100140001FEFE3E0F0E080916F00816080936F002B
:1001500040938500C0938400D0938100D901A61BF1
:10016000B70BB09918C0289B0BC0289890E080E08E
:10017000A817B907B4F350E25A95F1F70196F8CFF2
:10018000289A90E080E0681779075CF350E25A956E
:10019000F1F70196F8CFB09A85B18C7F85B940937D
:1001A0008500C093840016BBD093810086B388235A
:1001B000E9F3B09A109281001A99C5CFCB01880F4C
:1001C000991FBF010E9401016130710509F0BBCF89
:1001D00060EA70E0B8CFF999FECF92BD81BDF89A80
:1001E000992780B50895262FF999FECF1FBA92BDA1
:1001F00081BD20BD0FB6F894FA9AF99A0FBE019608
:10020000089597FB072E16F4009407D077FD09D0C8
:100210000E94150107FC05D03EF4909581959F4FF3
:100220000895709561957F4F0895AA1BBB1B51E1FE
:1002300007C0AA1FBB1FA617B70710F0A61BB70B56
:10024000881F991F5A95A9F780959095BC01CD01FB
:060250000895F894FFCFB1
:00000001FF
