:100000000C9494000C94BC000C94BC000C94BC00A8
:100010000C94BC000C94BC000C9439050C94BC00EE
:100020000C94BC000C94BC000C94BC000C94BC0060
:100030000C94BC000C94BC000C94BC000C94BC0050
:100040000C9497040C94BC000C9407050C94E104E8
:100050000C94BC000C94BC000C94BC000C94BC0030
:100060000C94BC000C94BC0007634236B79BD8A725
:100070001A39685618AEBAAB558C1D3CB7CC5763CD
:10008000BD6DEDFD753EF6177231BF000000803F7B
:1000900008000000BE922449123EABAAAA2ABECD97
:1000A000CCCC4C3E00000080BEABAAAAAA3E000009
:1000B0000000BF000000803F000000000008417801
:1000C000D3BB4387D1133D190E3CC3BD4282AD2B38
:1000D0003E68EC8276BED98FE1A93E4C80EFFFBE30
:1000E00001C4FF7F3F00000000004E414E494E49D1
:1000F0005459494E46CDCCCC3D0AD7233C17B7D1F5
:100100003877CC2B329595E6241FB14F0A0000209A
:10011000410000C84200401C4620BCBE4CCA1B0E19
:100120005AAEC59D7400490511241FBECFEFD8E01B
:10013000DEBFCDBF23E0AAEAB2E001C01D92A73521
:10014000B207E1F712E0A0E0B1E0EAE7F2E202C0B4
:1001500005900D92AA3AB107D9F710E0C4E9D0E0B2
:1001600004C02197FE010E943511C339D107C9F798
:100170000E9476050C943B110C940000AF92BF9244
:10018000CF92DF92EF92FF920F931F93CF93DF9363
:100190006C017B018B01040F151FEB015E01AE1892
:1001A000BF08C017D10759F06991D601ED91FC91B4
:1001B0000190F081E02DC6010995892B79F7C501E1
:1001C000DF91CF911F910F91FF90EF90DF90CF9033
:1001D000BF90AF900895FC01538D448D252F30E0E2
:1001E000842F90E0821B930B541710F0CF96089544
:1001F00001970895FC01918D828D981761F0A28D71
:10020000AE0FBF2FB11D5D968C91928D9F5F9F7336
:10021000928F90E008958FEF9FEF0895FC01918DEC
:10022000828D981731F0828DE80FF11D858D90E059
:1002300008958FEF9FEF0895FC01918D228D892FF6
:1002400090E0805C9F4F821B91098F7399270895DE
:10025000FC01A48DA80FB92FB11DA35ABF4F2C913B
:10026000848D90E001968F739927848FA689B78932
:100270002C93A089B1898C91837080648C93938D29
:10028000848D981306C00288F389E02D80818F7DCC
:1002900080830895EF92FF920F931F93CF93DF9384
:1002A000EC0181E0888F9B8D8C8D98131AC0E889B2
:1002B000F989808185FF15C09FB7F894EE89FF8981
:1002C0006083E889F98980818370806480839FBF1F
:1002D00081E090E0DF91CF911F910F91FF90EF901F
:1002E0000895F62E0B8D10E00F5F1F4F0F7311272F
:1002F000E02E8C8D8E110CC00FB607FCFACFE8896A
:10030000F989808185FFF5CFCE010E942801F1CFC8
:10031000EB8DEC0FFD2FF11DE35AFF4FF0829FB7DD
:10032000F8940B8FEA89FB8980818062CFCFCF93CD
:10033000DF93EC01888D8823B9F0AA89BB89E8890D
:10034000F9898C9185FD03C0808186FD0DC00FB6B3
:1003500007FCF7CF8C9185FFF2CF808185FFEDCF31
:10036000CE010E942801E9CFDF91CF9108958093BB
:10037000BB0084E88093BC008091BC0087FFFCCF69
:1003800008958093BB0084EC8093BC008091BC00F6
:1003900087FFFCCF0895CF92DF92EF92FF920F93E9
:1003A0001F93CF93DF93C82F062F142FD52F84E4EC
:1003B0008093BC008091BC0087FFFCCF8091BB0084
:1003C0008C2F0E94C101802F0E94C101E12EFD2EC1
:1003D00010E000E00C2E000CDD0B6E0181E0C81A6D
:1003E000D1080C171D0774F4F70181917F01C01625
:1003F000D10629F40E94B7010F5F1F4FF2CF0E9470
:10040000C101FACF80E88093BC00DF91CF911F91AA
:100410000F91FF90EF90DF90CF900895FC01019035
:100420000020E9F73197AF01481B590BBC0188EB5D
:1004300092E00C94BE00009711F00C940E0290E034
:1004400080E008958F929F92AF92BF920F931F9377
:10045000CF93DF93CDB7DEB7A1970FB6F894DEBF89
:100460000FBECDBF19A2423008F44AE08E010F5DE5
:100470001F4F842E912CB12CA12CA50194010E9418
:10048000E010E62FB901CA01EA30D4F4E05DD801EA
:10049000EE938D01232B242B252B79F7CD010E9480
:1004A0001B02A1960FB6F894DEBF0FBECDBFDF9141
:1004B000CF911F910F91BF90AF909F908F90089513
:1004C000E95CE5CF4F925F926F927F928F929F92FD
:1004D000AF92BF92CF92DF92EF92FF920F931F9352
:1004E000CF93DF936B017C01B42ED22FDC01CB01C3
:1004F000009720E8A2072FE7B20779F482E191E0A4
:100500000E941B0288E199E00FB6F894A8958093A9
:1005100060000FBE90936000FFCF009720E8A20715
:100520002FEFB20779F486E291E00E941B0288E186
:1005300099E00FB6F894A895809360000FBE909351
:100540006000FFCF0097A105B10579F48AE391E03F
:100550000E941B0288E199E00FB6F894A895809359
:1005600060000FBE90936000FFCF0097A105B048D8
:1005700079F48EE491E00E941B0288E199E00FB6C5
:10058000F894A895809360000FBE90936000FFCF11
:1005900020E030E0A901C7010E949A0C1BE287FF0E
:1005A00005C0F7FAF094F7F8F0941DE2C0E020E0FF
:1005B00030E040E85FE3C701B6010E943D0F87FDD0
:1005C0000CC020E030E040E251E4C701B6010E94D7
:1005D000950E6B017C01CF5FEACF20E030E040E870
:1005E0005FE3C701B6010E949A0C181664F020E080
:1005F00030E040E251E4C701B6010E94000D6B01FA
:100600007C01C150EACF1D3221F4F7FAF094F7F8DB
:10061000F094A7019601C701B6010E94920F8823AA
:10062000C9F182E691E00E940E02CC23F1F065E46C
:1006300088EB92E00E944A01CC2ECC0FDD08EE0838
:10064000FF084AE0C701B601F7FE0DC06DE288EB76
:1006500092E00E944A0166277727CB016C197D0939
:100660008E099F094AE00E9422026D2F88EB92E0DA
:10067000DF91CF911F910F91FF90EF90DF90CF907E
:10068000BF90AF909F908F907F906F905F904F90B2
:100690000C944A0126013701E89477F82FEF3FEFD9
:1006A0004FE75FE7C301B2010E94920F81110DC0B5
:1006B0002FEF3FEF4FE75FE7C301B2010E949A0CB3
:1006C00018161CF486E691E0AECF2FEF3FEF4FE710
:1006D0005FE4C701B6010E943D0F18161CF48AE6BC
:1006E00091E0A1CF2FEF3FEF4FE75FECC701B601DD
:1006F0000E949A0C87FDF3CF20E030E0A901C701EA
:10070000B6010E949A0C87FF09C06DE288EB92E067
:100710000E944A01F7FAF094F7F8F0941B2D60E07C
:1007200070E080E09FE300E020E030E040E251E450
:100730000E94950E0F5F0B15B8F3A70196010E945A
:10074000290E6B017C010E940E0F4B015C010E947F
:100750009F0C9B01AC01C701B6010E94280E6B01E2
:100760007C014AE0C501B4010E9422026EE288EBDE
:1007700092E00E944A01115008F457CF20E030E087
:1007800040E251E4C701B6010E94000D4B015C013B
:100790000E940E0F6B01F12CE12C4AE0C701B6015B
:1007A0000E942202C701B6010E949F0C9B01AC016E
:1007B000C501B4010E94280E6B017C01DCCFEF92D1
:1007C000FF920F931F93CF93DF938C0188EB92E0FE
:1007D0000E9497017801D0E0C0E02FB7F894809193
:1007E000B4029091B502A091B602B091B7022FBFAA
:1007F0008093C0029093C102A093C202B093C3023F
:1008000088EB92E00E94FA0097FF84C02FB7F8941B
:100810008091B4029091B502A091B602B091B70256
:100820002FBF4091C0025091C1026091C2027091ED
:10083000C302841B950BA60BB70B4091BC025091D1
:10084000BD026091BE027091BF0284179507A60792
:10085000B707B0F28FE99FE00197F1F700C0000001
:10086000D801AC0FBD1FBD019D0190E080E0C8170D
:10087000D90729F0F90142919F01483081F0880F92
:10088000991F30E020E08217930759F0C217D30771
:1008900041F0FB011292BF012F5F3F4FF4CF019651
:1008A000E6CF90E080E0AE01415051098C179D07E2
:1008B0003CF5F8012081283061F49F01201B310BA9
:1008C00024173507B4F781818193108290E080E08E
:1008D000F4CFE80FF91F2081283081F4FC01319713
:1008E000E00FF11F9C012417350744F482818193A6
:1008F00011822F5F3F4F90E080E0F5CF0196D6CF79
:100900001C92C801DF91CF911F910F91FF90EF9042
:100910000C94BF0A8D30910509F49CCFF7018193A7
:100920007F012196CE31D10509F057CF93CF1F9289
:100930000F920FB60F9211242F933F938F939F9393
:10094000AF93BF938091B4029091B502A091B6028B
:10095000B091B7023091B30223E0230F2D3758F541
:100960000196A11DB11D2093B3028093B402909310
:10097000B502A093B602B093B7028091AF029091F6
:10098000B002A091B102B091B2020196A11DB11DB9
:100990008093AF029093B002A093B102B093B202E1
:1009A000BF91AF919F918F913F912F910F900FBE6B
:1009B0000F901F90189526E8230F0296A11DB11DD8
:1009C000D2CF1F920F920FB60F9211242F933F9305
:1009D0004F935F936F937F938F939F93AF93BF9347
:1009E000EF93FF9388EB92E00E942801FF91EF9133
:1009F000BF91AF919F918F917F916F915F914F9137
:100A00003F912F910F900FBE0F901F9018951F923E
:100A10000F920FB60F9211242F938F939F93EF9302
:100A2000FF93E091C802F091C9028081E091CE026B
:100A3000F091CF0282FD1BC090818091D1028F5F27
:100A40008F732091D202821741F0E091D102F0E041
:100A5000E854FD4F958F8093D102FF91EF919F91C4
:100A60008F912F910F900FBE0F901F90189580813E
:100A7000F4CF1F920F920FB60F92112488E199E0E4
:100A80000FB6F894A895809360000FBE9093600015
:100A9000FFCFE8EBF2E01382128288EE93E0A0E051
:100AA000B0E084839583A683B78384E091E091834B
:100AB000808385EC90E09587848784EC90E097872D
:100AC000868780EC90E0918B808B81EC90E0938B1B
:100AD000828B82EC90E0958B848B86EC90E0978BF8
:100AE000868B118E128E138E148E0895CF93DF9302
:100AF000CDB7DEB7C254D1090FB6F894DEBF0FBE32
:100B0000CDBF80E88093610011E0109361008CEF0D
:100B100093E00E94C10D8093AE0280FF07C0109346
:100B2000AE0260E085EF93E00E94C90D8091AE02B5
:100B300083FF03C081E08093AD02A89584B7877FCF
:100B400084BF809160008861809360001092600093
:100B500092E09093BA0080917C00806480937C0046
:100B600085B78F7E85BF8AB18B778AB98BB1846850
:100B70008BB922982A9A85B78F7E85BF87B1887FE7
:100B800087B98AB1877C8AB988B1876088B98BB107
:100B900088638BB984B1836084B929982898E091DF
:100BA000C802F091C9029083E091C402F091C5029D
:100BB0001082E091C602F091C70280E1808310921A
:100BC000D002E091CC02F091CD0286E08083E091EA
:100BD000CA02F091CB02808180618083E091CA02D9
:100BE000F091CB02808188608083E091CA02F0910D
:100BF000CB02808180688083E091CA02F091CB02B1
:100C000080818F7D8083789486EF93E00E94C10D70
:100C10008F3F29F460E086EF93E00E94C90D86EFD4
:100C200093E00E94C10D8034F1F40AE010E082E606
:100C300092E00E941B0201501109C9F78EE691E073
:100C40000E941B0288EB92E00E941C01892B11F488
:100C5000A895F8CF88EB92E00E94FA0061E486EF55
:100C600093E00E94C90D86EF93E00E94C10D86FFBC
:100C700017C0682F606886EF93E00E94C90D08E0F6
:100C800010E082E692E00E941B0201501109C9F7B0
:100C90008FE39CE90197F1F700C000000C94003647
:100CA0001A993EC04A993CC019A280E69AEE1A9958
:100CB00002C00197E1F704E010E03CECF32E43E3BF
:100CC000E42E52EBD52E65E0C62E1A9929C089A1D3
:100CD000082E000C990B0196B8010E94CC1089A334
:100CE000882399F3AE014F5D5F4F61E581E00E947B
:100CF000CB01F982FA82EB82EC82AE014F5F5F4F4B
:100D000061E084E00E94CB0182E390E0D6BCC5BCE8
:100D1000A89BFECFA89A15BCA8950197B9F7D5CF87
:100D20004A9922C34F9920C38FE991E00E941B0288
:100D300010E000E022E3E22EF12C88EB92E00E942A
:100D40001C01892B09F09CC20F5F1F4FA89501342D
:100D50009FE119072CF0A1E0EA1AF10810E000E089
:100D6000E114F10451F7E0CF20E030E040E85FE328
:100D7000B701C8010E949A0C87FF17C01EAA1DAABE
:100D80009701A801B701C8010E94290E7B018C01BF
:100D9000ADA9BEA91197BEABADAB20E030E040E8F5
:100DA0005FE30E949A0C87FDEBCF29E046E0B70194
:100DB000C8010E9462028DA99EA9092E000CAA0BEF
:100DC000BB0B8BAF9CAFADAFBEAF2AE0AE014F5FA8
:100DD0005F4FBC01CD010E94CE0ACE0101960E9458
:100DE0000E026DE088EB92E00E944A0120E030E0C4
:100DF00040E85FE3B701C8010E94280E6B017C0147
:100E000022E739EF4FE75FE30E943D0F18160CF41D
:100E1000AEC12CEA35EC47E257E3C701B6010E94A8
:100E20009A0C87FDADC101E010E020E030E040E821
:100E30005FE3C701B6010E94000D2B013C01B80120
:100E4000012E000C880B990B0E94A10C4B015C0138
:100E5000AC019B01C301B2010E94950E68A77CA75B
:100E600088AB9CAB0130110509F478C100FF6CC15F
:100E70009B01AC01B1018EA19FA10E94290E1B0113
:100E80008EA39FA32FAD21963FAD219722964FAD04
:100E9000229723965FAD23978EA19FA10E94280ED3
:100EA000F62FE72FDC0191014EA15FA16F2F7E2F5E
:100EB000CD010E94950E2B013C0125E93FEB46ED4B
:100EC00053EB0E943D0F181654F425E93FEB46ED15
:100ED00053E3C301B2010E949A0C87FD1DC028A5EF
:100EE0003CA548A95CA9C501B4010E94000D9B0165
:100EF000AC010F5F1F4F2FAE21963FAE21979EA1F1
:100F000022969FAF2297AFA12396AFAF23970938C0
:100F1000B3E11B0709F08DCF6BAD7CAD8DAD9EAD00
:100F20000E94A10C28E132E741E35FE30E94000D3B
:100F300091014EA15FA10E94290E6B017C0189E6FF
:100F400092E00E941B022DE045E0C701B6010E941D
:100F5000620289E792E00E941B02CE0101960E9484
:100F6000DF0368A779A78AA79BA72DE045E00E9429
:100F7000620228A539A54AA55BA5C701B6010E9452
:100F8000000D4B015C01A895809160008861809301
:100F90006000BEE4B093600020E030E0A901C5012C
:100FA000B4010E949A0C87FFF4C0B7FAB094B7F866
:100FB000B09421E02CAB81E090E0A0E0B0E088AB01
:100FC00099ABAAABBBAB612C712C00E81FE380E0AE
:100FD00090E0A0E8BFE38CA79DA7AEA7BFA72CA574
:100FE0003DA54EA55FA5C501B4010E94000D6B0192
:100FF0007C0168A979A98AA99BA90E94A10C9B01DF
:10100000AC01C701B6010E94950E6CA77DA78EA703
:101010009FA788A999A9AAA9BBA90196A11DB11D3D
:1010200088AB99ABAAABBBAB9301A8016CA57DA51E
:101030008EA59FA50E94290E6B017C019301A8013A
:101040000E94280EA70196010E94950E2B013C01DB
:1010500025E93FEB46ED53EB0E943D0F18160CF0CF
:101060009AC025E93FEB46ED53E3C301B2010E946C
:101070009A0C87FF90C08091AE0283FF03C081E08D
:101080008093AD02A89584B7877F84BF809160006C
:10109000886180936000109260009CA9992351F0B0
:1010A000A701960160E070E080E89FE30E94950E42
:1010B0006B017C0186E892E00E941B022DE045E076
:1010C000C701B6010E94620287E992E00E941B02FA
:1010D00028A539A54AA55BA56FA978AD89AD9AADBC
:1010E0000E94420F2DE045E00E94620220E030E0C5
:1010F000A901C701B6010E949A0C0BE287FF05C047
:10110000F7FAF094F7F8F0940DE220E030E040E8D0
:101110005FE3C701B6010E943D0F4601570110E091
:1011200087FD3CC020E030E040E251E4C501B4015D
:101130000E94950E4B015C011F5F20E030E040E80B
:101140005FE30E943D0FECCF28A53CA548A95CA910
:10115000B1018EA19FA10E94280E91CEF8A5ECA509
:10116000A8A9BCA92F2E3E2EAEA3BFA39CCE08E1FA
:10117000202E82E7382E21E32EA38FE38FA3CCCE3F
:10118000BDEB2B2E17E3312E96E89EA3A5E3AFA36C
:10119000C3CE1CAA10CF3601870121CF2DEC3CEC29
:1011A0004CEC5DE3C701B6010E949A0C87FF0AC0B0
:1011B0002DEC3CEC4CEC5DE3C501B4010E949A0CB3
:1011C00087FD25C0412C512C32014394C501B40147
:1011D0000E94070F0E94A10C9B01AC01C501B40144
:1011E0000E949A0C8823F9F020E030E040E251E4BC
:1011F000C501B4010E94000D4B015C01AAE0B0E002
:10120000A30192010E94D70D2B013C01DFCF20E00A
:1012100030E040E251E4C501B4010E94000D4B01F1
:101220005C011150C5CF0D3221F4B7FAB094B7F874
:10123000B094C501B4010E94070F6B017C01A0ECC2
:10124000FA1AF7FC07C0411451046104B0E47B06AC
:101250000CF4D8C022E030E040E050E00E940211DF
:10126000CA01B901759467945794479497FD84C156
:1012700077FECAC00DE2C9C0A0E3A093AA025AC17A
:1012800088EB92E00E94FA008F7D823509F04CCD08
:1012900082E692E00E941B0284E48093BC0080916D
:1012A000BC0087FFFCCF8091BB0080E00E94C101A1
:1012B00082E50E94B70180E88093BC0086EA91E055
:1012C0000E941B0284E48093BC008091BC0087FFD5
:1012D000FCCF8091BB0084EC8093BC008091BC006B
:1012E00087FFFCCFF090BB0084EC8093BC00809122
:1012F000BC0087FFFCCF0091BB0010E0102F00273F
:1013000084E88093BC008091BC0087FFFCCF809173
:10131000BB00080F111D80E88093BC008BEC91E0AE
:101320000E941B024AE0BE016F5F7F4F8F2D90E04D
:101330000E94C30ACE0101960E941B0282EE91E038
:101340000E941B024AE0BE016F5F7F4FC8010E94EE
:10135000C30ACE0101960E941B020E3E124024F4E5
:1013600088EF91E00E941B028091AD02811104C0C0
:101370008FEF91E00E941B028091AD02882331F033
:101380001092AD028FE292E00E941B0285E692E08D
:101390000E941B02CE0101960E94DF036FAB78AF63
:1013A00089AF9AAF29E046E00E94620220E030E077
:1013B00040E85FE36FA978AD89AD9AAD0E943D0F1B
:1013C000EFA8F8AC09AD1AAD87FDCECC1EAA1DAAB8
:1013D00020E030E040E050E4B701C8010E943D0F3A
:1013E00087FDC2CC20E030E040E05FE3B701C801F8
:1013F0000E94000D7B018C018DA99EA901969EABD8
:101400008DABE6CF97FD36CF0BE2EEE0EE2EF12C62
:10141000812C912C5401660F771F881F991FA301FF
:1014200092010E9402116B01F82FE92F232B242B2C
:10143000252B81F081E090E00E2C02C0880F991FCF
:101440000A94E2F7092E000CAA0BBB0B882A992AF2
:10145000AA2ABB2AB6018F2F9E2F21E0E21AF1089B
:10146000D0F65401992488244FE0E42EF12CD12C9D
:10147000C12C660F771F881F991FA30192010E943C
:101480000211B62FA72FF82FE92F232B242B252B62
:1014900051F081E090E00E2C02C0880F991F0A9451
:1014A000E2F7C82AD92A6B2F7A2F8F2F9E2FB1E00F
:1014B000EB1AF108F0F68C0C9D1CA11CB11C0D322E
:1014C00041F4B094A09490948094811C911CA11C30
:1014D000B11CB9A2AAA29BA28CA21DA3AE014F5D12
:1014E0005F4F6BE485E00E94CB0180916B0080939D
:1014F000AC0280916D008093AB0280E38093AA02DE
:1015000080916D008478843821F080916B0082FF97
:101510000AC080916B008B7F80936B0080916D007F
:101520008B7780936D0004E410E81A99A5CE91E3BF
:101530009093AA024A9B02C04F9903C0B2E3B093B2
:10154000AA020093BC008091BC0087FFFCCF809171
:10155000BB008091AA020E94B7011093BC00809149
:10156000AA02823311F78091AC0280936B008091C4
:10157000AB0280936D000ACF77FC46CF7BCE662707
:1015800077270C94190BBB274A3031F4992322F4A6
:10159000BDE2909581959F4F0C94000BBB272A309C
:1015A00051F4992342F4BDE2909580957095619530
:1015B0007F4F8F4F9F4F0C94DE0ABB27FA01A62F57
:1015C0006217710581059105330B30FB66F0AA2780
:1015D000660F771F881F991FAA1FA21710F0A21B62
:1015E00063953850A9F7A05DAA3308F0A95DA193CF
:1015F00036F7B111B1931082CA010C948A0CBB2743
:10160000FB015527AA27880F991FAA1FA41710F0BE
:10161000A41B83955051B9F7A05DAA3308F0A95DCA
:10162000A193009779F7B111B1931192CB010C946A
:101630008A0CB0E0A0E0EFE1FBE00C94E80D5C0167
:101640007B016115710519F0DB018D939C93850178
:101650000F5F1F4FF501D0818D2F90E00E94690C24
:101660006C01892BB9F5DD32B9F50F5F1F4FD5013C
:101670001196DC91C1E05801F1E0AF1AB10843E0E6
:1016800050E062EF70E0C5010E94720C892B69F591
:10169000680182E0C80ED11C45E050E06DEE70E0BC
:1016A000C6010E94720C892B21F4680197E0C90ED3
:1016B000D11CE114F10419F0D701CD92DC9260E065
:1016C00070E080E89FEFC111FFC060E070E080E84B
:1016D0009FE7FAC05801BBCFDB3229F485010E5FCA
:1016E0001F4FF501D181C0E0C6CF43E050E06AEE64
:1016F00070E0C5010E94720C892BE9F0F80110E03E
:1017000000E020E030E0A9015F01B0ED8B2E8D0EEE
:1017100089E08815C8F19C2E689491F88C2F887008
:10172000C2FF16C0811102C00F5F1F4F3196D50155
:10173000DC91C92DE9CFE114F10429F00E5F1F4FB0
:10174000F7011183008360E070E080EC9FE7BCC08C
:10175000882311F001501109A5E0B0E00E94D70DD7
:101760009B01AC01220F331F441F551F280D311D53
:10177000411D511D283999E93907490799E1590750
:10178000A8F2C6609C2ED2CFAEEF8A1206C0C3FD6F
:101790003CC09C2E689493F8C9CFDF7DD534A9F561
:1017A00080818D3239F4C061DF011296818162E05F
:1017B00070E006C0DF018B32C1F3119661E070E08A
:1017C00080535D01A61AB70A8A30F8F4E0E8CE1615
:1017D000ECE0DE065CF4B601660F771F660F771F3C
:1017E000C60ED71ECC0CDD1CC80ED11C5D01FFEF50
:1017F000AF1ABF0A8C9180538A30A8F1C4FF03C08E
:10180000D194C194D1080C0D1D1DC1FF09C0E11474
:10181000F10431F081E0A81AB108D701AD92BC9271
:10182000CA01B9010E949F0CC370C33009F49058DB
:101830004B015C0120E030E0A9010E949A0C882352
:1018400009F440C0C1E2D1E017FF05C01195019530
:101850001109C9E0D1E06E01B8E1CB1AD10880E2EC
:10186000E82EF12C0FC0D501B1CFFE0125913591A5
:10187000459154910E191F09C501B4010E94000D34
:101880004B015C01D501C4010E151F0574F72497A7
:10189000F594E794CC16DD06A9F78A2F880F8B2FD5
:1018A000881F8F3F49F020E030E0A901C501B40155
:1018B0000E949A0C811106C082E290E09093560338
:1018C00080935503C501B401CDB7DEB7ECE00C94AD
:1018D000040E91110C946D0D803219F089508550D1
:1018E000C8F70895FB01DC014150504088F08D910C
:1018F00081341CF08B350CF4805E659161341CF0F2
:101900006B350CF4605E861B611171F3990B0895C1
:10191000881BFCCFDC01FC01672F71917723E1F775
:10192000329704C07C916D9370836291AE17BF07AC
:10193000C8F308950E94DC0C08F481E00895E8944F
:1019400009C097FB3EF490958095709561957F4F07
:101950008F4F9F4F9923A9F0F92F96E9BB279395B5
:10196000F695879577956795B795F111F8CFFAF4C5
:10197000BB0F11F460FF1BC06F5F7F4F8F4F9F4FF6
:1019800016C0882311F096E911C0772321F09EE854
:10199000872F762F05C0662371F096E8862F70E0BA
:1019A00060E02AF09A95660F771F881FDAF7880F94
:1019B0009695879597F90895990F0008550FAA0BEA
:1019C000E0E8FEEF16161706E807F907C0F0121652
:1019D0001306E407F50798F0621B730B840B950B55
:1019E00039F40A2661F0232B242B252B21F40895AA
:1019F0000A2609F4A140A6958FEF811D811D089547
:101A00000E94130D0C94870D0E94790D38F00E94EE
:101A1000800D20F0952311F00C94700D0C94760D30
:101A200011240C94BB0D0E94980D70F3959FC1F387
:101A3000950F50E0551F629FF001729FBB27F00D7C
:101A4000B11D639FAA27F00DB11DAA1F649F6627D1
:101A5000B00DA11D661F829F2227B00DA11D621F20
:101A6000739FB00DA11D621F839FA00D611D221FDA
:101A7000749F3327A00D611D231F849F600D211DBE
:101A8000822F762F6A2F11249F5750409AF0F1F041
:101A900088234AF0EE0FFF1FBB1F661F771F881FAA
:101AA00091505040A9F79E3F510580F00C94700D65
:101AB0000C94BB0D5F3FE4F3983ED4F38695779585
:101AC0006795B795F795E7959F5FC1F7FE2B880F50
:101AD000911D9695879597F90895992788270895D8
:101AE00097F99F6780E870E060E008959FEF80ECD1
:101AF000089500240A941616170618060906089574
:101B000000240A9412161306140605060895092ED9
:101B10000394000C11F4882352F0BB0F40F4BF2B48
:101B200011F460FF04C06F5F7F4F8F4F9F4F089588
:101B300057FD9058440F551F59F05F3F71F047957E
:101B4000880F97FB991F61F09F3F79F08795089563
:101B5000121613061406551FF2CF4695F1DF08C082
:101B6000161617061806991FF1CF8695710561059F
:101B700008940895E894BB2766277727CB0197F947
:101B80000895F999FECF92BD81BDF89A992780B545
:101B90000895262FF999FECF1FBA92BD81BD20BDB1
:101BA0000FB6F894FA9AF99A0FBE019608950E941A
:101BB000190EA59F900DB49F900DA49F800D911DAF
:101BC000112408952F923F924F925F926F927F92CD
:101BD0008F929F92AF92BF92CF92DF92EF92FF923D
:101BE0000F931F93CF93DF93CDB7DEB7CA1BDB0BE9
:101BF0000FB6F894DEBF0FBECDBF09942A8839888E
:101C000048885F846E847D848C849B84AA84B98494
:101C1000C884DF80EE80FD800C811B81AA81B981A0
:101C2000CE0FD11D0FB6F894DEBF0FBECDBFED01B4
:101C30000895A29FB001B39FC001A39F700D811DA5
:101C40001124911DB29F700D811D1124911D0895C5
:101C50005058BB27AA270E94400E0C94870D0E9463
:101C6000790D38F00E94800D20F039F49F3F19F46F
:101C700026F40C94760D0EF4E095E7FB0C94700DB1
:101C8000E92F0E94980D58F3BA176207730784076B
:101C9000950720F079F4A6F50C94BA0D0EF4E095B2
:101CA0000B2EBA2FA02D0B01B90190010C01CA0116
:101CB000A0011124FF27591B99F0593F50F4503EC1
:101CC00068F11A16F040A22F232F342F4427585FB3
:101CD000F3CF469537952795A795F0405395C9F7CB
:101CE0007EF41F16BA0B620B730B840BBAF0915083
:101CF000A1F0FF0FBB1F661F771F881FC2F70EC022
:101D0000BA0F621F731F841F48F4879577956795F4
:101D1000B795F7959E3F08F0B0CF9395880F08F0E0
:101D20009927EE0F9795879508950E94A90E0C9418
:101D3000870D0E94800D58F00E94790D40F029F423
:101D40005F3F29F00C94700D51110C94BB0D0C9455
:101D5000760D0E94980D68F39923B1F3552391F302
:101D6000951B550BBB27AA2762177307840738F00A
:101D70009F5F5F4F220F331F441FAA1FA9F335D067
:101D80000E2E3AF0E0E832D091505040E695001C1B
:101D9000CAF72BD0FE2F29D0660F771F881FBB1FD5
:101DA000261737074807AB07B0E809F0BB0B802DB3
:101DB000BF01FF2793585F4F3AF09E3F510578F0DF
:101DC0000C94700D0C94BB0D5F3FE4F3983ED4F37C
:101DD000869577956795B795F7959F5FC9F7880FB3
:101DE000911D9695879597F90895E1E0660F771F05
:101DF000881FBB1F621773078407BA0720F0621B96
:101E0000730B840BBA0BEE1F88F7E09508950E94C0
:101E10000E0F6894B1110C94BB0D08950E94A00D93
:101E200088F09F5798F0B92F9927B751B0F0E1F09B
:101E3000660F771F881F991F1AF0BA95C9F714C04B
:101E4000B13091F00E94BA0DB1E008950C94BA0D32
:101E5000672F782F8827B85F39F0B93FCCF3869584
:101E600077956795B395D9F73EF4909580957095E1
:101E700061957F4F8F4F9F4F08950E94DC0C08F4AF
:101E80008FEF0895FA01EE0FFF1F309621053105FF
:101E9000A1F16115710561F48038BFE39B0749F139
:101EA00068949038810561F08038BFEF9B0741F05E
:101EB00099234AF5FF3FE1053105210519F1E89421
:101EC0000894E795D901AA2329F4AB2FBE2FF85F18
:101ED000D0F310C0FF5F70F4A695E0F7F73950F02B
:101EE00019F0FF3A38F49F779F930DD00F9007FCBD
:101EF0009058089546F00C94760D60E070E080E80C
:101F00009FE308954FE79F775F934F933F932F93FE
:101F10000E9442102F913F914F915F910E94000DBE
:101F20000C949F0F0E94DC0C880B990B089529F4E8
:101F300016F00C94700D0C94BA0D0C94760D0E9452
:101F4000A00DA8F39638A0F707F80F92E8942BE3BA
:101F50003AEA48EB5FE70E94160D0F920F920F923C
:101F60004DB75EB70F920E948A10E8E6F0E00E943B
:101F7000D10F4F915F91EF91FF91E595EE1FFF1FFC
:101F800049F0FE57E0684427EE0F441FFA95E1F749
:101F90004195550B0E9404100F9007FE0C94F80F0A
:101FA0000895DF93CF931F930F93FF92EF92DF92E9
:101FB0007B018C01689406C0DA2EEF010E94130D9C
:101FC000FE01E894A5912591359145915591A6F38F
:101FD000EF010E94400EFE019701A801DA9469F713
:101FE000DF90EF90FF900F911F91CF91DF910895B7
:101FF0009B01AC0160E070E080E89FE30C94950EDB
:102000000C94700D0C94BE100E94A00DD8F399236F
:10201000C9F3940F511DA3F39150504094F059F01F
:10202000882332F0660F771F881F91505040C1F708
:102030009E3F51052CF7880F911D9695879597F92E
:1020400008955F3FACF0983E9CF0BB27869577954E
:102050006795B79508F4B1609395C1F7BB0F58F732
:1020600011F460FFE8CF6F5F7F4F8F4F9F4FE3CF3B
:102070000C94BB0D16F00C94BE100C94760D689465
:102080000C94700D0E94A00DA8F39923C1F3AEF338
:10209000DF93CF931F930F93FF92C92FDD278823E0
:1020A0002AF02197660F771F881FDAF720E030E0CB
:1020B00040E85FEB9FE3883920F0803E38F02196BE
:1020C0008F770E94290EE0E9F0E004C00E94290EFB
:1020D000EDEBF0E00E94D10F8B01BE01EC01FB2E75
:1020E0006F5771097595771F880B990B0E94A10C8A
:1020F00028E132E741E35FE30E94130DAF2D980121
:10210000AE01FF900F911F91CF91DF910E94400E81
:102110000C94870DFA01DC01AA0FBB1F9B01AC01D7
:10212000BF5728F4222733274427507820C0B751BF
:1021300090F4AB2F0024469537952795011CA39565
:10214000D2F3002071F0220F331F441FB395DAF34E
:102150000ED00C94280E61307105A0E88A07B946AC
:1021600030F49B01AC01662777278827907830965A
:1021700021F0208331834283538308959F3F31F0C0
:10218000915020F4879577956795B795880F911DA5
:102190009695879597F9089597FB072E16F4009466
:1021A00007D077FD09D00E94211107FC05D03EF42D
:1021B000909581959F4F0895709561957F4F0895F3
:1021C000A1E21A2EAA1BBB1BFD010DC0AA1FBB1F3B
:1021D000EE1FFF1FA217B307E407F50720F0A21BAD
:1021E000B30BE40BF50B661F771F881F991F1A941A
:1021F00069F760957095809590959B01AC01BD0144
:10220000CF010895052E97FB1EF400940E9419112A
:1022100057FD07D00E94E01007FC03D04EF40C9449
:10222000191150954095309521953F4F4F4F5F4F75
:10223000089590958095709561957F4F8F4F9F4F32
:102240000895AA1BBB1B51E107C0AA1FBB1FA617FD
:10225000B70710F0A61BB70B881F991F5A95A9F74F
:1022600080959095BC01CD010895EE0FFF1F05905C
:0A227000F491E02D0994F894FFCFDB
:10227A00000000004A01BE00EB0097011C01FA00B1
:10228A000E012B7665204E756D20746F6F206C6180
:10229A007267650D0A002D7665204E756D20746F84
:1022AA006F206C617267650D0A002B7665204E758A
:1022BA006D20746F6F20736D616C6C0D0A002D7642
:1022CA0065204E756D20746F6F20736D616C6C0D97
:1022DA000A006E616E00696E66006F766600507263
:1022EA006F6A65637420636F6D6D656E7461727970
:1022FA003A2050726573732027582720746F20651F
:10230A007363617065206F7220414F4B0D0A005252
:10231A003F20202020000D0A5043425F4120286DB3
:10232A00696E695F4F532920646576696365206326
:10233A00616C6962726174696E67000D0A4F53437A
:10234A0043414C20757365722076616C7565202057
:10235A0020000D0A63616C6962726174696F6E2094
:10236A006572726F7220200020204F4B0D0A000DFB
:10237A000A506F7765722066756E6374696F6E3A7C
:10238A0020456E746572202B766520736369656ECD
:10239A007469666963206E756D6265720D0A000D57
:1023AA000A0D0A54696D655F6F75743A204E756D32
:1023BA0062657220746F6F206C61726765206F723C
:1023CA0020736D616C6C2E2054727920616761698B
:1023DA006E210D0A003F0D0A004E61747572616C20
:1023EA00206C6F672069730900456E7465722070EE
:1023FA006F77657209004C6F63616C207265737543
:10240A006C742069730900432066756E6374696F82
:0A241A006E20676976657309000003
:00000001FF
