:100000000C9434000C9451000C9451000C94510049
:100010000C9451000C9451000C9451000C9451001C
:100020000C9451000C9451000C9451000C9451000C
:100030000C9451000C9451000C9451000C945100FC
:100040000C9451000C9451000C9465000C945100D8
:100050000C9451000C9451000C9451000C945100DC
:100060000C9451000C94510011241FBECFEFD8E026
:10007000DEBFCDBF11E0A0E0B1E0EAE4F6E002C0EF
:1000800005900D92A239B107D9F721E0A2E9B1E0BC
:1000900001C01D92A53BB207E1F70E94E3000C945A
:1000A00023030C940000AC0148535F4FFC012191E5
:1000B000CF01222349F03091C00035FFFCCF2093BF
:1000C000C6008417950791F708951F920F920FB6F7
:1000D0000F9211242F933F938F939F93EF93FF934E
:1000E0008091B3019091B4019C012F5F3F4F3093F9
:1000F000B4012093B3012091C60081569E4FFC01AC
:100100002083FF91EF919F918F913F912F910F90BD
:100110000FBE0F901F9018958093BB0084EC8093C6
:10012000BC008091BC0087FFFCCF0895BF92CF92A6
:10013000DF92EF92FF920F931F93CF93DF93C82F1D
:10014000062F142FD52F84E48093BC008091BC002F
:1001500087FFFCCF8091BB008C2F0E948C00802FEA
:100160000E948C00E12EFD2E10E000E00C2E000C11
:10017000DD0B6E0181E0C81AD10884E8B82E0C1797
:100180001D07A4F4F70181917F01C016D10659F42F
:100190008093BB00B092BC008091BC0087FFFCCF75
:1001A0000F5F1F4FECCF0E948C00FACF80E8809346
:1001B000BC00DF91CF911F910F91FF90EF90DF90E6
:1001C000CF90BF900895CF93DF9300D000D01F92BF
:1001D000CDB7DEB780E88093610011E01093610035
:1001E0008CEF93E00E94E50280939E0180FF07C0A0
:1001F00010939E0160E085EF93E00E94ED02A895C8
:1002000084B7877F84BF809160008861809360009D
:100210001092600092E09093BA0080917C0080641C
:1002200080937C0085B78F7E85BF8AB18B778AB932
:100230008BB184688BB922982A9A85B78F7E85BF47
:1002400087B1887F87B98AB1877C8AB988B187608E
:1002500088B98BB188638BB984B1836084B92998DC
:1002600028981092C1001092C50080E18093C400CC
:100270009093C00088E18093C10086E08093C20023
:100280008FE39CE90197F1F700C0000086EF93E04F
:100290000E94E5028F3F29F460E086EF93E00E9420
:1002A000ED0286EF93E00E94E502803491F40AE0CB
:1002B00010E08EE891E00E94530001501109C9F747
:1002C00080E091E00E94530061E486EF93E00E9499
:1002D000ED0286EF93E00E94E50286FF18C0682FCA
:1002E000606886EF93E00E94ED028EE891E00E9444
:1002F00053008EE891E00E9453008EE891E00E9446
:1003000053008EE891E00E9453000C9400361A9935
:100310003DC04A993BC01D8280E69AEE1A9902C000
:100320000197E1F734E0E32EF12C1CEC03E342EB00
:10033000D42E55E0C52E1A9929C08D81082E000CA7
:10034000990B0196B7010E94FB028D83882399F3D4
:10035000AE014B5F5F4F61E581E00E94960019831B
:100360001A830B830C83AE014F5F5F4F61E084E023
:100370000E94960082E390E0D6BCC5BCA89BFECF4D
:10038000A89A15BCA8950197B9F7D5CF4A99A4C0EA
:100390004F99A2C081E391E00E94530090E080E079
:1003A0002AEF30E04091C00047FD1FC00196A8959C
:1003B0008134EFE19E0724F02150310990E080E084
:1003C0002115310579F7E6CF8091C6008EE891E0DE
:1003D0000E94530088E199E00FB6F894A8958093A5
:1003E00060000FBE90936000FFCF8091C6008F7DAC
:1003F000823581F68EE891E00E94530084E4809378
:10040000BC008091BC0087FFFCCF8091BB0080E0E6
:100410000E948C0082E58093BB0084E88093BC003E
:100420008091BC0087FFFCCF80E88093BC0088E30C
:1004300091E00E94530084E48093BC008091BC0052
:1004400087FFFCCF8091BB0084EC8093BC0080913F
:10045000BC0087FFFCCFF090BB0084EC8093BC0015
:100460008091BC0087FFFCCF8091BB0090E0982F6B
:10047000882724E82093BC002091BC0027FFFCCFF4
:100480000091BB00080F192F111D80E88093BC005C
:100490008DE591E00E9453004AE062E971E08F2D02
:1004A00090E00E94B00282E991E00E94530084E74C
:1004B00091E00E9453004AE062E971E0C8010E94A5
:1004C000B00282E991E00E9453000E3E124024F4F3
:1004D0008AE891E00E9453008091C1008068809377
:1004E000C10078948FE9E82E81E0F82E10E000E05A
:1004F0009EE5C92ED12C30E020E0C801820F931F69
:10050000B6010E94FB028F5D9091C00095FFFCCF69
:100510008093C6008FE19EE40197F1F700C00000D0
:100520002F5F3F4F2E35310541F79FEFE0E7F2E0B7
:100530009150E040F040E1F700C000008EE891E00B
:100540000E9453000F5F1F4FF70181917F018111BE
:10055000D2CFF8948091C00087FD36CFA895FACF0E
:10056000BB274A3031F4992322F4BDE2909581955E
:100570009F4F0C94BC02BB27FB015527AA27880F6D
:10058000991FAA1FA41710F0A41B83955051B9F707
:10059000A05DAA3308F0A95DA193009779F7B11186
:1005A000B1931192CB010C94D502DC01FC01672FB1
:1005B00071917723E1F7329704C07C916D9370833A
:1005C0006291AE17BF07C8F30895F999FECF92BDA7
:1005D00081BDF89A992780B50895262FF999FECF05
:1005E0001FBA92BD81BD20BD0FB6F894FA9AF99A50
:1005F0000FBE0196089597FB072E16F4009407D0BE
:1006000077FD09D00E940F0307FC05D03EF49095BA
:1006100081959F4F0895709561957F4F0895AA1B0E
:10062000BB1B51E107C0AA1FBB1FA617B70710F0DD
:10063000A61BB70B881F991F5A95A9F7809590950F
:0A064000BC01CD010895F894FFCF2E
:10064A0050726F6A65637420636F6D6D656E746155
:10065A0072793A2050726573732027582720746F75
:10066A0020657363617065206F7220414F4B0D0ADC
:10067A0000523F20202020000D0A5043425F4120B3
:10068A00286D696E695F4F532920646576696365D1
:10069A002063616C6962726174696E67000D0A4F4A
:1006AA00534343414C20757365722076616C7565BE
:1006BA00202020000D0A63616C6962726174696F9F
:1006CA006E206572726F7220200020204F4B0D0A37
:0206DA0000001E
:00000001FF
