:100000000C9453000C947B000C947B000C947B00AC
:100010000C947B000C947B000C947B000C947B0074
:100020000C947B000C947B000C947B000C947B0064
:100030000C947B000C947B000C947B000C947B0054
:100040000C949B030C947B000C940B040C94E50320
:100050000C947B000C947B000C947B000C947B0034
:100060000C947B000C947B004E414E494E495459F0
:10007000494E46CDCCCC3D0AD7233C17B7D1387773
:10008000CC2B329595E6241FB14F0A000020410089
:1000900000C84200401C4620BCBE4CCA1B0E5AAED3
:1000A000C59D7400BD0511241FBECFEFD8E0DEBF93
:1000B000CDBF23E0A8E5B2E001C01D92A530B20794
:1000C000E1F712E0A0E0B1E0E0EEFDE102C0059052
:1000D0000D92A835B107D9F710E0C3E5D0E004C010
:1000E0002197FE010E94E80EC235D107C9F70E9490
:1000F000EA050C94EE0E0C940000AF92BF92CF92E2
:10010000DF92EF92FF920F931F93CF93DF936C01D7
:100110007B018B01040F151FEB015E01AE18BF08B8
:10012000C017D10759F06991D601ED91FC9101906A
:10013000F081E02DC6010995892B79F7C501DF9182
:10014000CF911F910F91FF90EF90DF90CF90BF90D4
:10015000AF900895FC01538D448D252F30E0842FFE
:1001600090E0821B930B541710F0CF9608950197DF
:100170000895FC01918D828D981761F0A28DAE0FCC
:10018000BF2FB11D5D968C91928D9F5F9F73928F53
:1001900090E008958FEF9FEF0895FC01918D828D7F
:1001A000981731F0828DE80FF11D858D90E008954C
:1001B0008FEF9FEF0895FC01918D228D892F90E0A4
:1001C000805C9F4F821B91098F7399270895FC01D2
:1001D000A48DA80FB92FB11DA35ABF4F2C91848DA8
:1001E00090E001968F739927848FA689B7892C9305
:1001F000A089B1898C91837080648C93938D848D58
:10020000981306C00288F389E02D80818F7D80835A
:100210000895EF92FF920F931F93CF93DF93EC011A
:1002200081E0888F9B8D8C8D98131AC0E889F9899D
:10023000808185FF15C09FB7F894EE89FF896083A0
:10024000E889F98980818370806480839FBF81E021
:1002500090E0DF91CF911F910F91FF90EF90089563
:10026000F62E0B8D10E00F5F1F4F0F731127E02E3E
:100270008C8D8E110CC00FB607FCFACFE889F98976
:10028000808185FFF5CFCE010E94E700F1CFEB8D95
:10029000EC0FFD2FF11DE35AFF4FF0829FB7F8944A
:1002A0000B8FEA89FB8980818062CFCFCF93DF9368
:1002B000EC01888D8823B9F0AA89BB89E889F9897E
:1002C0008C9185FD03C0808186FD0DC00FB607FCB3
:1002D000F7CF8C9185FFF2CF808185FFEDCFCE01E6
:1002E0000E94E700E9CFDF91CF9108958093BB0092
:1002F00084E88093BC008091BC0087FFFCCF089508
:100300008093BB0084EC8093BC008091BC0087FF8D
:10031000FCCF0895CF92DF92EF92FF920F931F933D
:10032000CF93DF93C82F062F142FD52F84E480930B
:10033000BC008091BC0087FFFCCF8091BB008C2F5C
:100340000E948001802F0E948001E12EFD2E10E08E
:1003500000E00C2E000CDD0B6E0181E0C81AD10804
:100360000C171D0774F4F70181917F01C016D106A7
:1003700029F40E9476010F5F1F4FF2CF0E94800187
:10038000FACF80E88093BC00DF91CF911F910F914D
:10039000FF90EF90DF90CF900895FC010190002036
:1003A000E9F73197AF01481B590BBC0186E692E093
:1003B0000C947D00009711F00C94CD0190E080E04A
:1003C00008958F929F92AF92BF920F931F93CF93F6
:1003D000DF93CDB7DEB7A1970FB6F894DEBF0FBE9F
:1003E000CDBF19A2423008F44AE08E010F5D1F4FC5
:1003F000842E912CB12CA12CA50194010E94930E66
:10040000E62FB901CA01EA30D4F4E05DD801EE93D9
:100410008D01232B242B252B79F7CD010E94DA01A6
:10042000A1960FB6F894DEBF0FBECDBFDF91CF917E
:100430001F910F91BF90AF909F908F900895E95CAE
:10044000E5CF4F925F926F927F928F929F92AF9281
:10045000BF92CF92DF92EF92FF921F93CF93DF93E1
:100460006B017C01B42EDC01CB01009720E8A207D0
:100470002FE7B20779F482E191E00E94DA0188E186
:1004800099E00FB6F894A895809360000FBE909302
:100490006000FFCF009720E8A2072FEFB20779F4A2
:1004A00086E291E00E94DA0188E199E00FB6F894C3
:1004B000A895809360000FBE90936000FFCF0097D7
:1004C000A105B10579F48AE391E00E94DA0188E19F
:1004D00099E00FB6F894A895809360000FBE9093B2
:1004E0006000FFCF0097A105B04879F48EE491E059
:1004F0000E94DA0188E199E00FB6F894A8958093FC
:1005000060000FBE90936000FFCF20E030E0A901B3
:10051000C7010E94D20BDBE287FF05C0F7FAF09417
:10052000F7F8F094DDE2C0E020E030E040E85FE37F
:10053000C701B6010E94750E87FD0CC020E030E0B7
:1005400040E251E4C701B6010E94CD0D6B017C0170
:10055000CF5FEACF20E030E040E85FE3C701B601BB
:100560000E94D20B181664F020E030E040E251E423
:10057000C701B6010E94380C6B017C01C150EACF63
:10058000DD3221F4F7FAF094F7F8F094A701960120
:10059000C701B6010E947A0E8823C1F182E691E07C
:1005A0000E94CD01CC23F1F065E486E692E00E9442
:1005B0000901CC2ECC0FDD08EE08FF084AE0C70188
:1005C000B601F7FE0DC06DE286E692E00E940901D9
:1005D00066277727CB016C197D098E099F094AE0B0
:1005E0000E94E1016DE086E692E0DF91CF911F91DC
:1005F000FF90EF90DF90CF90BF90AF909F908F9043
:100600007F906F905F904F900C9409012601370105
:10061000E89477F82FEF3FEF4FE75FE7C301B201B0
:100620000E947A0E81110DC02FEF3FEF4FE75FE779
:10063000C301B2010E94D20B18161CF486E691E0A9
:10064000AFCF2FEF3FEF4FE75FE4C701B6010E9446
:10065000750E18161CF48AE691E0A2CF2FEF3FEF3B
:100660004FE75FECC701B6010E94D20B87FDF3CFC5
:1006700020E030E0A901C701B6010E94D20B87FF3C
:1006800009C06DE286E692E00E940901F7FAF09453
:10069000F7F8F094DB2D60E070E080E09FE310E07D
:1006A00020E030E040E251E40E94CD0D1F5F1B15B9
:1006B000B8F3A70196010E94610D6B017C010E94B5
:1006C000460E4B015C010E94D70B9B01AC01C70198
:1006D000B6010E94600D6B017C014AE0C501B401C6
:1006E0000E94E1016EE286E692E00E940901D1508B
:1006F00008F458CF20E030E040E251E4C701B601F1
:100700000E94380C4B015C010E94460E6B01F12CDB
:10071000E12C4AE0C701B6010E94E101C701B60120
:100720000E94D70B9B01AC01C501B4010E94600D72
:100730006B017C01DCCF1F920F920FB60F92112438
:100740002F933F938F939F93AF93BF9380916202B8
:1007500090916302A0916402B091650230916102B0
:1007600023E0230F2D3758F50196A11DB11D2093CD
:1007700061028093620290936302A0936402B0933B
:10078000650280915D0290915E02A0915F02B0913E
:1007900060020196A11DB11D80935D0290935E02DF
:1007A000A0935F02B0936002BF91AF919F918F9130
:1007B0003F912F910F900FBE0F901F90189526E834
:1007C000230F0296A11DB11DD2CF1F920F920FB61B
:1007D0000F9211242F933F934F935F936F937F93C7
:1007E0008F939F93AF93BF93EF93FF9386E692E02F
:1007F0000E94E700FF91EF91BF91AF919F918F9180
:100800007F916F915F914F913F912F910F900FBE0C
:100810000F901F9018951F920F920FB60F921124F0
:100820002F938F939F93EF93FF93E0917602F09134
:1008300077028081E0917C02F0917D0282FD1BC0F5
:10084000908180917F028F5F8F7320918002821749
:1008500041F0E0917F02F0E0EA59FD4F958F8093DF
:100860007F02FF91EF919F918F912F910F900FBE7B
:100870000F901F9018958081F4CF2F923F924F9246
:100880005F926F927F928F929F92AF92BF92CF9220
:10089000DF92EF92FF920F931F93CF93DF93CDB729
:1008A000DEB728970FB6F894DEBF0FBECDBF6B83BF
:1008B0007C838D839E83812C912C5401312C212C9F
:1008C00080E889838FE38A83C12CD12C80E8E82ECD
:1008D0008FE3F82E240135018FEF481A580A680A71
:1008E000780AA70196016B817C818D819E810E948F
:1008F000380C6B017C01C301B2010E94D90B9B0132
:10090000AC01C701B6010E94CD0D6B017C0140FC1A
:1009100059C082E0880E911CA11CB11C81FE65C0EB
:10092000A7019601632D722D89819A810E94600D25
:10093000162F78878F83092F81E0481651046104B0
:10094000710409F44AC0232D322D49815A817885DA
:100950008F810E94600D212F38854F81502F0E947A
:10096000CD0D4B015C0125E93FEB46ED53EB0E94B9
:10097000750E181664F525E93FEB46ED53E3C50106
:10098000B4010E94D20B87FF22C0612F78858F812E
:10099000902F28960FB6F894DEBF0FBECDBFDF9123
:1009A000CF911F910F91FF90EF90DF90CF90BF906C
:1009B000AF909F908F907F906F905F904F903F90FF
:1009C0002F900895132D288689818F830A8185E6CB
:1009D0004816510461047104C1F253014201312EE1
:1009E00028848F8189830A8375CF232D322D4981F5
:1009F0005A81C701B6010E94610D9ACF2F923F9292
:100A00004F925F926F927F928F929F92AF92BF921E
:100A1000CF92DF92EF92FF920F931F93CF93DF93CA
:100A2000CDB7DEB728970FB6F894DEBF0FBECDBFA7
:100A30006B837C838D839E83812C912C5401312C7C
:100A4000212C19821A82C12CD12C80E8E82E8FE348
:100A5000F82E240135018FEF481A580A680A780ADF
:100A6000A70196016B817C818D819E810E94380C4B
:100A70006B017C01C301B2010E94D90B9B01AC0147
:100A8000C701B6010E94CD0D6B017C0140FE59C02B
:100A900082E0880E911CA11CB11C81FE65C0232D33
:100AA000322D49815A81C701B6010E94610D162F6E
:100AB00078878F83092F81E04816510461047104FF
:100AC00009F44AC0232D322D49815A8178858F81BE
:100AD0000E94600D212F38854F81502F0E94CD0D2F
:100AE0004B015C0125E93FEB46ED53EB0E94750E8F
:100AF000181664F525E93FEB46ED53E3C501B40153
:100B00000E94D20B87FF22C0612F78858F81902FA2
:100B100028960FB6F894DEBF0FBECDBFDF91CF9100
:100B20001F910F91FF90EF90DF90CF90BF90AF900B
:100B30009F908F907F906F905F904F903F902F90FD
:100B40000895132D288689818F830A8185E64816AA
:100B5000510461047104C1F253014201312E288411
:100B60008F8189830A8375CFA7019601632D722D2A
:100B700089819A810E94600D9ACFE6E6F2E01382A5
:100B8000128288EE93E0A0E0B0E084839583A68390
:100B9000B78384E091E09183808385EC90E0958732
:100BA000848784EC90E09787868780EC90E0918B37
:100BB000808B81EC90E0938B828B82EC90E0958B24
:100BC000848B86EC90E0978B868B118E128E138E21
:100BD000148E0895CF93DF93CDB7DEB7A6970FB6E7
:100BE000F894DEBF0FBECDBF80E88093610011E0B6
:100BF000109361008CEF93E00E94F90C80935C02EB
:100C000080FF07C010935C0260E085EF93E00E94D4
:100C1000010D80915C0283FF03C081E080935B0241
:100C2000A89584B7877F84BF809160008861809396
:100C300060001092600092E09093BA0080917C0076
:100C4000806480937C0085B78F7E85BF8AB18B7767
:100C50008AB98BB184688BB922982A9A85B78F7E1E
:100C600085BF87B1887F87B98AB1877C8AB988B107
:100C7000876088B98BB188638BB984B1836084B98C
:100C800029982898E0917602F09177029083E0917C
:100C90007202F09173021082E0917402F091750279
:100CA00080E1808310927E02E0917A02F0917B02D3
:100CB00086E08083E0917802F09179028081806102
:100CC0008083E0917802F09179028081886080834E
:100CD000E0917802F0917902808180688083E091D0
:100CE0007802F091790280818F7D8083789486EFFD
:100CF00093E00E94F90C8F3F29F460E086EF93E0C7
:100D00000E94010D86EF93E00E94F90C803491F46B
:100D10000AE010E08CE392E00E94DA010150110930
:100D2000C9F78EE691E00E94DA0161E486EF93E074
:100D30000E94010D86EF93E00E94F90C86FF18C017
:100D4000682F606886EF93E00E94010D8CE392E0CB
:100D50000E94DA018CE392E00E94DA018CE392E0D7
:100D60000E94DA018CE392E00E94DA010C940036D2
:100D70001A993EC04A993CC019A280E69AEE1A9987
:100D800002C00197E1F704E010E05CECB52E63E3EC
:100D9000A62E72EB972EE5E08E2E1A9929C089A116
:100DA000082E000C990B0196B8010E947F0E89A3B2
:100DB000882399F3AE014F5D5F4F61E581E00E94AA
:100DC0008A01B982BA82AB82AC82AE014F5F5F4FBB
:100DD00061E084E00E948A0182E390E096BC85BCD9
:100DE000A89BFECFA89A15BCA8950197B9F7D5CFB7
:100DF0004A99EEC14F99ECC18FE991E00E94DA0166
:100E000010E000E042E3A42EB12C86E692E00E94BE
:100E1000DB00892B09F067C10F5F1F4FA8950134D4
:100E20002FE112072CF081E0A81AB10810E000E0D1
:100E3000A114B10451F7E0CF10925B028BE392E072
:100E4000CDC1880F991F30E020E08217930749F049
:100E50000217130731F0FB011292BF012F5F3F4FC2
:100E6000F4CF90E080E0980121503109801791077C
:100E70003CF54981F401483061F4AF014819590942
:100E800042175307B4F781818193108290E080E08C
:100E9000F4CFE80FF91F4081483081F4FC0131970D
:100EA000E80DF91DAC014217530744F48281819388
:100EB00011824F5F5F4F90E080E0F5CF0196D6CF73
:100EC0001C92C4010E94280A4B015C0120E030E022
:100ED000A9010E94D20B882329F1A5019401C50123
:100EE000B4010E94610D2AED3FE049E450E40E9404
:100EF000380C20E030E044EB53E40E94CD0D4B0170
:100F00005C0145E0C501B4010E94210289E292E042
:100F10000E94DA0186E692E00E94DB00892B59F4F8
:100F2000A895F8CF17E1812E17EB912E11EDA12E88
:100F300018E3B12EE6CF86E692E00E94B90083372F
:100F400009F442C0843709F448C0833651F4C5011E
:100F5000B4010E943D046B017C018FE392E00E948A
:100F6000DA0148E0C701B6010E94210220E030E02A
:100F7000A901C701B6010E94D20B1BE287FF05C081
:100F8000F7FAF094F7F8F0941DE220E030E040E842
:100F90005FE3C701B6010E94750E46015701712C2F
:100FA00087FD30C020E030E040E251E4C501B401EB
:100FB0000E94CD0D4B015C01739420E030E040E8CD
:100FC0005FE30E94750EECCFC501B4010E94FE04E0
:100FD0006B017C0187E492E0C2CFC501B4010E949D
:100FE000FE046B017C01C501B4010E943D049B011C
:100FF000AC01C701B6010E94CD0D6B017C018FE4ED
:1010000092E0ADCF2DEC3CEC4CEC5DE3C701B601BA
:101010000E94D20B87FF0AC02DEC3CEC4CEC5DE348
:10102000C501B4010E94D20B87FD25C0C12CD12C73
:101030007601C394C501B4010E943F0E0E94D90BF2
:101040009B01AC01C501B4010E94D20B8823F9F0C9
:1010500020E030E040E251E4C501B4010E94380CC8
:101060004B015C01AAE0B0E0A70196010E940F0DC0
:101070006B017C01DFCF20E030E040E251E4C501AC
:10108000B4010E94380C4B015C017A94C5CF1D322B
:1010900021F4B7FAB094B7F8B094C501B4010E9436
:1010A0003F0E8B019C01305C37FD07C0C114D10499
:1010B000E104F0E4FF060CF4FAC022E030E040E086
:1010C00050E00E94B50ECA01B901F594E794D79497
:1010D000C79497FDF1C0F7FCECC02BE22EA3F0C043
:1010E000F09258028BC186E692E00E94B9008F7D93
:1010F000823509F081CE8CE392E00E94DA0184E42B
:101100008093BC008091BC0087FFFCCF8091BB0026
:1011100080E00E94800182E50E94760180E8809351
:10112000BC0086EA91E00E94DA0184E48093BC006E
:101130008091BC0087FFFCCF8091BB0084EC809342
:10114000BC008091BC0087FFFCCFB090BB0084EC5A
:101150008093BC008091BC0087FFFCCF8091BB00D6
:1011600090E0982F882724E82093BC002091BC00B1
:1011700027FFFCCF0091BB00080F192F111D80E83D
:101180008093BC008BEC91E00E94DA014AE0BE0142
:101190006F5F7F4F8B2D90E00E942C0ACE0101964D
:1011A0000E94DA0182EE91E00E94DA014AE0BE017B
:1011B0006F5F7F4FC8010E942C0ACE0101960E94EA
:1011C000DA010E3E124024F488EF91E00E94DA0129
:1011D00080915B02811130CE8FEF91E00E94DA01A5
:1011E00086E692E00E945601FE0131964F015F01B2
:1011F00010E000E02FB7F8948091620290916302B2
:10120000A0916402B09165022FBF80936E0290930B
:101210006F02A0937002B093710286E692E00E9482
:10122000B90097FF37C02FB7F89480916202909170
:101230006302A0916402B09165022FBF40916E02DB
:1012400050916F026091700270917102841B950B36
:10125000A60BB70B40916A0250916B0260916C0231
:1012600070916D0284179507A607B707B0F2D401F5
:10127000A00FB11FBD019D0190E080E00817190784
:1012800009F4DFCDF90142919F01483009F0D9CD31
:101290000196F4CF8D30910551F3F50181935F01F3
:1012A0000F5F1F4F0E31110509F0A4CFE0CF97FF5C
:1012B00014CFEDE2EEA304C0F7FEFBCFFBE2FEA3EA
:1012C0000EE010E0212C312C2101AA24A394B12C92
:1012D000660F771F881F991FA70196010E94B50E00
:1012E000B62FE72FF82FA92F232B242B252B79F0AE
:1012F000A501002E02C0440F551F0A94E2F7052EE7
:10130000000C660B770B242A352A462A572A6B2FA6
:101310007E2F8F2F9A2F01501109D0F621013324EF
:1013200022240FE010E0B12CA12C88248394912C6E
:10133000660F771F881F991FA70196010E94B50E9F
:10134000B62FA72FF82FE92F232B242B252B49F07D
:10135000C401002E02C0880F991F0A94E2F7A82A40
:10136000B92A6B2F7A2F8F2F9E2F0150110900F76A
:10137000D201C1018A0D9B1DA11DB11DFEA1FD322F
:1013800039F4B095A095909581959F4FAF4FBF4F81
:10139000B9A3AAA39BA38CA37DA2AE014F5D5F4F0F
:1013A0006BE485E00E948A0180916B0080935A0271
:1013B00080916D008093590280E380935802809160
:1013C0006D008478843821F080916B0082FF0AC020
:1013D00080916B008B7F80936B0080916D008B7789
:1013E00080936D0080E3F82E91E3E92E22E3D22E64
:1013F00004E410E81A9974CEE09258024A9B01C0A6
:101400004F9BD09258020093BC008091BC0087FF94
:10141000FCCF8091BB00809158020E94760110930E
:10142000BC0080915802823329F780915A02809340
:101430006B008091590280936D0088E199E00FB6AE
:10144000F894A895809360000FBE90936000FFCF42
:10145000662777270C94510ABB274A3031F4992329
:1014600022F4BDE2909581959F4F0C94380ABB27DA
:10147000FB015527AA27880F991FAA1FA41710F050
:10148000A41B83955051B9F7A05DAA3308F0A95D5C
:10149000A193009779F7B111B1931192CB010C94FC
:1014A000C20BB0E0A0E0E7E5FAE00C94200D5C018F
:1014B0007B016115710519F0DB018D939C9385010A
:1014C0000F5F1F4FF501D0818D2F90E00E94A10B7F
:1014D0006C01892BB9F5DD32B9F50F5F1F4FD501CE
:1014E0001196DC91C1E05801F1E0AF1AB10843E078
:1014F00050E060E770E0C5010E94AA0B892B69F5F6
:10150000680182E0C80ED11C45E050E06BE670E057
:10151000C6010E94AA0B892B21F4680197E0C90E2D
:10152000D11CE114F10419F0D701CD92DC9260E0F6
:1015300070E080E89FEFC111FFC060E070E080E8DC
:101540009FE7FAC05801BBCFDB3229F485010E5F5B
:101550001F4FF501D181C0E0C6CF43E050E068E6FF
:1015600070E0C5010E94AA0B892BE9F0F80110E098
:1015700000E020E030E0A9015F01B0ED8B2E8D0E80
:1015800089E08815C8F19C2E689491F88C2F88709A
:10159000C2FF16C0811102C00F5F1F4F3196D501E7
:1015A000DC91C92DE9CFE114F10429F00E5F1F4F42
:1015B000F7011183008360E070E080EC9FE7BCC01E
:1015C000882311F001501109A5E0B0E00E940F0D31
:1015D0009B01AC01220F331F441F551F280D311DE5
:1015E000411D511D283999E93907490799E15907E2
:1015F000A8F2C6609C2ED2CFAEEF8A1206C0C3FD01
:101600003CC09C2E689493F8C9CFDF7DD534A9F5F2
:1016100080818D3239F4C061DF011296818162E0F0
:1016200070E006C0DF018B32C1F3119661E070E01B
:1016300080535D01A61AB70A8A30F8F4E0E8CE16A6
:10164000ECE0DE065CF4B601660F771F660F771FCD
:10165000C60ED71ECC0CDD1CC80ED11C5D01FFEFE1
:10166000AF1ABF0A8C9180538A30A8F1C4FF03C01F
:10167000D194C194D1080C0D1D1DC1FF09C0E11406
:10168000F10431F081E0A81AB108D701AD92BC9203
:10169000CA01B9010E94D70BC370C33009F4905836
:1016A0004B015C0120E030E0A9010E94D20B8823AD
:1016B00009F440C0CFE9D0E017FF05C011950195AE
:1016C0001109C7E8D0E06E01B8E1CB1AD10880E279
:1016D000E82EF12C0FC0D501B1CFFE012591359137
:1016E000459154910E191F09C501B4010E94380C8F
:1016F0004B015C01D501C4010E151F0574F7249739
:10170000F594E794CC16DD06A9F78A2F880F8B2F66
:10171000881F8F3F49F020E030E0A901C501B401E6
:101720000E94D20B811106C082E290E090930403E4
:1017300080930303C501B401CDB7DEB7ECE00C9490
:101740003C0D91110C94A50C803219F089508550F4
:10175000C8F70895FB01DC014150504088F08D919D
:1017600081341CF08B350CF4805E659161341CF083
:101770006B350CF4605E861B611171F3990B089553
:10178000881BFCCFDC01FC01672F71917723E1F707
:10179000329704C07C916D9370836291AE17BF073E
:1017A000C8F308950E94140C08F481E00895E894A9
:1017B00009C097FB3EF490958095709561957F4F99
:1017C0008F4F9F4F9923A9F0F92F96E9BB27939547
:1017D000F695879577956795B795F111F8CFFAF457
:1017E000BB0F11F460FF1BC06F5F7F4F8F4F9F4F88
:1017F00016C0882311F096E911C0772321F09EE8E6
:10180000872F762F05C0662371F096E8862F70E04B
:1018100060E02AF09A95660F771F881FDAF7880F25
:101820009695879597F90895990F0008550FAA0B7B
:10183000E0E8FEEF16161706E807F907C0F01216E3
:101840001306E407F50798F0621B730B840B950BE6
:1018500039F40A2661F0232B242B252B21F408953B
:101860000A2609F4A140A6958FEF811D811D0895D8
:101870000E944B0C0C94BF0C0E94B10C38F00E94DB
:10188000B80C20F0952311F00C94A80C0C94AE0C1D
:1018900011240C94F30C0E94D00C70F3959FC1F3AB
:1018A000950F50E0551F629FF001729FBB27F00D0E
:1018B000B11D639FAA27F00DB11DAA1F649F662763
:1018C000B00DA11D661F829F2227B00DA11D621FB2
:1018D000739FB00DA11D621F839FA00D611D221F6C
:1018E000749F3327A00D611D231F849F600D211D50
:1018F000822F762F6A2F11249F5750409AF0F1F0D3
:1019000088234AF0EE0FFF1FBB1F661F771F881F3B
:1019100091505040A9F79E3F510580F00C94A80CBF
:101920000C94F30C5F3FE4F3983ED4F386957795DF
:101930006795B795F795E7959F5FC1F7FE2B880FE1
:10194000911D9695879597F9089599278827089569
:1019500097F99F6780E870E060E008959FEF80EC62
:10196000089500240A941616170618060906089505
:1019700000240A9412161306140605060895092E6B
:101980000394000C11F4882352F0BB0F40F4BF2BDA
:1019900011F460FF04C06F5F7F4F8F4F9F4F08951A
:1019A00057FD9058440F551F59F05F3F71F0479510
:1019B000880F97FB991F61F09F3F79F087950895F5
:1019C000121613061406551FF2CF4695F1DF08C014
:1019D000161617061806991FF1CF86957105610531
:1019E00008940895E894BB2766277727CB0197F9D9
:1019F0000895F999FECF92BD81BDF89A992780B5D7
:101A00000895262FF999FECF1FBA92BD81BD20BD42
:101A10000FB6F894FA9AF99A0FBE019608950E94AB
:101A2000510DA59F900DB49F900DA49F800D911D09
:101A3000112408952F923F924F925F926F927F925E
:101A40008F929F92AF92BF92CF92DF92EF92FF92CE
:101A50000F931F93CF93DF93CDB7DEB7CA1BDB0B7A
:101A60000FB6F894DEBF0FBECDBF09942A8839881F
:101A700048885F846E847D848C849B84AA84B98426
:101A8000C884DF80EE80FD800C811B81AA81B98132
:101A9000CE0FD11D0FB6F894DEBF0FBECDBFED0146
:101AA0000895A29FB001B39FC001A39F700D811D37
:101AB0001124911DB29F700D811D1124911D089557
:101AC0005058BB27AA270E94780D0C94BF0C0E9487
:101AD000B10C38F00E94B80C20F039F49F3F19F493
:101AE00026F40C94AE0C0EF4E095E7FB0C94A80CD5
:101AF000E92F0E94D00C58F3BA17620773078407C6
:101B0000950720F079F4A6F50C94F20C0EF4E0950C
:101B10000B2EBA2FA02D0B01B90190010C01CA01A7
:101B2000A0011124FF27591B99F0593F50F4503E52
:101B300068F11A16F040A22F232F342F4427585F44
:101B4000F3CF469537952795A795F0405395C9F75C
:101B50007EF41F16BA0B620B730B840BBAF0915014
:101B6000A1F0FF0FBB1F661F771F881FC2F70EC0B3
:101B7000BA0F621F731F841F48F487957795679586
:101B8000B795F7959E3F08F0B0CF9395880F08F072
:101B90009927EE0F9795879508950E94E10D0C9473
:101BA000BF0C0E94B80C58F00E94B10C40F029F410
:101BB0005F3F29F00C94A80C51110C94F30C0C9479
:101BC000AE0C0E94D00C68F39923B1F3552391F326
:101BD000951B550BBB27AA2762177307840738F09C
:101BE0009F5F5F4F220F331F441FAA1FA9F335D0F9
:101BF0000E2E3AF0E0E832D091505040E695001CAD
:101C0000CAF72BD0FE2F29D0660F771F881FBB1F66
:101C1000261737074807AB07B0E809F0BB0B802D44
:101C2000BF01FF2793585F4F3AF09E3F510578F070
:101C30000C94A80C0C94F30C5F3FE4F3983ED4F39F
:101C4000869577956795B795F7959F5FC9F7880F44
:101C5000911D9695879597F90895E1E0660F771F96
:101C6000881FBB1F621773078407BA0720F0621B27
:101C7000730B840BBA0BEE1F88F7E09508950E9452
:101C8000460E6894B1110C94F30C08950E94D80C80
:101C900088F09F5798F0B92F9927B751B0F0E1F02D
:101CA000660F771F881F991F1AF0BA95C9F714C0DD
:101CB000B13091F00E94F20CB1E008950C94F20C56
:101CC000672F782F8827B85F39F0B93FCCF3869516
:101CD00077956795B395D9F73EF490958095709573
:101CE00061957F4F8F4F9F4F08950E94140C08F409
:101CF0008FEF08950E94140C880B990B089597FBA1
:101D0000072E16F4009407D077FD09D00E94D40E58
:101D100007FC05D03EF4909581959F4F08957095EE
:101D200061957F4F0895A1E21A2EAA1BBB1BFD01EE
:101D30000DC0AA1FBB1FEE1FFF1FA217B307E407AA
:101D4000F50720F0A21BB30BE40BF50B661F771F02
:101D5000881F991F1A9469F76095709580959095E2
:101D60009B01AC01BD01CF010895052E97FB1EF428
:101D700000940E94CC0E57FD07D00E94930E07FCE2
:101D800003D04EF40C94CC0E50954095309521958F
:101D90003F4F4F4F5F4F0895909580957095619597
:101DA0007F4F8F4F9F4F0895AA1BBB1B51E107C068
:101DB000AA1FBB1FA617B70710F0A61BB70B881FDB
:101DC000991F5A95A9F780959095BC01CD0108956A
:101DD000EE0FFF1F0590F491E02D0994F894FFCFCA
:101DE0000000000009017D00AA005601DB00B900D7
:101DF000CD002B7665204E756D20746F6F206C6161
:101E00007267650D0A002D7665204E756D20746F22
:101E10006F206C617267650D0A002B7665204E7528
:101E20006D20746F6F20736D616C6C0D0A002D76E0
:101E300065204E756D20746F6F20736D616C6C0D35
:101E40000A006E616E00696E66006F766600507201
:101E50006F6A65637420636F6D6D656E746172790E
:101E60003A2050726573732027582720746F2065BD
:101E70007363617065206F7220414F4B0D0A0052F1
:101E80003F20202020000D0A5043425F4120286D52
:101E9000696E695F4F5329206465766963652063C5
:101EA000616C6962726174696E67000D0A4F534319
:101EB00043414C20757365722076616C75652020F6
:101EC00020000D0A63616C6962726174696F6E2033
:101ED0006572726F7220200020204F4B0D0A000D9A
:101EE0000A547269672066756E6374696F6E3A2072
:101EF000456E74657220616E676C6520696E206442
:101F00006567726565730D0A004B6579707265735C
:101F10007320632C2073206F7220743F0D0A0043DE
:101F20006F732078203D0053696E2078203D005467
:081F3000616E2078203D0000E5
:00000001FF
