:100000000C94A3000C94CB000C94CB000C94CB006C
:100010000C94CB000C94BB020C947A020C94CB0091
:100020000C94CB000C94CB000C94CB000C94CB0024
:100030000C94CB000C94A1020C94CB000C94CB003C
:100040000C94D8010C94CB000C9448020C9422021E
:100050000C94CB000C94CB000C94CB000C94CB00F4
:100060000C94CB000C94CB0005A84CCDB2D44EB967
:100070003836A9020C50B9918688083CA6AAAA2A4B
:10008000BE000000803F07634236B79BD8A71A39ED
:10009000685618AEBAAB558C1D3CB7CC5763BD6DD6
:1000A000EDFD753EF6177231BF000000803F08007D
:1000B0000000BE922449123EABAAAA2ABECDCCCCE7
:1000C0004C3E00000080BEABAAAAAA3E0000000081
:1000D000BF000000803F0000000000084178D3BB53
:1000E0004387D1133D190E3CC3BD4282AD2B3E6800
:1000F000EC8276BED98FE1A93E4C80EFFFBE01C4F1
:10010000FF7F3F00000000004E414E494E495459C8
:10011000494E46CDCCCC3D0AD7233C17B7D13877D2
:10012000CC2B329595E6241FB14F0A0000204100E8
:1001300000C84200401C4620BCBE4CCA1B0E5AAE32
:10014000C59D7400F00511241FBECFEFD8E0DEBFBF
:10015000CDBF22E0AAEBB1E001C01D92A937B207E2
:10016000E1F711E0A0E0B1E0E6E0F1E202C00590C5
:100170000D92AA3BB107D9F710E0C3EAD0E004C062
:100180002197FE010E947B10C23AD107C9F70E9455
:100190001D060C9481100C940000AF92BF92CF9278
:1001A000DF92EF92FF920F931F93CF93DF936C0137
:1001B0007B018B01040F151FEB015E01AE18BF0818
:1001C000C017D10759F06991D601ED91FC910190CA
:1001D000F081E02DC6010995892B79F7C501DF91E2
:1001E000CF911F910F91FF90EF90DF90CF90BF9034
:1001F000AF900895FC01538D448D252F30E0842F5E
:1002000090E0821B930B541710F0CF96089501973E
:100210000895FC01918D828D981761F0A28DAE0F2B
:10022000BF2FB11D5D968C91928D9F5F9F73928FB2
:1002300090E008958FEF9FEF0895FC01918D828DDE
:10024000981731F0828DE80FF11D858D90E00895AB
:100250008FEF9FEF0895FC01918D228D892F90E003
:10026000805C9F4F821B91098F7399270895FC0131
:10027000A48DA80FB92FB11DA35ABF4F2C91848D07
:1002800090E001968F739927848FA689B7892C9364
:10029000A089B1898C91837080648C93938D848DB7
:1002A000981306C00288F389E02D80818F7D8083BA
:1002B0000895EF92FF920F931F93CF93DF93EC017A
:1002C00081E0888F9B8D8C8D98131AC0E889F989FD
:1002D000808185FF15C09FB7F894EE89FF89608300
:1002E000E889F98980818370806480839FBF81E081
:1002F00090E0DF91CF911F910F91FF90EF900895C3
:10030000F62E0B8D10E00F5F1F4F0F731127E02E9D
:100310008C8D8E110CC00FB607FCFACFE889F989D5
:10032000808185FFF5CFCE010E943701F1CFEB8DA3
:10033000EC0FFD2FF11DE35AFF4FF0829FB7F894A9
:100340000B8FEA89FB8980818062CFCF682F8AED8D
:1003500091E00C945901CF93DF93EC01888D8823B1
:10036000B9F0AA89BB89E889F9898C9185FD03C018
:10037000808186FD0DC00FB607FCF7CF8C9185FFFD
:10038000F2CF808185FFEDCFCE010E943701E9CF0A
:10039000DF91CF910895FC0101900020E9F731979A
:1003A000AF01481B590BBC018AED91E00C94CD00C4
:1003B0001F920F920FB60F9211242F933F938F939A
:1003C0009F93AF93BF938091CA019091CB01A0916D
:1003D000CC01B091CD013091C90123E0230F2D371D
:1003E00058F50196A11DB11D2093C9018093CA0142
:1003F0009093CB01A093CC01B093CD018091C50126
:100400009091C601A091C701B091C8010196A11DAC
:10041000B11D8093C5019093C601A093C701B0930D
:10042000C801BF91AF919F918F913F912F910F90F4
:100430000FBE0F901F90189526E8230F0296A11D5E
:10044000B11DD2CF1F920F920FB60F9211242F938E
:100450003F934F935F936F937F938F939F93AF934C
:10046000BF93EF93FF938AED91E00E943701FF91D4
:10047000EF91BF91AF919F918F917F916F915F911C
:100480004F913F912F910F900FBE0F901F90189595
:100490001F920F920FB60F9211242F938F939F9359
:1004A000EF93FF93E091EA01F091EB018081E091FD
:1004B000F001F091F10182FD1BC090818091F30168
:1004C0008F5F8F732091F401821741F0E091F30167
:1004D000F0E0E652FE4F958F8093F301FF91EF918C
:1004E0009F918F912F910F900FBE0F901F90189595
:1004F0008081F4CF1F920F920FB60F9211242F9389
:100500003F934F935F936F937F938F939F93AF939B
:10051000BF93EF93FF936FED8DEE93E00E94B40CC9
:10052000FF91EF91BF91AF919F918F917F916F91CB
:100530005F914F913F912F910F900FBE0F901F90A1
:1005400018951F920F920FB60F9211248F93EF936D
:10055000FF93EFE6F0E080818E7F8083EDE6F0E0B0
:10056000808184608083FF91EF918F910F900FBE07
:100570000F901F9018951F920F920FB60F92112493
:100580008F929F92AF92BF92CF92DF92EF92FF92A3
:100590000F931F932F933F934F935F936F937F938B
:1005A0008F939F93AF93BF93EF93FF93CF93DF937B
:1005B00000D000D0CDB7DEB74A99A9C07894809119
:1005C0006D008B7F80936D004F9969C01A9967C049
:1005D00085E090E00E94AC0C898386E090E00E9468
:1005E000AC0C8A8387E090E00E94AC0C8B8388E09F
:1005F00090E00E94AC0C8C8389809A80AB80BC8098
:100600008092C1019092C201A092C301B092C40134
:100610002AE939E949E95FE3C501B4010E94710E95
:100620006B017C01C092BD01D092BE01E092BF017E
:10063000F092C001A50194010E94850B882309F462
:1006400087C042E0C701B6010E9463040E94FA031A
:10065000EEECF1E089ED91E0218121938E179F0767
:10066000D9F70E9428046091BD01F090BE0100916D
:10067000BF011091C00185E090E00E94B40C6F2D85
:1006800086E090E00E94B40C602F87E090E00E942A
:10069000B40C612F88E090E00E94B40C2AC0109244
:1006A000CE011092CF011092D0011092D101109280
:1006B000D2011092D3011092D4011092D5010EEC08
:1006C00011E08AED91E00E942B01892B41F08AED27
:1006D00091E00E940901F80181938F01F2CF8EEC25
:1006E00091E08017910729F00E94B9098C010097C9
:1006F00081F580916F00816080936F0088EF809317
:1007000085008FE58093840085E0809381000F90C1
:100710000F900F900F90DF91CF91FF91EF91BF91CC
:10072000AF919F918F917F916F915F914F913F9189
:100730002F911F910F91FF90EF90DF90CF90BF907E
:10074000AF909F908F900F900FBE0F901F901895B5
:10075000FFCF4F9B11C01A9B0FC08A3091053CF010
:100760006AE070E00E9412108C010F5F1F4F602F33
:1007700090E080E00E94B40C4F990CC01A9B0AC014
:10078000602F81E090E00E94B40C612F82E090E045
:100790000E94B40C1A990CC04F9B0AC0602F83E0D2
:1007A00090E00E94B40C612F84E090E00E94B40CB1
:1007B0006FEE8DEE93E00E94B40C8091BC0183FF3C
:1007C00003C081E08093BB01A89584B7877F84BF75
:1007D000809160008861809360001092600088E1E1
:1007E00099E00FB6F894A895809360000FBE90939F
:1007F0006000FFCFCF93DF93AEECB1E0FD01EE5C84
:10080000F1408D918111FACFE253FE4FAEECB1E091
:10081000CD0180959095AC014E0F5F1F9D012E5C20
:100820003140241735073CF42D913291ED01219789
:1008300038832083F0CFDF91CF9108958093BB0060
:1008400084EC8093BC008091BC0087FFFCCF0895AE
:10085000FF920F931F93CF93DF9384E48093BC00A8
:100860008091BC0087FFFCCF8091BB0088E00E9494
:100870001E0484E00E941E040EEC11E0D0E0C0E0F3
:1008800084E8F82EC730D105C9F48091D501809352
:10089000BB00F092BC008091BC0087FFFCCF21968A
:1008A0000F5F1F4FC830D10569F780E88093BC0007
:1008B000DF91CF911F910F91FF900895F8018081F2
:1008C0000E941E04ECCF2F923F924F925F926F9244
:1008D0007F928F929F92AF92BF92CF92DF92EF92D0
:1008E000FF920F931F93CF93DF9300D000D0CDB72B
:1008F000DEB7382F292F69837A838B839C83842EDC
:10090000440F99081FEF811A910A862F972FA32F62
:10091000B22F4BE2C42EB7FF07C0BF7789839A83FB
:10092000AB83BC835DE2C52ED980EA80FB800C815D
:1009300020E030E040E251E46D2D7E2D8F2D902F90
:100940000E946C0E10E087FD1FC06D2C7E2CAF2C1A
:10095000B02E10E020E030E040E251E4B301C501E8
:100960000E94850D3B015C011F5F20E030E040E20A
:1009700051E40E946C0E87FFEDCFC301D50189833E
:100980009A83AB83BC83312E20E030E040E251E417
:100990006D2D7E2D8F2D902F0E94850B87FF21C0FE
:1009A00049805A806B807C8020E030E040E251E456
:1009B000C301B2010E94850B87FF0CC020E030E02C
:1009C00040E251E4C301B2010E94EB0B2B013C0158
:1009D0001150EACF49825A826B827C82332433944D
:1009E000310E49805A806B807C8020E030E040E806
:1009F0005FE3C301B2010E946C0E87FD0BC020E0D3
:100A000030E040E251E4C301B2010E94850D2B01A8
:100A10003C01EBCF60E070E080E89FE310E000E095
:100A200020E030E040E251E40E94EB0B0F5F1F4FEB
:100A300080169106ACF79B01AC0160E070E080EAA3
:100A400090E40E94850DA30192010E94140D2DE2F5
:100A5000C21609F4B6C069837A838B839C8389812B
:100A60009A81AB81BC811BE2B7FF02C0BF771DE258
:100A70006C017D0123E0CC0CDD1CEE1CFF1C2A95D3
:100A8000D1F7E8EFCE22E3E0FE226894F2F837E1F6
:100A9000B595A795979587953A95D1F78F57910971
:100AA0008095909540E050E060E078E02A013B01BD
:100AB00004C0440C551C661C771C8A95D2F7C301F0
:100AC000B2010E948C0B20E030E040E251E40E9431
:100AD000850D0E94F70D2B013C011D3209F077C0F6
:100AE0001093CE0101E010E0B12CA12C80E3282E60
:100AF000C701B601A30192010E942610E1E0AE16E3
:100B0000B10409F067C0F8013196D801A253BE4F75
:100B10001EE21C93DF01A253BE4F21153105410592
:100B2000510509F459C0205D2C936B017C018F01A4
:100B30000F5F1F4FAAE0B0E0A70196010E94C20C10
:100B40006B017C012FEFA21AB20AA814B90484F237
:100B5000D801A253BE4F332009F440C085E48C93E2
:100B6000BF0160537E4F4AE0832D330C990B0E94E6
:100B7000D7092EEC31E090E080E00196F9012F5F7B
:100B80003F4F40814111F9CF20E2208382539E4F95
:100B9000FC0110820F900F900F900F90DF91CF917A
:100BA0001F910F91FF90EF90DF90CF90BF90AF908B
:100BB0009F908F907F906F905F904F903F902F907D
:100BC0000895906869837A838B839C8348CF10E073
:100BD00000E08ACFF8019ECF2C92A9CF1C92C9CFFA
:100BE000EAEDF1E01382128288EE93E0A0E0B0E03B
:100BF00084839583A683B78384E091E09183808387
:100C000085EC90E09587848784EC90E097878687D1
:100C100080EC90E0918B808B81EC90E0938B828BC9
:100C200082EC90E0958B848B86EC90E0978B868BA2
:100C3000118E128E138E148E0895CF93DF93CDB73D
:100C4000DEB7A8970FB6F894DEBF0FBECDBF80E821
:100C50008093610011E0109361008CEF93E00E949B
:100C6000AC0C8093BC0180FF07C01093BC0160E016
:100C700085EF93E00E94B40C8091BC0183FF03C018
:100C800081E08093BB01A89584B7877F84BF809162
:100C900060008861809360001092600092E0909301
:100CA000BA0080917C00806480937C0085B78F7E41
:100CB00085BF8AB18B778AB98BB184688BB9269846
:100CC0002E9A85B78F7E85BF84B18B7784B987B123
:100CD000887F87B98AB187788AB985B1846885B9F0
:100CE00088B1876088B98BB188678BB984B183601C
:100CF00084B929982898E091EA01F091EB0190835A
:100D0000E091E601F091E7011082E091E801F091B5
:100D1000E90180E180831092F201E091EE01F0910F
:100D2000EF0186E08083E091EC01F091ED0180819C
:100D300080618083E091EC01F091ED018081886019
:100D40008083E091EC01F091ED01808180688083E7
:100D5000E091EC01F091ED0180818F7D80837894AA
:100D60001091BC01113011F41093BA018091BB01B4
:100D7000813049F48DEE93E00E94AC0C8F3F19F462
:100D800082E08093BA01123019F483E08093BA01B3
:100D90008DEE93E00E94AC0C8F3E19F484E08093BA
:100DA000BA018DEE93E00E94AC0C8F3D19F485E002
:100DB0008093BA01111103C086E08093BA016FEFEE
:100DC0008DEE93E00E94B40C60E08CEF93E00E9403
:100DD000B40CA895809160008861809360008BE4DA
:100DE00080936000809168008560809368008091A6
:100DF000BA0184300CF0CDC082300CF0D4C0813008
:100E000009F459C190E080E00E94AC0C682F70E0BA
:100E100090E080E00E948A0B20E030E040E251E464
:100E20000E94850D2B013C0182E090E00E94AC0CF9
:100E3000182F81E090E00E94AC0C212F30E0322F7F
:100E40002227A901480F511D5A8F498F84E090E055
:100E50000E94AC0C182F83E090E00E94AC0C212F74
:100E600030E0322F2227D901A80FB11DB8A3AF8FD0
:100E700010E000E080E290E00832110514F08FE508
:100E800090E00E94A6010F5F1F4F0536110591F7F4
:100E90008CE391E00E94CB01E9E1F0E0F88FEF8B69
:100EA000898D9A8D092E000CAA0BBB0B8DA39EA3D6
:100EB000AFA3B8A7312C212CA98DBA8D2A163B06D9
:100EC0000CF005C2B101032C000C880B990B0E9499
:100ED0008C0B6B017C016DA17EA18FA198A50E9456
:100EE0008C0B9B01AC01C701B6010E94850D69A363
:100EF0007AA38BA39CA301E010E0C12CD12C760136
:100F0000EF8DF8A1E017F1070CF4A4C1A895B80182
:100F1000012E000C880B990B0E948C0B4B015C017D
:100F200020ED3FE049E450E4C301B2010E94EB0B25
:100F3000A50194010E94EB0B0E94C10E6B8F7C8F68
:100F40008D8F9E8F20ED3FE049EC50E469A17AA19E
:100F50008BA19CA10E94EB0BA50194010E94EB0BBD
:100F60000E94800D9B01AC016B8D7C8D8D8D9E8DC3
:100F70000E94EB0BA50194010E94850D9B01AC0121
:100F8000C701B6010E94140D6B017C010F5F1F4F5A
:100F9000B7CF843009F4AFC0853009F033CF89E191
:100FA00091E00E94CB0161E090E080E00E94B40CEF
:100FB0006DE281E090E00E94B40C60E082E090E09D
:100FC0000E94B40C6EE183E090E00E94B40C60E0FB
:100FD00084E090E00E94B40C8FE391E00E94CB018A
:100FE0008091BC0183FF03C081E08093BB01A89581
:100FF00084B7877F84BF80916000886180936000A0
:10100000109260008AED91E00E94AB01CE01019642
:101010007C016C0110E000E02FB7F8948091CA01C8
:101020009091CB01A091CC01B091CD012FBF8093C5
:10103000E2019093E301A093E401B093E5018AED0E
:1010400091E00E94090197FF82C12FB7F894809127
:10105000CA019091CB01A091CC01B091CD012FBFDD
:101060004091E2015091E3016091E4017091E5014A
:10107000841B950BA60BB70B4091DE015091DF014D
:101080006091E0017091E10184179507A607B70709
:10109000B0F2D701A00FB11FBD019D0190E080E02B
:1010A0000817190709F43FC0F90142919F01483020
:1010B000D1F50196F5CF82E191E00E94CB0110E0DD
:1010C00000E062E3E62EF12C8AED91E00E942B0114
:1010D000892B09F025C10F5F1F4FA89501342FE11F
:1010E00012072CF041E0E41AF10810E000E0E114EE
:1010F000F10451F7E0CF80916F00816080936F0021
:1011000088EF809385008FE58093840085E080934D
:1011100081000AE010E08CE391E00E94CB010150D5
:101120001109C9F76FCE880F991F30E020E08217B0
:10113000930749F00217130731F0FB011292BF0128
:101140002F5F3F4FF4CF90E080E0A801415051095C
:10115000801791073CF52981F701283061F49F0140
:101160002E193F0924173507B4F781818193108226
:1011700090E080E0F4CFE80FF91F2081283081F45F
:10118000FC013197EE0DFF1D9C012417350744F437
:101190008281819311822F5F3F4F90E080E0F5CFF5
:1011A0000196D6CF1C92C7010E94B5096093C10178
:1011B0007093C2018093C3019093C401A89580915C
:1011C00060008861809360008BE480936000609190
:1011D000C1017091C2018091C3019091C40143E0AB
:1011E0000E9463040E94FA03EEECF1E089ED91E0C5
:1011F000218121938E179F07D9F70E9428046091BF
:10120000C101F090C2010091C3011091C40185E0B9
:1012100090E00E94B40C6F2D86E090E00E94B40C28
:10122000602F87E090E00E94B40C612F88E090E08E
:101230000E94B40C81E891E00E94CB014F9B04C056
:101240001A9B02C0A895FACF80916D0084608093AC
:101250006D00D8CD20E030E048EC52E4C301B2018B
:101260000E94EB0B0E94F70D8B01075E1F4F2BEEC8
:1012700035EA4EE752E4C701B6010E94EB0B0E942B
:10128000F70D060F171FF12CE12CE016F10644F4C0
:1012900080E290E00E94A601FFEFEF1AFF0AF5CF6F
:1012A0008CE790E00E94A6012FEF49EF50E021501B
:1012B00040405040E1F700C000008CE391E00E9404
:1012C000CB01A895A8958FEF281A380AF5CDAF89DC
:1012D000B88D1197B88FAF8BAB2B09F0EBCD8BE9A5
:1012E00091E00E94CB018091BC0183FF03C081E0AB
:1012F0008093BB01A89584B7877F84BF80916000ED
:101300008861809360001092600088E199E00FB6D8
:10131000F894A895809360000FBE90936000FFCF73
:101320008AED91E00E9409018F7D823509F0C3CEDC
:101330008CE391E00E94CB0188E199E00FB6F8942C
:10134000A895809360000FBE90936000FFCF8D3012
:10135000910509F49ECED6018D936D010F5F1F4F4D
:101360000431110509F058CE94CE662777270C94E6
:10137000040AFC0188279927E89421912032E9F397
:10138000293010F02E30C8F32B3241F02D3239F4D1
:10139000689404C00E94E209820F911D219120539C
:1013A0002A30C0F31EF4909581959F4F0895BB2776
:1013B0004A3031F4992322F4BDE2909581959F4FF4
:1013C0000C94EB097AE0979F902D879F802D910DCB
:1013D00011240895BB27FB015527AA27880F991FC1
:1013E000AA1FA41710F0A41B83955051B9F7A05D54
:1013F000AA3308F0A95DA193009779F7B111B193D1
:101400001192CB010C94750BB0E0A0E0EAE0FAE099
:101410000C94D30C5C017B016115710519F0DB01A3
:101420008D939C9385010F5F1F4FF501D0818D2F08
:1014300090E00E94540B6C01892BB9F5DD32B9F5AF
:101440000F5F1F4FD5011196DC91C1E05801F1E00B
:10145000AF1AB10843E050E060E171E0C5010E94BD
:101460005D0B892B69F5680182E0C80ED11C45E04F
:1014700050E06BE071E0C6010E945D0B892B21F406
:10148000680197E0C90ED11CE114F10419F0D701ED
:10149000CD92DC9260E070E080E89FEFC111FFC068
:1014A00060E070E080E89FE7FAC05801BBCFDB3214
:1014B00029F485010E5F1F4FF501D181C0E0C6CF31
:1014C00043E050E068E071E0C5010E945D0B892BAC
:1014D000E9F0F80110E000E020E030E0A9015F0150
:1014E000B0ED8B2E8D0E89E08815C8F19C2E689486
:1014F00091F88C2F8870C2FF16C0811102C00F5F57
:101500001F4F3196D501DC91C92DE9CFE114F104CB
:1015100029F00E5F1F4FF7011183008360E070E038
:1015200080EC9FE7BCC0882311F001501109A5E0B1
:10153000B0E00E94C20C9B01AC01220F331F441F7C
:10154000551F280D311D411D511D283999E93907B5
:10155000490799E15907A8F2C6609C2ED2CFAEEF99
:101560008A1206C0C3FD3CC09C2E689493F8C9CF74
:10157000DF7DD534A9F580818D3239F4C061DF017A
:101580001296818162E070E006C0DF018B32C1F308
:10159000119661E070E080535D01A61AB70A8A30A7
:1015A000F8F4E0E8CE16ECE0DE065CF4B601660F77
:1015B000771F660F771FC60ED71ECC0CDD1CC80E1A
:1015C000D11C5D01FFEFAF1ABF0A8C9180538A30A6
:1015D000A8F1C4FF03C0D194C194D1080C0D1D1D06
:1015E000C1FF09C0E114F10431F081E0A81AB1088B
:1015F000D701AD92BC92CA01B9010E948A0BC37097
:10160000C33009F490584B015C0120E030E0A9019F
:101610000E94850B882309F440C0CFE3D1E017FF77
:1016200005C0119501951109C7E2D1E06E01B8E13D
:10163000CB1AD10880E2E82EF12C0FC0D501B1CF32
:10164000FE0125913591459154910E191F09C5014F
:10165000B4010E94EB0B4B015C01D501C4010E15D6
:101660001F0574F72497F594E794CC16DD06A9F7C7
:101670008A2F880F8B2F881F8F3F49F020E030E0A2
:10168000A901C501B4010E94850B811106C082E247
:1016900090E09093780280937702C501B401CDB7B2
:1016A000DEB7ECE00C94EF0C91110C94580C8032E6
:1016B00019F089508550C8F70895FB01DC014150AD
:1016C000504088F08D9181341CF08B350CF4805E95
:1016D000659161341CF06B350CF4605E861B611102
:1016E00071F3990B0895881BFCCFDC01FC01672F77
:1016F00071917723E1F7329704C07C916D937083E9
:101700006291AE17BF07C8F308950E94C70B08F493
:1017100081E00895E89409C097FB3EF49095809588
:10172000709561957F4F8F4F9F4F9923A9F0F92FA7
:1017300096E9BB279395F695879577956795B79525
:10174000F111F8CFFAF4BB0F11F460FF1BC06F5F0B
:101750007F4F8F4F9F4F16C0882311F096E911C01D
:10176000772321F09EE8872F762F05C0662371F03E
:1017700096E8862F70E060E02AF09A95660F771F52
:10178000881FDAF7880F9695879597F90895990F2E
:101790000008550FAA0BE0E8FEEF16161706E8073B
:1017A000F907C0F012161306E407F50798F0621B5C
:1017B000730B840B950B39F40A2661F0232B242B31
:1017C000252B21F408950A2609F4A140A6958FEF50
:1017D000811D811D08950E94FE0B0C94720C0E94C5
:1017E000640C38F00E946B0C20F0952311F00C94DF
:1017F0005B0C0C94610C11240C94A60C0E94830CBD
:1018000070F3959FC1F3950F50E0551F629FF00153
:10181000729FBB27F00DB11D639FAA27F00DB11D6C
:10182000AA1F649F6627B00DA11D661F829F2227F5
:10183000B00DA11D621F739FB00DA11D621F839F7C
:10184000A00D611D221F749F3327A00D611D231F52
:10185000849F600D211D822F762F6A2F11249F57A0
:1018600050409AF0F1F088234AF0EE0FFF1FBB1FA3
:10187000661F771F881F91505040A9F79E3F510562
:1018800080F00C945B0C0C94A60C5F3FE4F3983E44
:10189000D4F3869577956795B795F795E7959F5F0C
:1018A000C1F7FE2B880F911D9695879597F908959E
:1018B00099278827089597F99F6780E870E060E08E
:1018C00008959FEF80EC089500240A9416161706D9
:1018D00018060906089500240A9412161306140621
:1018E00005060895092E0394000C11F4882352F084
:1018F000BB0F40F4BF2B11F460FF04C06F5F7F4F3C
:101900008F4F9F4F089557FD9058440F551F59F022
:101910005F3F71F04795880F97FB991F61F09F3FDC
:1019200079F087950895121613061406551FF2CF05
:101930004695F1DF08C0161617061806991FF1CF55
:1019400086957105610508940895E894BB2766277C
:101950007727CB0197F90895F999FECF92BD81BD04
:10196000F89A992780B50895262FF999FECF1FBAC6
:1019700092BD81BD20BD0FB6F894FA9AF99A0FBEB8
:10198000019608950E94040DA59F900DB49F900D9F
:10199000A49F800D911D112408952F923F924F9284
:1019A0005F926F927F928F929F92AF92BF92CF92EF
:1019B000DF92EF92FF920F931F93CF93DF93CDB7F8
:1019C000DEB7CA1BDB0B0FB6F894DEBF0FBECDBF70
:1019D00009942A88398848885F846E847D848C8441
:1019E0009B84AA84B984C884DF80EE80FD800C814A
:1019F0001B81AA81B981CE0FD11D0FB6F894DEBF2D
:101A00000FBECDBFED010895A29FB001B39FC001ED
:101A1000A39F700D811D1124911DB29F700D811D1A
:101A20001124911D08955058BB27AA270E942B0D01
:101A30000C94720C0E94640C38F00E946B0C20F025
:101A400039F49F3F19F426F40C94610C0EF4E095E0
:101A5000E7FB0C945B0CE92F0E94830C58F3BA1738
:101A6000620773078407950720F079F4A6F50C94B4
:101A7000A50C0EF4E0950B2EBA2FA02D0B01B90189
:101A800090010C01CA01A0011124FF27591B99F0F4
:101A9000593F50F4503E68F11A16F040A22F232F00
:101AA000342F4427585FF3CF469537952795A79550
:101AB000F0405395C9F77EF41F16BA0B620B730BF7
:101AC000840BBAF09150A1F0FF0FBB1F661F771F68
:101AD000881FC2F70EC0BA0F621F731F841F48F41D
:101AE000879577956795B795F7959E3F08F0B0CFA6
:101AF0009395880F08F09927EE0F9795879508958D
:101B00000E942F0EE3950C94580E0E94990D0C9490
:101B1000720C0E946B0C58F00E94640C40F029F487
:101B20005F3F29F00C945B0C51110C94A60C0C94A3
:101B3000610C0E94830C68F39923B1F3552391F350
:101B4000951B550BBB27AA2762177307840738F02C
:101B50009F5F5F4F220F331F441FAA1FA9F335D089
:101B60000E2E3AF0E0E832D091505040E695001C3D
:101B7000CAF72BD0FE2F29D0660F771F881FBB1FF7
:101B8000261737074807AB07B0E809F0BB0B802DD5
:101B9000BF01FF2793585F4F3AF09E3F510578F001
:101BA0000C945B0C0C94A60C5F3FE4F3983ED4F3CA
:101BB000869577956795B795F7959F5FC9F7880FD5
:101BC000911D9695879597F90895E1E0660F771F27
:101BD000881FBB1F621773078407BA0720F0621BB8
:101BE000730B840BBA0BEE1F88F7E09508950E94E3
:101BF000FE0D6894B1110C94A60C08950E948B0CF4
:101C000088F09F5798F0B92F9927B751B0F0E1F0BD
:101C1000660F771F881F991F1AF0BA95C9F714C06D
:101C2000B13091F00E94A50CB1E008950C94A50C80
:101C3000672F782F8827B85F39F0B93FCCF38695A6
:101C400077956795B395D9F73EF490958095709503
:101C500061957F4F8F4F9F4F08950C94610C0E94A8
:101C60008B0CD8F3E894E0E0BB279F57F0F02AED07
:101C70003FE049EC06C0EE0FBB0F661F771F881FC1
:101C800028F0B23A62077307840728F0B25A620B51
:101C9000730B840BE3959A9572F7803830F49A951C
:101CA000BB0F661F771F881FD2F790480C94050F53
:101CB000EF93E0FF07C0A2EA2AED3FE049EC5FEBBB
:101CC0000E942B0D0E94720C0F90039401FC9058FF
:101CD000E8E6F0E00C94380F0E94C70B08F48FEF91
:101CE0000895FA01EE0FFF1F309621053105A1F18D
:101CF0006115710561F48038BFE39B0749F1689471
:101D00009038810561F08038BFEF9B0741F099233F
:101D10004AF5FF3FE1053105210519F1E8940894E2
:101D2000E795D901AA2329F4AB2FBE2FF85FD0F392
:101D300010C0FF5F70F4A695E0F7F73950F019F086
:101D4000FF3A38F49F779F930DD00F9007FC90587F
:101D5000089546F00C94610C60E070E080E89FE329
:101D600008954FE79F775F934F933F932F930E9480
:101D7000960F2F913F914F915F910E94EB0B0C9426
:101D8000D10E9F930E942F0E0F9007FCEE5F0C94D4
:101D9000580E29F416F00C945B0C0C94A50C0C94C2
:101DA000610C0E948B0CA8F39638A0F707F80F92ED
:101DB000E8942BE33AEA48EB5FE70E94010C0F92AC
:101DC0000F920F924DB75EB70F920E94DE0FE6E8BA
:101DD000F0E00E94110F4F915F91EF91FF91E59517
:101DE000EE1FFF1F49F0FE57E0684427EE0F441F27
:101DF000FA95E1F74195550B0E94580F0F9007FE99
:101E00000C944C0F08959F3F31F0915020F487952A
:101E100077956795B795880F911D9695879597F952
:101E20000895DF93CF931F930F93FF92EF92DF926A
:101E30007B018C01689406C0DA2EEF010E94FE0B34
:101E4000FE01E894A5912591359145915591A6F310
:101E5000EF010E942B0DFE019701A801DA9469F7AA
:101E6000DF90EF90FF900F911F91CF91DF91089538
:101E70009F938F937F936F93FF93EF939B01AC019D
:101E80000E94EB0BEF91FF910E94110F2F913F9158
:101E90004F915F910C94EB0B9B01AC0160E070E003
:101EA00080E89FE30C94850D0C945B0C0C94030F5D
:101EB0000E948B0CD8F39923C9F3940F511DA3F3FF
:101EC0009150504094F059F0882332F0660F771FFC
:101ED000881F91505040C1F79E3F51052CF7880F45
:101EE000911D9695879597F908955F3FACF0983EC0
:101EF0009CF0BB27869577956795B79508F4B160F8
:101F00009395C1F7BB0F58F711F460FFE8CF6F5FEF
:101F10007F4F8F4F9F4FE3CF0C94A60C16F00C947D
:101F2000030F0C94610C68940C945B0C0E948B0C56
:101F3000A8F39923C1F3AEF3DF93CF931F930F93CD
:101F4000FF92C92FDD2788232AF02197660F771F7C
:101F5000881FDAF720E030E040E85FEB9FE3883944
:101F600020F0803E38F021968F770E94140DEEEA23
:101F7000F0E004C00E94140DEBEDF0E00E94110FA0
:101F80008B01BE01EC01FB2E6F5771097595771F10
:101F9000880B990B0E948C0B28E132E741E35FE349
:101FA0000E94FE0BAF2D9801AE01FF900F911F9183
:101FB000CF91DF910E942B0D0C94720CFA01DC0181
:101FC000AA0FBB1F9B01AC01BF5728F42227332760
:101FD0004427507820C0B75190F4AB2F0024469589
:101FE00037952795011CA395D2F3002071F0220F9D
:101FF000331F441FB395DAF30ED00C94130D6130E8
:102000007105A0E88A07B94630F49B01AC01662748
:10201000772788279078309621F020833183428378
:102020005383089597FB072E16F4009407D077FD8D
:1020300009D00E94451007FC05D03EF4909581958B
:102040009F4F0895709561957F4F0895052E97FBDA
:102050001EF400940E943D1057FD07D00E945910B5
:1020600007FC03D04EF40C943D10509540953095EC
:1020700021953F4F4F4F5F4F0895909580957095F4
:1020800061957F4F8F4F9F4F0895AA1BBB1B51E156
:1020900007C0AA1FBB1FA617B70710F0A61BB70BD8
:1020A000881F991F5A95A9F780959095BC01CD017D
:1020B0000895A1E21A2EAA1BBB1BFD010DC0AA1F89
:1020C000BB1FEE1FFF1FA217B307E407F50720F0A1
:1020D000A21BB30BE40BF50B661F771F881F991F1C
:1020E0001A9469F760957095809590959B01AC0165
:1020F000BD01CF010895EE0FFF1F0590F491E02D73
:062100000994F894FFCFE2
:10210600000000005901CD00FA00AB012B010901C6
:102116001D01523F20202020000D0A0D0A4E756D2C
:1021260065726963616C20726573756C74206F7576
:1021360074206F6620626F756E64732E0D0A000D33
:102146000A456E74657220706F73697469766520CE
:10215600736369656E7469666963206E756D626521
:10216600722026207465726D696E617465207769C8
:1021760074682052657475726E206B65792E0D0A2F
:1021860000507265737320535732206F72203320CC
:10219600746F2073746172740D0A000D0A54696DB0
:1021A6006564206F75743A20526573657420696E94
:0A21B600697469617465640D0A0024
:00000001FF
