:100000000C9435000C945D000C945D000C945D0024
:100010000C945D000C94A4020C945D000C945D00A3
:100020000C945D000C945D000C945D000C945D00DC
:100030000C945D000C945D000C945D000C945D00CC
:100040000C9402020C945D000C9472020C944C020D
:100050000C945D000C945D000C945D000C945D00AC
:100060000C945D000C945D008F0311241FBECFEF34
:10007000D8E0DEBFCDBF23E0AEE1B3E001C01D920A
:10008000AE3CB207E1F713E0A0E0B1E0E4E4FDE04C
:1000900002C005900D92AE31B107D9F710E0C5E36B
:1000A000D0E004C02197FE010E949A06C433D10714
:1000B000C9F70E94BC030C94A0060C940000AF92F8
:1000C000BF92CF92DF92EF92FF920F931F93CF9345
:1000D000DF936C017B018B01040F151FEB015E01A7
:1000E000AE18BF08C017D10759F06991D601ED913C
:1000F000FC910190F081E02DC6010995892B79F7DB
:10010000C501DF91CF911F910F91FF90EF90DF908C
:10011000CF90BF90AF900895FC01538D448D252F53
:1001200030E0842F90E0821B930B541710F0CF9691
:10013000089501970895FC01918D828D981761F0C3
:10014000A28DAE0FBF2FB11D5D968C91928D9F5FDA
:100150009F73928F90E008958FEF9FEF0895FC01B9
:10016000918D828D981731F0828DE80FF11D858D6C
:1001700090E008958FEF9FEF0895FC01918D228DFF
:10018000892F90E0805C9F4F821B91098F73992784
:1001900008950F931F93CF93DF93D0E0C0E002E365
:1001A00010E081E393E00E94BD00892B99F4219631
:1001B000A895C1348FE1D80724F001501109D0E08F
:1001C000C0E00115110569F780E0DF91CF911F9123
:1001D0000F91089581E0F9CFFC01A48DA80FB92FEC
:1001E000B11DA35ABF4F2C91848D90E001968F735F
:1001F0009927848FA689B7892C93A089B1898C917E
:10020000837080648C93938D848D981306C00288CC
:10021000F389E02D80818F7D80830895EF92FF9296
:100220000F931F93CF93DF93EC0181E0888F9B8D19
:100230008C8D98131AC0E889F989808185FF15C0D3
:100240009FB7F894EE89FF896083E889F9898081F6
:100250008370806480839FBF81E090E0DF91CF91C5
:100260001F910F91FF90EF900895F62E0B8D10E0E7
:100270000F5F1F4F0F731127E02E8C8D8E110CC056
:100280000FB607FCFACFE889F989808185FFF5CFA1
:10029000CE010E94EC00F1CFEB8DEC0FFD2FF11D94
:1002A000E35AFF4FF0829FB7F8940B8FEA89FB89DE
:1002B00080818062CFCFCF93DF93EC01888D88233C
:1002C000B9F0AA89BB89E889F9898C9185FD03C0B9
:1002D000808186FD0DC00FB607FCF7CF8C9185FF9E
:1002E000F2CF808185FFEDCFCE010E94EC00E9CFF7
:1002F000DF91CF91089530E020E042EB55E046BD1C
:1003000055BDA89BFECFA89A15BCA8952F5F3F4F5F
:1003100082179307A1F708958093BB0084EC809324
:10032000BC008091BC0087FFFCCF0895BF92CF92A4
:10033000DF92EF92FF920F931F93CF93DF93C82F1B
:10034000062F142FD52F84E48093BC008091BC002D
:1003500087FFFCCF8091BB008C2F0E948C01802FE7
:100360000E948C01E12EFD2E10E000E00C2E000C0E
:10037000DD0B6E0181E0C81AD10884E8B82E0C1795
:100380001D07A4F4F70181917F01C016D10659F42D
:100390008093BB00B092BC008091BC0087FFFCCF73
:1003A0000F5F1F4FECCF0E948C01FACF80E8809343
:1003B000BC00DF91CF911F910F91FF90EF90DF90E4
:1003C000CF90BF900895CF93DF9300D0CDB7DEB725
:1003D0008983AE014F5F5F4F64E481E00E94960124
:1003E0000F900F90DF91CF910895FC0101900020B4
:1003F000E9F73197AF01481B590BBC0181E393E04A
:100400000C945F001F920F920FB60F9211242F933E
:100410003F938F939F93AF93BF9380912D039091C0
:100420002E03A0912F03B091300330912C0323E0D1
:10043000230F2D3758F50196A11DB11D20932C03D4
:1004400080932D0390932E03A0932F03B09330033A
:100450008091280390912903A0912A03B0912B0346
:100460000196A11DB11D8093280390932903A093A9
:100470002A03B0932B03BF91AF919F918F913F912E
:100480002F910F900FBE0F901F90189526E8230F05
:100490000296A11DB11DD2CF1F920F920FB60F92DF
:1004A00011242F933F934F935F936F937F938F9379
:1004B0009F93AF93BF93EF93FF9381E393E00E94E9
:1004C000EC00FF91EF91BF91AF919F918F917F9140
:1004D0006F915F914F913F912F910F900FBE0F90B1
:1004E0001F9018951F920F920FB60F9211242F9301
:1004F0008F939F93EF93FF93E0914103F091420319
:100500008081E0914703F091480382FD1BC09081F8
:1005100080914A038F5F8F7320914B03821741F0C4
:10052000E0914A03F0E0EF5CFC4F958F80934A0323
:10053000FF91EF919F918F912F910F900FBE0F9090
:100540001F9018958081F4CF1F920F920FB60F92D3
:1005500011242F933F934F935F936F937F938F93C8
:100560009F93AF93BF93EF93FF934A9B02C04F9922
:10057000A5C085E090E00E947B01DA9A4F9915C0F2
:1005800080910001909101018330910509F463C0CD
:1005900084F5009709F476C0019709F468C040E239
:1005A00053E064E088E00E9496014A9987C08091F8
:1005B0000001909101018330910509F490C00CF085
:1005C0006DC0009709F491C0019709F071C0809146
:1005D0000001909101010197909301018093000126
:1005E000E0910001F0910101E05EFC4F8FE5808316
:1005F0005FC086309105D9F08730910569F0049786
:1006000071F68091240390ED980F8F5F953008F07C
:1006100080E380932403C3CF8091270390ED980F4C
:100620008F5F923008F080E380932703B8CF8091EA
:10063000260390912703923331F490ED980F933075
:1006400030F48F5F05C0893311F08F35D1F780E327
:1006500080932603A4CF80912303893311F08F3533
:1006600021F480E3809323039ACF8F5FFBCF8091A7
:10067000210390ED980F8F5F953008F080E3809311
:1006800021038DCF80912003893311F08F3521F420
:1006900080E38093200383CF8F5FFBCF863091056B
:1006A000F1F08730910509F492CF049709F48FCFC8
:1006B00040E253E064E088E00E949601FF91EF91F0
:1006C000BF91AF919F918F917F916F915F914F916A
:1006D0003F912F910F900FBE0F901F901895809112
:1006E000000190910101029777CF87E090E090930D
:1006F00001018093000181E080931F0380916D00D0
:100700008B7780936D0080E2809322038093250392
:100710004A9BFECF8AE090E00E947B01C9CFE1E3D3
:10072000F3E01382128288EE93E0A0E0B0E08483CD
:100730009583A683B78386E091E09183808385ECDF
:1007400090E09587848784EC90E09787868780EC9B
:1007500090E0918B808B81EC90E0938B828B82EC8C
:1007600090E0958B848B86EC90E0978B868B118E36
:10077000128E138E148E0895CF93DF93CDB7DEB70C
:100780002D970FB6F894DEBF0FBECDBF80E88093E3
:10079000610011E0109361008CEF93E00E945C0611
:1007A00080931E0380FF07C010931E0360E085EF57
:1007B00093E00E946406A89584B7877F84BF8091E8
:1007C00060008861809360001092600092E09093D6
:1007D000BA0080917C00806480937C0085B78F7E16
:1007E00085BF8AB18B778AB98BB184688BB926981B
:1007F0002E9A85B78F7E85BF84B18B7784B987B1F8
:10080000887F87B98AB187788AB985B1846885B9C4
:1008100088B1876088B98BB188678BB984B18360F0
:1008200084B929982898E0914103F091420390837C
:10083000E0913D03F0913E031082E0913F03F0917F
:10084000400380E1808310924903E0914503F091D9
:10085000460386E08083E0914303F0914403808166
:1008600080618083E0914303F0914403808188603C
:100870008083E0914303F09144038081806880830A
:10088000E0914303F091440380818F7D80837894CD
:1008900084EF93E00E945C068F3F29F460E084EFD0
:1008A00093E00E94640684EF93E00E945C0680342B
:1008B00091F40AE010E08BE692E00E94F50101500D
:1008C0001109C9F784E191E00E94F50161E484EF28
:1008D00093E00E94640684EF93E00E945C0686FF2A
:1008E00018C0682F606884EF93E00E9464068BE66E
:1008F00092E00E94F5018BE692E00E94F5018BE602
:1009000092E00E94F5018BE692E00E94F5010C94C2
:1009100000361A9932C04A9930C01D8680E69AEE98
:100920001A9902C00197E1F734E0E32EF12C0CECA8
:1009300013E31A9922C08D85082E000C990B01969D
:10094000B7010E9472068D87882399F3AE01435F39
:100950005F4F61E581E00E94960109830A831B8352
:100960001C83AE014F5F5F4F61E084E00E949601FF
:1009700082E390E00E947B01DCCF4A9985C04F99C9
:1009800083C085E491E00E94F5010E94C90088239C
:10099000C1F381E393E00E949B008F7D823589F74C
:1009A0008BE692E00E94F50184E48093BC00809184
:1009B000BC0087FFFCCF8091BB0080E00E948C01CF
:1009C00082E58093BB0084E88093BC008091BC00EA
:1009D00087FFFCCF80E88093BC008CE491E00E940C
:1009E000F50184E48093BC008091BC0087FFFCCFBC
:1009F0008091BB0084EC8093BC008091BC0087FF99
:100A0000FCCFF090BB0084EC8093BC008091BC00D4
:100A100087FFFCCF8091BB0090E0982F882724E8C7
:100A20002093BC002091BC0027FFFCCF0091BB00AD
:100A3000080F192F111D80E88093BC0081E791E019
:100A40000E94F5014AE0BE016F5F7F4F8F2D90E05D
:100A50000E942706CE0101960E94F50188E891E0E8
:100A60000E94F5014AE0BE016F5F7F4FC8010E94FE
:100A70002706CE0101960E94F5010E3E124024F495
:100A80008EE991E00E94F5014F9921C085E491E043
:100A90000E94F5010E94C9008823C1F381E393E01D
:100AA0000E949B008F7D823589F78BE692E00E9441
:100AB000F50185EA91E00E94F5018FE292E00E9443
:100AC000F5018EE692E00E94F5014F9BFECF8091EA
:100AD000680085608093680080916B0084608093DB
:100AE0006B0080916D00846880936D0080916B0035
:100AF0008B7F80936B001092200310922103109241
:100B000022031092230310922403109225031092C3
:100B100026038FE58093270340E253E064E088E0FA
:100B20000E949601789480911F038823E1F310922C
:100B30001F0360E273E084E293E0DB01FB0121919B
:100B4000BF0117963C911797AF0141505109FA0127
:100B5000308317962C93179711978617970771F77D
:100B600040E253E063E488E00E94960110E08AE0EE
:100B700090E00E947B01123009F452C0DCF4112392
:100B800019F11130A1F74F9907C085E30E94E301E5
:100B900084E190E00E947B014A9907C088E30E94AB
:100BA000E30184E190E00E947B011A990BC01A9B3B
:100BB000FECFDCCF123421F1133451F11134B9F6E8
:100BC0001A9B1AC011E0D3CF1A9905C082E390E0B6
:100BD0000E947B0111E44F9906C082E30E94E30169
:100BE0004F9BFECF12E44A99C2CF83E30E94E301F8
:100BF0004A9BFECF13E4BBCF1A9BFECF12E0B7CFC8
:100C00004F99B5CF81E30E94E3014F9BFECFAECF5A
:100C10004A99F0CF81E30E94E3014A9BFECFA6CF21
:100C20004F9907C087E30E94E30184E190E00E94AE
:100C30007B014A9907C086E30E94E30184E190E0CA
:100C40000E947B011A99DACF1A9BFECF8FCFBB2768
:100C50004A3031F4992322F4BDE2909581959F4F5B
:100C60000C943306BB27FB015527AA27880F991F31
:100C7000AA1FA41710F0A41B83955051B9F7A05DCB
:100C8000AA3308F0A95DA193009779F7B111B19348
:100C90001192CB010C944C06DC01FC01672F719181
:100CA0007723E1F7329704C07C916D937083629152
:100CB000AE17BF07C8F30895F999FECF92BD81BD65
:100CC000F89A992780B50895262FF999FECF1FBA73
:100CD00092BD81BD20BD0FB6F894FA9AF99A0FBE65
:100CE0000196089597FB072E16F4009407D077FD20
:100CF00009D00E94860607FC05D03EF490958195A8
:100D00009F4F0895709561957F4F0895AA1BBB1B57
:100D100051E107C0AA1FBB1FA617B70710F0A61BFB
:100D2000B70B881F991F5A95A9F780959095BC011C
:100D3000CD010895EE0FFF1F0590F491E02D099469
:040D4000F894FFCF55
:100D44000700000000000E015F008C005B01BD0085
:100D54009B00AF0050726F6A65637420636F6D6DA2
:100D6400656E746172793A205072657373202758E6
:100D74002720746F20657363617065206F72204152
:100D84004F4B0D0A00523F20202020000D0A5043F3
:100D9400425F4120286D696E695F4F532920646565
:100DA400766963652063616C6962726174696E67F8
:100DB400000D0A4F534343414C20757365722076EE
:100DC400616C7565202020000D0A63616C69627294
:100DD4006174696F6E206572726F7220200020202A
:100DE4004F4B0D0A000D0A5354414E442D612D4CB6
:100DF4004F4E4520434C4F434B0D0A5573652073AA
:100E0400773220616E64203120746F20656E7465C2
:100E1400722074696D6520283234487220636C6FC7
:100E2400636B290D0A616E642073773120746F201F
:100E340073746172742074686520636C6F636B2EC5
:100E44000D0A50726573732073773220746F2074A7
:100E54006F67676C652074686520646973706C6182
:100E640079206F6E20616E64206F66660D0A0050F3
:100E7400726573732073773120746F20706175739A
:100E840065206F7220726573756D652074686520C6
:100E9400636C6F636B0D0A546F2061646A757374BD
:100EA4002074686520636C6F636B3A0D0A0070757B
:100EB4006C736520737733207468656E2070726577
:100EC40073732073773120616E64207377322074DA
:100ED4006F20616476616E6365207468652074694F
:100EE4006D650D0A6F7220707265737320616E6494
:100EF40020686F6C64207377332028666F72203506
:100F040030306D73290D0A7468656E2070726573D4
:100F1400732073773120616E642073773220746F8D
:100F240020726574617264207468652074696D65EB
:100F34000D0A416C776179732070756C7365207349
:100F44007733207768656E207468652074696D65F1
:0E0F540020697320636F72726563740D0A006A
:00000001FF
