:100000000C9444000C946C000C946C000C946C00E8
:100010000C946C000C94B0020C946C000C946C006A
:100020000C946C000C946C000C946C000C946C00A0
:100030000C946C000C9480020C946C000C946C007A
:100040000C94DE010C946C000C944E020C9428026B
:100050000C946C000C946C000C946C000C946C0070
:100060000C946C000C946C0005A84CCDB2D44EB925
:100070003836A9020C50B9918688083CA6AAAA2A4B
:10008000BE000000803F600311241FBECFEFD8E008
:10009000DEBFCDBF21E0A0E2B1E001C01D92A43DD2
:1000A000B207E1F711E0A0E0B1E0E8E0F4E102C05E
:1000B00005900D92A032B107D9F710E0C4E4D0E06A
:1000C00004C02197FE010E94FC09C334D107C9F77F
:1000D0000E948D030C94020A0C940000AF92BF9210
:1000E000CF92DF92EF92FF920F931F93CF93DF9304
:1000F0006C017B018B01040F151FEB015E01AE1833
:10010000BF08C017D10759F06991D601ED91FC9154
:100110000190F081E02DC6010995892B79F7C50181
:10012000DF91CF911F910F91FF90EF90DF90CF90D3
:10013000BF90AF900895FC01538D448D252F30E082
:10014000842F90E0821B930B541710F0CF960895E4
:1001500001970895FC01918D828D981761F0A28D11
:10016000AE0FBF2FB11D5D968C91928D9F5F9F73D7
:10017000928F90E008958FEF9FEF0895FC01918D8D
:10018000828D981731F0828DE80FF11D858D90E0FA
:1001900008958FEF9FEF0895FC01918D228D892F97
:1001A00090E0805C9F4F821B91098F73992708957F
:1001B000FC01A48DA80FB92FB11DA35ABF4F2C91DC
:1001C000848D90E001968F739927848FA689B789D3
:1001D0002C93A089B1898C91837080648C93938DCA
:1001E000848D981306C00288F389E02D80818F7D6D
:1001F00080830895EF92FF920F931F93CF93DF9325
:10020000EC0181E0888F9B8D8C8D98131AC0E88952
:10021000F989808185FF15C09FB7F894EE89FF8921
:100220006083E889F98980818370806480839FBFBF
:1002300081E090E0DF91CF911F910F91FF90EF90BF
:100240000895F62E0B8D10E00F5F1F4F0F731127CF
:10025000E02E8C8D8E110CC00FB607FCFACFE8890A
:10026000F989808185FFF5CFCE010E94D800F1CFBA
:10027000EB8DEC0FFD2FF11DE35AFF4FF0829FB77E
:10028000F8940B8FEA89FB8980818062CFCF682F39
:1002900087E391E00C94FA00CF93DF93EC01888D13
:1002A0008823B9F0AA89BB89E889F9898C9185FDF1
:1002B00003C0808186FD0DC00FB607FCF7CF8C917F
:1002C00085FFF2CF808185FFEDCFCE010E94D8005F
:1002D000E9CFDF91CF910895CF92DF92EF92FF9215
:1002E0000F931F93CF93DF938C599F4F6C018B011A
:1002F0000C591F4FD0E0C0E080E00C171D0729F417
:100300008CE790E00E94470181E09E012F5F3F4F04
:100310007901CC16DD0651F481E290E00E9447019C
:1003200034E6C316D10459F4E701E6CFC436D1054B
:1003300099F48111F9CF8AE390E00E944701E70127
:10034000CF3AD105C9F6DF91CF911F910F91FF9060
:10035000EF90DF90CF9008958111F1CF80E290E08F
:10036000ECCF0F931F93CF93DF938C010C591F4F4A
:10037000D0E0C0E08CE790E00C171D0739F080E278
:1003800090E0C436D10511F48AE390E00E94470161
:100390002196CF3AD10571F7DF91CF911F910F913F
:1003A0000895FC0101900020E9F73197AF01481B47
:1003B000590BBC0187E391E00C946E001F920F92E1
:1003C0000FB60F9211242F933F938F939F93AF9368
:1003D000BF938091330190913401A0913501B09188
:1003E00036013091320123E0230F2D3758F5019665
:1003F000A11DB11D209332018093330190933401EC
:10040000A0933501B093360180912E0190912F0178
:10041000A0913001B09131010196A11DB11D8093D1
:100420002E0190932F01A0933001B0933101BF9121
:10043000AF919F918F913F912F910F900FBE0F9091
:100440001F90189526E8230F0296A11DB11DD2CF4B
:100450001F920F920FB60F9211242F933F934F9339
:100460005F936F937F938F939F93AF93BF93EF931C
:10047000FF9387E391E00E94D800FF91EF91BF9135
:10048000AF919F918F917F916F915F914F913F912C
:100490002F910F900FBE0F901F9018951F920F92E3
:1004A0000FB60F9211242F938F939F93EF93FF9387
:1004B000E0914701F09148018081E0914D01F09178
:1004C0004E0182FD1BC09081809150018F5F8F7320
:1004D00020915101821741F0E0915001F0E0E95C78
:1004E000FE4F958F80935001FF91EF919F918F91D7
:1004F0002F910F900FBE0F901F9018958081F4CF11
:100500001F920F920FB60F9211242F933F934F9388
:100510005F936F937F938F939F93AF93BF93EF936B
:10052000FF93EFE6F0E080818E7F8083EDE6F0E0E0
:1005300080818460808382E191E00E94D101FF91FB
:10054000EF91BF91AF919F918F917F916F915F914B
:100550004F913F912F910F900FBE0F901F901895C4
:100560001F920F920FB60F921124CF92DF92EF924B
:10057000FF920F931F932F933F934F935F936F932C
:100580007F938F939F93AF93BF93EF93FF93CF93FB
:10059000DF93CDB7DEB7A197DEBFCDBF4A9937C095
:1005A000789480916D008B7F80936D0010E000E067
:1005B00087E391E00E94CC0098012E5D3E4F7901C7
:1005C000892B61F087E391E00E94AA00F701808304
:1005D00080538A3068F70F5F1F4FEACFF90110820E
:1005E000012B39F082E291E00E94FE0680339105F2
:1005F00069F580916F00816080936F0088EF809330
:1006000085008FE58093840085E080938100A1962A
:100610000FB6F894DEBF0FBECDBFDF91CF91FF9133
:10062000EF91BF91AF919F918F917F916F915F916A
:100630004F913F912F911F910F91FF90EF90DF907D
:10064000CF900F900FBE0F901F9018958A30910594
:10065000ACF4682F90E080E00E94270860E08CEF07
:1006600093E00E94270888E199E00FB6F894A895D6
:10067000809360000FBE90936000FFCF9C01990FA4
:10068000440B550B19A28E010F5D1F4F8AE0C82E37
:10069000D12CE12CF12CCA01B901A70196010E94CD
:1006A000DA09605DF80162938F012115310541057A
:1006B000510589F7309791F2CF010E94D101CECF39
:1006C000E7E3F1E01382128288EE93E0A0E0B0E06D
:1006D00084839583A683B78384E091E091838083AC
:1006E00085EC90E09587848784EC90E097878687F7
:1006F00080EC90E0918B808B81EC90E0938B828BEF
:1007000082EC90E0958B848B86EC90E0978B868BC7
:10071000118E128E138E148E0895CF93DF93CDB762
:10072000DEB762970FB6F894DEBF0FBECDBF80E88C
:100730008093610021E0209361008CEF93E00E94A0
:100740001F08811108C031E0309321016FEF8CEF59
:1007500093E00E942708A89584B7877F84BF809183
:1007600060008861809360001092600082E0809356
:10077000BA0080917C00806480937C0085B78F7E76
:1007800085BF8AB18B778AB98BB184688BB926987B
:100790002E9A85B78F7E85BF84B18B7784B987B158
:1007A000887F87B98AB187788AB985B1846885B925
:1007B00088B1876088B98BB188678BB984B1836051
:1007C00084B929982898E0914701F091480192E076
:1007D0009083E0914301F09144011082E091450142
:1007E000F091460180E1808310924F01E0914B012E
:1007F000F0914C0186E08083E0914901F0914A013B
:10080000808180618083E0914901F0914A0180817B
:1008100088608083E0914901F0914A01808180687D
:100820008083E0914901F0914A0180818F7D80832E
:1008300078941092200180912101813049F48DEE4D
:1008400093E00E941F088F3F19F422E020932001BB
:100850008DEE93E00E941F088F3E19F484E0809390
:1008600020018DEE93E00E941F088F3D19F485E072
:10087000809320016FEF8DEE93E00E942708A895EA
:10088000809160008861809360008BE480936000B9
:10089000809168008560809368008CEF93E00E94EF
:1008A0001F08811108C081E0809321016FEF8CEF58
:1008B00093E00E942708A89584B7877F84BF809122
:1008C0006000886180936000109260008091200138
:1008D000823009F4CBC185E191E00E94D1011A82F6
:1008E000198202E310E087E391E00E94CC00892B9B
:1008F00009F0ABC189819A8101969A838983A89571
:1009000081349F4124F0015011091A821982011586
:10091000110549F7E0CF8FE590E0B6C189899A8942
:10092000049709F049C020ED3FE049EC50E4C501CF
:10093000B4010E9461072B013C0120E030E040E857
:1009400050E40E9461070E944A0920E030E040E83C
:100950005EE30E94610720E030E040EA52E40E943A
:1009600061070E941409EE24FF24E61AF70A20E02A
:1009700030E040E05FE3C301B2010E94360820E0AE
:1009800030E040E850E40E9461070E944A0920E0FC
:1009900030E040E85EE30E94610720E030E040EA9A
:1009A00052E40E9461070E94140922273327261B64
:1009B000370B3C872B87DAC189899A89069709F01A
:1009C00049C020ED3FE049EC50E4C501B4010E946C
:1009D00061072B013C0120E030E040EC50E40E9434
:1009E00061070E944A0920E030E040EC50E40E9498
:1009F000A20820E030E040EA52E40E9461070E9431
:100A0000140922243324261A370A20E030E040E07B
:100A10005FE3C301B2010E94360820E030E040EC01
:100A200050E40E9461070E944A0920E030E040EC57
:100A300050E40E94A20820E030E040EA52E40E9424
:100A400061070E94140922273327261B370B3E8794
:100A50002D878CC189899A89089709F04BC020EDB0
:100A60003FE049EC50E4C501B4010E9461072B014D
:100A70003C0120E030E040E051E40E9461070E9428
:100A80004A0920E030E040E05EE30E94610720E098
:100A900030E040EA52E40E9461070E9414092227D4
:100AA0003327261B370B3C832B8320E030E040E0CC
:100AB0005FE3C301B2010E94360820E030E040E06D
:100AC00051E40E9461070E944A0920E030E040E0C2
:100AD0005EE30E94610720E030E040EA52E40E94B9
:100AE00061070E94140922273327261B370B388BF6
:100AF0002F873CC189899A890A9709F037C120ED6F
:100B00003FE049EC50E4C501B4010E9461072B01AC
:100B10003C0120E030E040E251E40E9461070E9485
:100B20004A0920E030E040E251E40E94A20820E0BF
:100B300030E040EA52E40E9461070E941409222733
:100B40003327261B370B3E832D8320E030E040E027
:100B50005FE3C301B2010E94360820E030E040E2CA
:100B600051E40E9461070E944A0920E030E040E21F
:100B700051E40E94A20820E030E040EA52E40E94E2
:100B800061070E94140922273327261B370B388759
:100B90002F83ECC0C8010E94B1013FEF89EF90E0C4
:100BA000315080409040E1F700C000008CE191E0BE
:100BB0000E94D101A89529813A812F5F3F4F3A8346
:100BC00029832D32310509F070C06DC0B601C8010E
:100BD0000E946C01E2CFB701FACFB101F8CF6B816F
:100BE0007C81F5CFC6018E0D9F1DD5CFC6018E0D20
:100BF0009F1D820D931DCFCFC6018E0D9F1D820DAF
:100C0000931D2B813C81820F931FC5CFC6018E0D92
:100C10009F1D820D931D2B813C81820F931F2D817F
:100C20003E81F1CF69857A858B859C85680F791F18
:100C30002D853E85620F731F8F859889680F791FF8
:100C40002F813885620F731FC2CF87E391E00E9426
:100C5000AA008F7D823509F03ECE8CE191E00E94A2
:100C6000D10160E090E080E00E94270880916D0053
:100C7000846080936D001A82198289819A81889795
:100C80000CF049CE80E290E00E94470129813A8130
:100C90002F5F3F4F3A8329832536310571F78CE169
:100CA00091E00E94D1011A82198229813A81B90109
:100CB000330F880B990B0E94260720E030E044E3B5
:100CC00052E40E94A2084B015C0181E090E09A8B03
:100CD000898B10E000E0A89529893A8922303105F6
:100CE00009F01CCE20ED3FE049EC50E4C501B40111
:100CF0000E9461072B013C01AC019B010E94360858
:100D00000E944A0920E030E040E05FE30E94610772
:100D100020E030E040EA52E40E9461070E9414099A
:100D2000CC24DD24C61AD70A20E030E040E05FE39F
:100D3000C301B2010E9436089B01AC010E94360833
:100D40000E944A0920E030E040E05FE30E94610732
:100D500020E030E040EA52E40E9461070E9414095A
:100D600022273327261B370B3A872987398930FDFD
:100D700026C029893A89B901330F880B990B0E9443
:100D800026072B013C0120ED3FE049EC50E4C50172
:100D9000B4010E946107A30192010E9461070E94B1
:100DA0004A09A30192010E94A20820E030E040EA33
:100DB00052E40E9461070E941409061B170B8989DF
:100DC0009A8901969A8B898B8E9709F084CF90E04F
:100DD00080E00E941F088A3008F0DFCEE82FF0E0A4
:100DE000EC50F94F0C94FC09CA05E605EB05ED053E
:100DF000EF05F205F605FC0506061206FC0188273C
:100E00009927E89421912032E9F3293010F02E300F
:100E1000C8F32B3241F02D3239F4689404C00E949B
:100E20001C07820F911D219120532A30C0F31EF41C
:100E3000909581959F4F08957AE0979F902D879F79
:100E4000802D910D11240895E89409C097FB3EF47C
:100E500090958095709561957F4F8F4F9F4F992307
:100E6000A9F0F92F96E9BB279395F6958795779585
:100E70006795B795F111F8CFFAF4BB0F11F460FF45
:100E80001BC06F5F7F4F8F4F9F4F16C0882311F09D
:100E900096E911C0772321F09EE8872F762F05C0B1
:100EA000662371F096E8862F70E060E02AF09A954C
:100EB000660F771F881FDAF7880F9695879597F941
:100EC00008950E9474070C94E5070E94D70738F034
:100ED0000E94DE0720F0952311F00C94CE070C94AD
:100EE000D40711240C9419080E94F60770F3959FFB
:100EF000C1F3950F50E0551F629FF001729FBB2711
:100F0000F00DB11D639FAA27F00DB11DAA1F649FAC
:100F10006627B00DA11D661F829F2227B00DA11D5F
:100F2000621F739FB00DA11D621F839FA00D611DE5
:100F3000221F749F3327A00D611D231F849F600D06
:100F4000211D822F762F6A2F11249F5750409AF02F
:100F5000F1F088234AF0EE0FFF1FBB1F661F771FBB
:100F6000881F91505040A9F79E3F510580F00C9486
:100F7000CE070C9419085F3FE4F3983ED4F38695AE
:100F800077956795B795F795E7959F5FC1F7FE2B26
:100F9000880F911D9695879597F9089597F99F6702
:100FA00080E870E060E008959FEF80EC08950024F1
:100FB0000A941616170618060906089500240A94BE
:100FC00012161306140605060895092E0394000C44
:100FD00011F4882352F0BB0F40F4BF2B11F460FFD3
:100FE00004C06F5F7F4F8F4F9F4F089557FD9058FC
:100FF000440F551F59F05F3F71F04795880F97FBDD
:10100000991F61F09F3F79F0879508951216130696
:101010001406551FF2CF4695F1DF08C016161706C5
:101020001806991FF1CF86957105610508940895FA
:10103000E894BB2766277727CB0197F90895F9999C
:10104000FECF92BD81BDF89A992780B50895262FCD
:10105000F999FECF1FBA92BD81BD20BD0FB6F8949D
:10106000FA9AF99A0FBE019608955058BB27AA27FD
:101070000E944D080C94E5070E94D70738F00E94A3
:10108000DE0720F039F49F3F19F426F40C94D407BE
:101090000EF4E095E7FB0C94CE07E92F0E94F607CB
:1010A00058F3BA17620773078407950720F079F49D
:1010B000A6F50C9418080EF4E0950B2EBA2FA02D6F
:1010C0000B01B90190010C01CA01A0011124FF27F5
:1010D000591B99F0593F50F4503E68F11A16F040F0
:1010E000A22F232F342F4427585FF3CF46953795EF
:1010F0002795A795F0405395C9F77EF41F16BA0BB4
:10110000620B730B840BBAF09150A1F0FF0FBB1F61
:10111000661F771F881FC2F70EC0BA0F621F731FAA
:10112000841F48F4879577956795B795F7959E3F07
:1011300008F0B0CF9395880F08F09927EE0F979598
:10114000879508950E94B6080C94E5070E94DE0773
:1011500058F00E94D70740F029F45F3F29F00C9423
:10116000CE0751110C9419080C94D4070E94F6076D
:1011700068F39923B1F3552391F3951B550BBB27C6
:10118000AA2762177307840738F09F5F5F4F220F0B
:10119000331F441FAA1FA9F335D00E2E3AF0E0E802
:1011A00032D091505040E695001CCAF72BD0FE2F4C
:1011B00029D0660F771F881FBB1F261737074807E0
:1011C000AB07B0E809F0BB0B802DBF01FF27935898
:1011D0005F4F3AF09E3F510578F00C94CE070C9487
:1011E00019085F3FE4F3983ED4F3869577956795A9
:1011F000B795F7959F5FC9F7880F911D96958795CD
:1012000097F90895E1E0660F771F881FBB1F6217EB
:1012100073078407BA0720F0621B730B840BBA0BA9
:10122000EE1F88F7E09508950E941B096894B1119C
:101230000C94190808950E94FE0788F09F5798F0B3
:10124000B92F9927B751B0F0E1F0660F771F881FCB
:10125000991F1AF0BA95C9F714C0B13091F00E94E5
:101260001808B1E008950C941808672F782F882784
:10127000B85F39F0B93FCCF3869577956795B3950C
:10128000D9F73EF490958095709561957F4F8F4F7B
:101290009F4F08959F930E9454090F9007FCEE5FA3
:1012A0000C947D090C94D4070E94FE07D8F3E894AF
:1012B000E0E0BB279F57F0F02AED3FE049EC06C085
:1012C000EE0FBB0F661F771F881F28F0B23A620728
:1012D0007307840728F0B25A620B730B840BE395F3
:1012E0009A9572F7803830F49A95BB0F661F771F76
:1012F000881FD2F790480C949309EF93E0FF07C042
:10130000A2EA2AED3FE049EC5FEB0E944D080E9403
:10131000E5070F90039401FC9058E8E6F0E00C9488
:101320009F099F3F31F0915020F4879577956795FD
:10133000B795880F911D9695879597F908959F9376
:101340008F937F936F93FF93EF939B01AC010E9468
:101350006107EF91FF910E94B3092F913F914F9147
:101360005F910C946107DF93CF931F930F93FF92CC
:10137000EF92DF927B018C01689406C0DA2EEF01B8
:101380000E947407FE01E894A5912591359145913D
:101390005591A6F3EF010E944D08FE019701A801A7
:1013A000DA9469F7DF90EF90FF900F911F91CF9142
:1013B000DF910895A1E21A2EAA1BBB1BFD010DC0EF
:1013C000AA1FBB1FEE1FFF1FA217B307E407F507F5
:1013D00020F0A21BB30BE40BF50B661F771F881FD1
:1013E000991F1A9469F760957095809590959B0167
:1013F000AC01BD01CF010895EE0FFF1F0590F491E0
:08140000E02D0994F894FFCFE0
:1014080000000000FA006E009B004C01CC00AA000E
:10141800BE00213F00523F20202020000D0A00007E
:00000001FF
